:020000040800F2
:1000000000000420ED4F0008F1140008F31400086C
:10001000F5140008F7140008F914000800000000A7
:10002000000000000000000000000000FB140008B9
:10003000FD14000800000000FF140008011500086E
:100040003D5000083D5000083D5000083D5000085C
:100050003D5000083D5000083D5000083D5000084C
:100060003D5000083D5000083D5000083D5000083C
:100070003D5000083D5000083D5000083D5000082C
:100080003D5000083D5000083D5000083D5000081C
:100090003D5000083D5000083D5000083D5000080C
:1000A0003D5000083D5000083D5000083D500008FC
:1000B0003D5000083D5000083D5000083D500008EC
:1000C0003D5000083D5000083D5000083D500008DC
:1000D0003D5000083D5000083D5000083D500008CC
:1000E0003D5000083D5000083D5000083D500008BC
:1000F0003D5000083D5000083D5000083D500008AC
:10010000000000003D5000083D5000083D50000830
:100110000000000000000000091500083D50000824
:10012000191500083D5000083D5000083D500008DA
:100130003D5000083D5000083D5000083D5000086B
:100140003D5000083D5000083D5000083D5000085B
:100150003D5000083D5000083D5000083D5000084B
:100160003D5000083D500008000000000000000065
:10017000000000000000000000000000000000007F
:100180003D5000083D500008000000000000000045
:100190003D5000083D500008000000000000000035
:1001A000000000000000000000000000000000004F
:1001B0000000000000000000000000003D500008AA
:0401C0003D500008A6
:1001D00010B5054C237833B9044B13B10448AFF381
:1001E00000800123237010BDA42D0020000000001A
:1001F000707C000808B5034B1BB103490348AFF3FB
:10020000008008BD00000000A82D0020707C0008C0
:10021000034613F8012B002AFBD1181A0138704746
:1002200001F0FF01102A2BDB10F0070F08D010F8A7
:10023000013B013A8B422DD010F0070F42B3F6D1AB
:10024000F0B441EA012141EA014122F007047FF0C4
:1002500000070023F0E80256083C85EA010586EA1B
:10026000010685FA47F5A3FA87F586FA47F6A5FA57
:1002700087F68EB9EED1F0BC01F0FF0102F0070263
:1002800032B110F8013B013A83EA010313B1F8D10E
:100290000020704701387047002D06BF35460338EF
:1002A000073815F0010F07D1013015F4807F02BF28
:1002B000013015F4C03F0130F0BC0138704700BF79
:1002C00081F0004102E000BF83F0004330B54FEA07
:1002D00041044FEA430594EA050F08BF90EA020F74
:1002E0001FBF54EA000C55EA020C7FEA645C7FEA07
:1002F000655C00F0E2804FEA5454D4EB5555B8BF2A
:100300006D420CDD2C4480EA020281EA030382EA9A
:10031000000083EA010180EA020281EA0303362D2C
:1003200088BF30BD11F0004F4FEA01314FF4801CFF
:100330004CEA113102D0404261EB410113F0004F11
:100340004FEA03334CEA133302D0524263EB4303C8
:1003500094EA050F00F0A780A4F10104D5F1200E66
:100360000DDB02FA0EFC22FA05F2801841F10001C1
:1003700003FA0EF2801843FA05F359410EE0A5F195
:1003800020050EF1200E012A03FA0EFC28BF4CF0C6
:10039000020C43FA05F3C01851EBE37101F000457C
:1003A00007D54FF0000EDCF1000C7EEB00006EEB89
:1003B0000101B1F5801F1BD3B1F5001F0CD3490813
:1003C0005FEA30004FEA3C0C04F101044FEA44526A
:1003D00012F5800F80F09A80BCF1004F08BF5FEAF1
:1003E000500C50F1000041EB045141EA050130BDD1
:1003F0005FEA4C0C404141EB0101013C28BFB1F5E3
:10040000801FE9D291F0000F04BF01460020B1FA2D
:1004100081F308BF2033A3F10B03B3F120020CDA00
:100420000C3208DD02F1140CC2F10C0201FA0CF0DE
:1004300021FA02F10CE002F11402D8BFC2F1200C43
:1004400001FA02F120FA0CFCDCBF41EA0C019040F9
:10045000E41AA2BF01EB0451294330BD6FEA040442
:100460001F3C1CDA0C340EDC04F11404C4F120022D
:1004700020FA04F001FA02F340EA030021FA04F33F
:1004800045EA030130BDC4F10C04C4F1200220FA96
:1004900002F001FA04F340EA0300294630BD21FAD4
:1004A00004F0294630BD94F0000F83F4801306BF9A
:1004B00081F480110134013D4EE77FEA645C18BF8E
:1004C0007FEA655C29D094EA050F08BF90EA020F25
:1004D00005D054EA000C04BF1946104630BD91EA1D
:1004E000030F1EBF0021002030BD5FEA545C05D120
:1004F0004000494128BF41F0004130BD14F580045F
:100500003CBF01F5801130BD01F0004545F0FE41D2
:1005100041F470014FF0000030BD7FEA645C1ABF07
:10052000194610467FEA655C1CBF0B46024650EA3E
:10053000013406BF52EA033591EA030F41F400216A
:1005400030BD00BF90F0000F04BF0021704730B5F0
:100550004FF4806404F132044FF000054FF00001C5
:1005600050E700BF90F0000F04BF0021704730B586
:100570004FF4806404F1320410F0004548BF40425B
:100580004FF000013EE700BF42004FEAE2014FEAB0
:1005900031014FEA02701FBF12F07F4393F07F4F8B
:1005A00081F06051704732F07F4208BF704793F08E
:1005B0007F4F04BF41F40021704730B54FF46074A1
:1005C00001F0004521F000411CE700BF50EA0102A4
:1005D00008BF704730B54FF000050AE050EA01024D
:1005E00008BF704730B511F0004502D5404261EBBD
:1005F00041014FF4806404F132045FEA915C3FF4FE
:10060000D8AE4FF003025FEADC0C18BF03325FEA9A
:10061000DC0C18BF033202EBDC02C2F1200300FA4B
:1006200003FC20FA02F001FA03FE40EA0E0021FA70
:1006300002F11444BDE600BF70B54FF0FF0C4CF45E
:10064000E06C1CEA11541DBF1CEA135594EA0C0F10
:1006500095EA0C0F00F0DEF82C4481EA030621EA4B
:100660004C5123EA4C5350EA013518BF52EA033586
:1006700041F4801143F4801338D0A0FB02CE4FF038
:100680000005E1FB02E506F00042E0FB03E54FF068
:100690000006E1FB03569CF0000F18BF4EF0010E60
:1006A000A4F1FF04B6F5007F64F5407404D25FEA5C
:1006B0004E0E6D4146EB060642EAC62141EA55510F
:1006C0004FEAC52040EA5E504FEACE2EB4F1FD0C51
:1006D00088BFBCF5E06F1ED8BEF1004F08BF5FEACF
:1006E000500E50F1000041EB045170BD06F0004681
:1006F00046EA010140EA020081EA0301B4EB5C042E
:10070000C2BFD4EB0C0541EA045170BD41F4801125
:100710004FF0000E013C00F3AB8014F1360FDEBF4A
:10072000002001F0004170BDC4F10004203C35DA26
:100730000C341BDC04F11404C4F1200500FA05F3A9
:1007400020FA04F001FA05F240EA020001F000424A
:1007500021F0004110EBD37021FA04F642EB0601C0
:100760005EEA430E08BF20EAD37070BDC4F10C04EA
:10077000C4F1200500FA04F320FA05F001FA04F2AE
:1007800040EA020001F0004110EBD37041F100019A
:100790005EEA430E08BF20EAD37070BDC4F12005A5
:1007A00000FA05F24EEA020E20FA04F301FA05F20D
:1007B00043EA020321FA04F001F0004121FA04F2B5
:1007C00020EA020000EBD3705EEA430E08BF20EA85
:1007D000D37070BD94F0000F0FD101F000464000BF
:1007E00041EB010111F4801F08BF013CF7D041EA41
:1007F000060195F0000F18BF704703F00046520045
:1008000043EB030313F4801F08BF013DF7D043EA15
:100810000603704794EA0C0F0CEA135518BF95EACB
:100820000C0F0CD050EA410618BF52EA4306D1D152
:1008300081EA030101F000414FF0000070BD50EA71
:10084000410606BF1046194652EA430619D094EAFB
:100850000C0F02D150EA013613D195EA0C0F05D1E5
:1008600052EA03361CBF104619460AD181EA030139
:1008700001F0004141F0FE4141F470014FF00000F1
:1008800070BD41F0FE4141F4780170BD70B54FF08C
:10089000FF0C4CF4E06C1CEA11541DBF1CEA13550C
:1008A00094EA0C0F95EA0C0F00F0A7F8A4EB0504EE
:1008B00081EA030E52EA03354FEA013100F08880E5
:1008C0004FEA03334FF0805545EA131343EA1263AE
:1008D0004FEA022245EA111545EA10654FEA002663
:1008E0000EF000419D4208BF964244F1FD0404F51C
:1008F000407402D25B084FEA3202B61A65EB030578
:100900005B084FEA32024FF480104FF4002CB6EB34
:10091000020E75EB030E22BFB61A754640EA0C00B4
:100920005B084FEA3202B6EB020E75EB030E22BFF4
:10093000B61A754640EA5C005B084FEA3202B6EB35
:10094000020E75EB030E22BFB61A754640EA9C00F4
:100950005B084FEA3202B6EB020E75EB030E22BFC4
:10096000B61A754640EADC0055EA060E18D04FEA82
:10097000051545EA16754FEA06164FEAC30343EA22
:1009800052734FEAC2025FEA1C1CC0D111F4801FEF
:100990000BD141EA00014FF000004FF0004CB6E7E8
:1009A00011F4801F04BF01430020B4F1FD0C88BF87
:1009B000BCF5E06F3FF6AFAEB5EB030C04BFB6EB92
:1009C000020C5FEA500C50F1000041EB045170BD85
:1009D0000EF0004E4EEA113114EB5C04C2BFD4EBB2
:1009E0000C0541EA045170BD41F480114FF0000E36
:1009F000013C90E645EA060E8DE60CEA135594EAB2
:100A00000C0F08BF95EA0C0F3FF43BAF94EA0C0FB4
:100A10000AD150EA01347FF434AF95EA0C0F7FF429
:100A200025AF104619462CE795EA0C0F06D152EA7D
:100A300003353FF4FDAE1046194622E750EA410661
:100A400018BF52EA43067FF4C5AE50EA41047FF472
:100A50000DAF52EA43057FF4EBAE12E74FF0FF3CD7
:100A600006E000BF4FF0010C02E000BF4FF0010CA8
:100A70004DF804CD4FEA410C7FEA6C5C4FEA430C21
:100A800018BF7FEA6C5C1BD001B050EA410C0CBF70
:100A900052EA430C91EA030F02BF90EA020F0020D2
:100AA000704710F1000F91EA030F58BF994208BF39
:100AB00090422CBFD8176FEAE37040F001007047F6
:100AC0004FEA410C7FEA6C5C02D150EA013C07D14D
:100AD0004FEA430C7FEA6C5CD6D152EA033CD3D098
:100AE0005DF8040B704700BF8446104662468C4692
:100AF0001946634600E000BF01B5FFF7B7FF0028C5
:100B000048BF10F1000F01BD4DF808EDFFF7F4FFED
:100B10000CBF012000205DF808FB00BF4DF808ED78
:100B2000FFF7EAFF34BF012000205DF808FB00BF9B
:100B30004DF808EDFFF7E0FF94BF012000205DF8BD
:100B400008FB00BF4DF808EDFFF7CEFF94BF012072
:100B500000205DF808FB00BF4DF808EDFFF7C4FF6B
:100B600034BF012000205DF808FB00BF4FEA410CB4
:100B70007FEA6C5C02D150EA013C0AD14FEA430C97
:100B80007FEA6C5C02D152EA033C02D14FF00000D4
:100B900070474FF0010070474FEA410212F5001212
:100BA00015D211D56FF47873B3EB625212D94FEAB4
:100BB000C12343F0004343EA505311F0004F23FA9E
:100BC00002F018BF404270474FF00000704750EAF3
:100BD000013005D111F0004008BF6FF000407047B0
:100BE0004FF00000704700BF4FEA4102B2F1E0430E
:100BF00024BFB3F5001CDCF1FE5C0DD901F0004C04
:100C00004FEAC0024CEA5070B2F1004F40EB830053
:100C100008BF20F00100704711F0804F21D113F17F
:100C20003872BCBF01F00040704741F480114FEAB8
:100C30005252C2F11802C2F1200C10FA0CF320FA41
:100C400002F018BF40F001004FEAC1234FEAD3235E
:100C500003FA0CFC40EA0C0023FA02F34FEA4303C8
:100C6000CCE77FEA625307D150EA01331EBF4FF051
:100C7000FE4040F44000704701F0004040F0FE406C
:100C800040F40000704700BF53B94AB9002908BFBB
:100C900000281CBF4FF0FF314FF0FF3000F074B957
:100CA000ADF1080C6DE904CE00F006F8DDF804E0C3
:100CB000DDE9022304B070472DE9F047089D0446A2
:100CC0008E46002B4DD18A42944669D9B2FA82F2FF
:100CD00052B101FA02F3C2F1200120FA01F10CFA3B
:100CE00002FC41EA030E94404FEA1C48210CBEFB73
:100CF000F8F61FFA8CF708FB16E341EA034306FBFC
:100D000007F199420AD91CEB030306F1FF3080F08A
:100D10001F81994240F21C81023E63445B1AA4B2D7
:100D2000B3FBF8F008FB103344EA034400FB07F779
:100D3000A7420AD91CEB040400F1FF3380F00A81BA
:100D4000A74240F207816444023840EA0640E41BAF
:100D500000261DB1D4400023C5E900433146BDE85B
:100D6000F0878B4209D9002D00F0EF800026C5E9FD
:100D7000000130463146BDE8F087B3FA83F6002E15
:100D80004AD18B4202D3824200F2F980841A61EB8D
:100D9000030301209E46002DE0D0C5E9004EDDE7AB
:100DA00002B9FFDEB2FA82F2002A40F09280A1EB93
:100DB0000C014FEA1C471FFA8CFE0126200CB1FBE8
:100DC000F7F307FB131140EA01410EFB03F08842E1
:100DD00008D91CEB010103F1FF3802D2884200F26E
:100DE000CB804346091AA4B2B1FBF7F007FB101100
:100DF00044EA01440EFB00FEA64508D91CEB04049E
:100E000000F1FF3102D2A64500F2BB800846A4EBF8
:100E10000E0440EA03409CE7C6F12007B34022FAE3
:100E200007FC4CEA030C20FA07F401FA06F31C4312
:100E3000F9404FEA1C4900FA06F3B1FBF9F8200C1F
:100E40001FFA8CFE09FB181140EA014108FB0EF065
:100E5000884202FA06F20BD91CEB010108F1FF3AB5
:100E600080F08880884240F28580A8F102086144C1
:100E7000091AA4B2B1FBF9F009FB101144EA0141CF
:100E800000FB0EFE8E4508D91CEB010100F1FF347A
:100E90006CD28E456AD90238614440EA0840A0FB12
:100EA0000294A1EB0E01A142C846A64656D353D0E8
:100EB0005DB1B3EB080261EB0E0101FA07F722FA0C
:100EC00006F3F1401F43C5E9007100263146BDE835
:100ED000F087C2F12003D8400CFA02FC21FA03F398
:100EE000914001434FEA1C471FFA8CFEB3FBF7F019
:100EF00007FB10360B0C43EA064300FB0EF69E423E
:100F000004FA02F408D91CEB030300F1FF382FD2D6
:100F10009E422DD9023863449B1B89B2B3FBF7F67E
:100F200007FB163341EA034106FB0EF38B4208D957
:100F30001CEB010106F1FF3816D28B4214D9023E98
:100F40006144C91A46EA004638E72E46284605E7B6
:100F50000646E3E61846F8E64B45A9D2B9EB020887
:100F600064EB0C0E0138A3E74646EAE7204694E717
:100F70004046D1E7D0467BE7023B614432E730464A
:100F800009E76444023842E7704700BF00B585B006
:100F9000002300930193029303932C482C4A026090
:100FA0004FF440324260836001220261037680F890
:100FB0002030C36202F170628262C3600522C261A6
:100FC00080F83030436101F0CBFA68BB0123009315
:100FD00001930723029369461C4801F0EBFB30BBE9
:100FE0000223009301936946184801F0E3FB08BB14
:100FF0000323009301936946144801F0DBFBE0B939
:101000000423009301936946104801F0D3FBB8B95B
:10101000092300930523019369460C4801F0CAFB9C
:1010200088B905B05DF804FB00F029F9CEE700F0BF
:1010300026F9D5E700F023F9DAE700F020F9DFE739
:1010400000F01DF9E4E700F01AF9EAE7C02D0020EE
:101050000020014070B588B00023039304930593EA
:1010600006930793026803F1804303F590339A4295
:1010700001D008B070BD04460025009503F58C33FF
:101080005A6C42F480725A645A6C02F48072009274
:10109000009A01951A6B42F001021A631A6B02F072
:1010A00001020192019A02951A6B42F002021A6340
:1010B0001B6B03F002030293029B1E230393032680
:1010C000049603A9134801F0B7FE02230393049684
:1010D000059503A9104801F0AFFE1048104B0360BE
:1010E00045608560C5604FF4806303614FF4006321
:1010F00043614FF400538361C5610562456201F0AD
:1011000011FD18B9054BA3639C63B2E700F0B7F873
:10111000F8E700BF0000024000040240082E002053
:101120001064024000B583B000210191094B1A6B95
:1011300042F480021A631B6B03F480030193019B4A
:101140000A46382001F014FC382001F049FC03B0B5
:101150005DF804FB003802402DE9F0418AB000241C
:101160000594069407940894099401942E4B1A6BE5
:1011700042F004021A631A6B02F004020192019A0F
:1011800002941A6B42F080021A631A6B02F080021A
:101190000292029A03941A6B42F001021A631A6BCC
:1011A00002F001020392039A04941A6B42F00202C5
:1011B0001A631B6B03F002030493049BDFF8748033
:1011C00022464FF46041404601F00AFF174F224685
:1011D00048F20101384601F003FF154E2246352141
:1011E000304601F0FDFE4FF460430593012506955E
:1011F0000794089405A9404601F01EFE48F2010339
:10120000059306950794089405A9384601F014FE45
:101210003523059306950794089405A9304601F0F7
:101220000BFE0AB0BDE8F081003802400000024029
:10123000000402400008024010464FF0000C0AE093
:1012400000BF4FF060431B68002BF9D04FF06043A4
:101250001A700CF1010C844510DA11F8012B4FF0D3
:101260006043D3F8803E13F0010FF2D04FF060439B
:10127000D3F8003E13F0010FE3D1EAE7704772B6EE
:10128000FEE7000000B595B03422002107A803F066
:1012900009FF00230293039304930593069300939D
:1012A0001F4A116C41F080511164126C02F080529F
:1012B0000092009A01931B4B1A6842F440421A6054
:1012C0001B6803F440430193019B012307934FF4F0
:1012D000A023089302230D934FF480020E920A225A
:1012E0000F926422109211931293139307A801F0A6
:1012F000AFFF88B90F2302930223039300230493C3
:101300004FF4805205920693032102A801F0CAFE11
:1013100020B915B05DF804FBFFF7B1FFFFF7AFFF91
:10132000003802400070004008B501F03FF8FFF7B8
:10133000A9FFFFF711FFFFF7F5FE00F035F8FFF703
:1013400025FE00F00DF800F063FA00F0B3F900F0AC
:101350001FFA00F0F5F800F0A3FE00F019FFFCE71B
:1013600008B50F480F4B03604FF4827343600023AE
:1013700083604FF40062C2600361012242614FF456
:10138000007282611822C2610362436283620A238F
:10139000C36202F049FA00B908BDFFF770FFFBE72E
:1013A000682E00200030014008B50F480F4B036045
:1013B0004FF48273436000238360C36002220261A2
:1013C000012242614FF4007282613822C2610362DD
:1013D000436283620A23C36202F026FA00B908BDA1
:1013E000FFF74DFFFBE700BFC02E00200038004094
:1013F00000B58BB0002305930693079308930993D8
:101400000368284A934205D0274A934225D00BB05F
:101410005DF804FB00210191244B5A6C42F4805288
:101420005A645A6C02F480520192019A02911A6B2A
:1014300042F001021A631B6B03F001030293029B4B
:10144000E0230593022306930323089305230993BE
:1014500005A9174801F0F0FCD9E700210391134BCF
:101460001A6C42F480421A641A6C02F480420392AD
:10147000039A04911A6B42F002021A631B6B03F089
:1014800002030493049B4FF46043059302230693E5
:10149000032308930523099305A9064801F0CCFC12
:1014A000B5E700BF0030014000380040003802407E
:1014B000000002400004024082B0002100910B4B6A
:1014C0005A6C42F480425A645A6C02F48042009290
:1014D000009A01911A6C42F080521A641B6C03F05E
:1014E00080530193019B02B0704700BF0038024057
:1014F000FEE7FEE7FEE7FEE7FEE77047704770474E
:1015000008B500F06DFF08BD08B5024802F099FD6E
:1015100008BD00BFA82F002008B500F001FA02485E
:1015200001F09CFB08BD00BF082E0020034AD2F842
:10153000883043F47003C2F88830704700ED00E053
:1015400000B583B00023009301930F480F4A026057
:1015500013224260836040F2E732C260836102F08E
:1015600091FE50B90023009301936946064803F0A9
:1015700019F828B903B05DF804FBFFF780FEF1E726
:10158000FFF77DFEF6E700BFA82F00200010004007
:1015900082B00368104A934204D0B3F1804F0ED05A
:1015A00002B07047002300930C4B5A6C42F00102CA
:1015B0005A645B6C03F001030093009BF0E7002387
:1015C0000193064B1A6C42F001021A641B6C03F083
:1015D00001030193019BE3E7000001400038024052
:1015E00002680E4B9A4200D0704700B583B00021CC
:1015F000019103F50A331A6C42F010021A641B6C55
:1016000003F010030193019B0A46362001F0B0F964
:10161000362001F0E5F903B05DF804FB001000404E
:1016200000B589B0002303930493059306930793B1
:1016300003681C4A934205D0B3F1804F1AD009B019
:101640005DF804FB00230193174B1A6B42F0010273
:101650001A631B6B03F001030193019B4FF4E063DA
:101660000393022304930123079303A90F4801F076
:10167000E3FBE4E7002302930B4B1A6B42F00202F8
:101680001A631B6B03F002030293029B4FF4806307
:101690000393022304930123079303A9044801F051
:1016A000CBFBCCE7000001400038024000000240C4
:1016B0000004024010B592B00024109411940994D3
:1016C0000A940B940C940D940E940F9420222146AE
:1016D00001A803F0E7FC2C482C4B03600423436073
:1016E000846040F2CF73C36004614461846102F09E
:1016F000F5FD002836D100231093119310A922483C
:1017000002F050FF002830D16023099300220A9292
:101710000B920C920D920E920F9209A91A4802F0A8
:1017200041FE28BB042209A9174802F03BFE10BB6A
:10173000082209A9144802F035FEF8B900230193E4
:1017400002930393049305934FF400520692089377
:1017500001A90D4802F06CFF98B90B48FFF760FF34
:1017600012B010BDFFF78BFDC5E7FFF788FDCBE793
:10177000FFF785FDD6E7FFF782FDD9E7FFF77FFD8D
:10178000DCE7FFF77CFDE8E7182F002000000140B0
:1017900000B58BB000230893099301930293039340
:1017A000049305930693079318484FF08042026014
:1017B00004224260836040F2CF72C26003618361A1
:1017C00002F08CFDC8B900230893099308A90F48BB
:1017D00002F0E8FEA0B96023019300230293039373
:1017E0000593082201A9094802F0DCFD58B9074811
:1017F000FFF716FF0BB05DF804FBFFF740FDE2E7D3
:10180000FFF73DFDE7E7FFF73AFDF0E7602F002027
:1018100008B50A480A4B03604FF4E13343600023E4
:101820008360C36003610C2242618361C36102F083
:10183000B3FF00B908BDFFF722FDFBE7F02F002042
:101840000014014000B589B000230393049305936D
:10185000069307930268154B9A4202D009B05DF8CF
:1018600004FB0021019103F592335A6C42F02002EF
:101870005A645A6C02F020020192019A02911A6B8A
:1018800042F001021A631B6B03F001030293029BF7
:101890004FF4C053039302230493032306930823B6
:1018A000079303A9024801F0C7FAD7E700140140E3
:1018B0000000024008B505220249034800F07CFE02
:1018C00008BD00BF34300020C02D002010B5104BE3
:1018D0001B7883B10F4C01221021204601F080FBC0
:1018E00000222021204601F07BFB05220A490B48FB
:1018F00000F062FE10BD074C00221021204601F0CE
:101900006FFB01222021204601F06AFBEDE700BFBA
:101910003E3000200004024034300020C02D002062
:1019200010B5104B1B78B3B10F4A11880F4B1980BB
:1019300092889A800E4C00221021204601F050FB24
:1019400000222021204601F04BFB064A1378C3F108
:101950000103137010BD044A5188044B5980D2888A
:10196000DA80E7E73E3000203430002040300020AD
:10197000000402400000000010B5154B1889FEF766
:10198000F1FD0022134BFEF757FE0DA3D3E9002310
:10199000FEF752FE02460B46FEF798FCFFF724F9CD
:1019A0000D4C2060FEF7F0FD07A3D3E90023FEF7FE
:1019B0008DFCFFF719F9206010BD00BFAFF3008068
:1019C0006666666666660A40295C8FC2F528BC3F7B
:1019D000343000200000303F48300020224B1B787C
:1019E000002B36D0002918DDB1F5FA6F01DD4FF478
:1019F000FA611E4B1B6899630022DA63002819DD27
:101A0000B0F5FA6F01DD4FF4FA60184B1B685863AC
:101A1000174B1B680022DA637047494209B2B1F5DF
:101A2000FA6F01DD4FF4FA61104B1B6800229A63D4
:101A3000D963E3E7404200B2B0F5FA6F01DD4FF43D
:101A4000FA600A4B1B6800225A63094B1B68D86373
:101A50007047064B1A680023536305490968CB6336
:101A60009363D363704700BF94300020182F002089
:101A7000602F0020000000002DE9F0412DED028BC9
:101A8000734E0121304603F078F905460121714873
:101A900003F073F90446304603F03EF9002840F0A5
:101AA000C2806C4803F038F9002840F0C0806A4FCB
:101AB0003A88AA1A90B212B2684E33881B1B99B2A8
:101AC0001BB23D803480B2F5005F03DDA0F57F528C
:101AD0003F3A12B212F5005F03DA02F57F523F324D
:101AE00012B2B3F5005F03DDA1F57F533F3B1BB29C
:101AF00013F5005F03DA03F57F533F331BB207EEA4
:101B0000902AF8EEE78A9FED567A68EE878ADFED35
:101B1000557A68EEA78A06EE903AB8EEE68A28EE85
:101B2000078A28EE278A78EE887A17EE900AFEF761
:101B30002BFD00224C4BFEF77FFD04460D464B4E1D
:101B40003068FEF721FD22462B46FEF7BFFBFFF76C
:101B50004BF8306018EE900AFEF716FD36A3D3E975
:101B60000023FEF793FEFFF73FF8804618EE100AB9
:101B7000FEF70AFD30A3D3E90023FEF787FEFFF747
:101B800033F806463A4F3868FEF7FEFC2CA3D3E93B
:101B90000023FEF751FD04460D464046FEF7F4FCD7
:101BA00029A3D3E90023FEF747FD02460B46204652
:101BB0002946FEF78BFBFFF717F808EE100A2D4BAE
:101BC0001860DFF8BC80D8F80000FEF7DDFC1CA32D
:101BD000D3E90023FEF730FD04460D463046FEF7FC
:101BE000D3FC19A3D3E90023FEF726FD02460B46DA
:101BF00020462946FEF76AFBFEF7F6FF07EE900A3D
:101C00001D4B186087ED008AC8F8000038EE278A5F
:101C1000F6EE007A28EE278A184B83ED008ABDEC99
:101C2000028BBDE8F081304603F07CF839E70948C3
:101C300003F078F83BE700BF2D431CEBE2362A3F68
:101C40009A9999999999B93FCDCCCCCCCCCCEC3F11
:101C500080300020703000205A30002058300020A2
:101C600063141D42000080380000E03F90300020E7
:101C700060300020B0300020AC300020A8300020C0
:101C80005C300020000000002DE9F0412DED048BB8
:101C9000694BD3ED007A694BD3ED009A37EEE99AA0
:101CA00019EE100AFEF770FC0022654BFEF7C4FC2B
:101CB00004460D46DFF8AC81D8ED008A18EE900A94
:101CC000FEF762FC58A3D3E90023FEF7B5FC0246F9
:101CD0000B4620462946FEF7F9FA06460F46594CB0
:101CE000D4ED007A77EEE97A17EE900AFEF74CFC15
:101CF00000220023FEF7A0FC02460B463046394680
:101D0000FEF7E4FAFEF770FF08EE100AC4ED009A41
:101D100078EE897AC8ED007A9FED4B7AF4EEC77AB7
:101D2000F1EE10FA68DD88ED007A484BD3ED007AC9
:101D3000474BD3ED009A37EEE99A19EE100AFEF7F9
:101D400023FC39A3D3E90023FEF776FC04460D46B5
:101D5000404ED6ED008A18EE900AFEF715FC0022E0
:101D60000023FEF769FC02460B4620462946FEF793
:101D7000ADFA04460D46384FD7ED007A77EEE97A92
:101D800017EE900AFEF700FC29A3D3E90023FEF723
:101D900053FC02460B4620462946FEF797FAFEF70B
:101DA00023FF07EE100AC7ED009A78EE897AC6ED98
:101DB000007ADFED256AF4EEE67AF1EE10FA26DD20
:101DC000C6ED006A78EE477A38EE078A9FED237AEF
:101DD00028EE078A67EE877AFDEEE77ABDEEC88ABD
:101DE00017EE903A19B218EE103A18B2FFF7F6FD56
:101DF000BDEC048BBDE8F0819FED197AF4EEC77A53
:101E0000F1EE10FA91D5174B83ED007A8DE7DFEDF7
:101E1000146AF4EEE67AF1EE10FAD3D50D4BC3ED69
:101E2000006ACFE7AFF300809A9999999999B93FE1
:101E30007B14AE47E17A843FB8300020A830002000
:101E4000000010406830002000401C46B4300020E4
:101E5000543000204C300020643000200000FA4450
:101E600000401CC650300020144BD3ED007AB2EE77
:101E7000047AF4EEC77AF1EE10FA06DCBAEE047AD0
:101E8000F4EEC77AF1EE10FA02D50D4B00221A706B
:101E90000C4BD3ED007AB2EE047AF4EEC77AF1EE91
:101EA00010FA06DCBAEE047AF4EEC77AF1EE10FA14
:101EB00002D5034B00221A70704700BFAC300020DF
:101EC00094300020B030002070B52DED028B02F070
:101ED000B1FD274B93ED008A30EE488A254B83ED08
:101EE000008A254E3068FEF74FFB1BA3D3E9002381
:101EF000FEF7A2FB04460D4618EE100AFEF744FB5F
:101F000017A3D3E90023FEF797FB02460B462046B2
:101F10002946FEF7DBF9FEF767FE184A10603060CD
:101F2000174A1060FEF730FB0FA3D3E90023FEF73A
:101F300083FB04460D46134E3068FEF725FB224610
:101F40002B46FEF7C3F9FEF74FFE3060BDEC028B67
:101F500070BD00BFAFF300809A9999999999B93FE4
:101F6000CDCCCCCCCCCCEC3F2D431CEBE2362A3F85
:101F7000A4300020A0300020983000209C300020A9
:101F8000543000206C30002038B5044680F0010247
:101F90000E4D02F001024FF40051284601F020F8E6
:101FA000620882F0010202F001024FF480412846EB
:101FB00001F016F8A20882F0010202F001024FF4CB
:101FC0000041284601F00CF838BD00BF000802406F
:101FD00070B506460024072505E00133074A934201
:101FE000FBD90134A4B2B44206D2ED43EDB2284687
:101FF000FFF7CAFF0023F1E770BD00BFAF710B0010
:1020000008B500210846FFF7E9FC00240B4B1C70C3
:102010000B4801F0F9FF0B4D22461021284600F035
:10202000DFFF22462021284600F0DAFF064803F0B1
:1020300031FD6420FFF7CCFFFBE700BF94300020A8
:10204000A82F002000040240A07C0008000000002F
:1020500008B5114B834200D008BDFFF737FCFFF7EE
:102060000BFDFFF731FFFFF787FCFFF70DFEFFF7D2
:10207000FBFE0A4B1868FEF787FA05A3D3E9002395
:10208000FEF74CFD0028E7D0FFF7BAFFAFF3008062
:102090009A99999999990940A82F002048300020D1
:1020A00010B5FFF707FC00212F4802F003FE0121C5
:1020B0002E4802F0FFFD00240EE00134E4B2092CAA
:1020C0004DD80021284802F0F5FD0121274802F0F3
:1020D000F1FD642000F096F9244802F01DFE00286E
:1020E000EBD1214802F018FE0028E6D11E4802F08C
:1020F000ADFE1E4802F0AAFE01221D491D4802F055
:1021000061FC00282DDB01214FF47A7002F0A2FC63
:10211000194B83ED000A194C0421204602F0C0F946
:102120000821204602F0BCF90021204602F0B8F94F
:102130000821134802F0B4F900210846FFF74EFCCD
:1021400000224FF400410F4800F04AFF00200E4BE0
:102150001870FFF719FF0D4801F012FF10BDFFF7CF
:102160004FFFFFF74DFF00BF703000208030002090
:1021700000040240C02E0020A4300020182F0020B0
:10218000602F00200000024094300020A82F002083
:10219000F0B585B0664B1868FEF7F6F904460D46B3
:1021A0005DA3D3E90023FEF7D7FCD0B95CA3D3E944
:1021B000002320462946FEF7B1FC10BB5D4A138878
:1021C000D2881344B3F57A6F12DB0220FFF700FFC9
:1021D000594B1B78032B00F29A80DFE803F01A2D8D
:1021E000428E554A1378013313700520FFF7F0FE35
:1021F000524B00221A70504B1878FFF7C5FE05B0FD
:10220000F0BD4D4A1378013B13700520FFF7E0FE47
:10221000EEE7484B1C885D889E88DF88484B18682D
:10222000FEF7B2F9CDE90201009733462A4621466E
:10223000444803F0A9FBECE701214FF47A7002F067
:1022400009FC414B83ED000A0023404A1360404AD9
:1022500013603A4A012111703E4A13603E4A1360EE
:10226000FEE701214FF47A7002F0F4FB364B83ED68
:10227000000A0024354B1C60354B1C600020FFF722
:1022800083FE4FF4FA7000F0BDF82C4B01221A7057
:10229000314B1C600024312C10DC2E4D2868FEF7D9
:1022A00073F921A3D3E90023FEF710F8FEF79CFC95
:1022B0002860012000F0A6F80134ECE74FF47A70B2
:1022C00000F0A0F80024312C10DC224D2868FEF725
:1022D0005BF915A3D3E90023FDF7F6FFFEF784FCB5
:1022E0002860012000F08EF80134ECE7194B002241
:1022F0001A60124B00221A707AE74FF40041174817
:1023000000F074FE4FF47A7000F07CF870E7FFF78D
:1023100077FE00BFAFF300809A9999999999B93FD8
:102320009A9999999999B9BF7B14AE47E17A643F1C
:10233000A830002040300020BC3000209430002025
:1023400048300020AC7C0008A43000204C30002035
:1023500050300020B8300020B4300020000002408F
:1023600010B504460E4B18784FF47A73B3FBF0F3B4
:102370000C4A1068B0FBF3F000F040FB68B90F2C7A
:1023800001D901200AE0002221464FF0FF3000F081
:10239000EFFA054B1C60002000E0012010BD00BFDB
:1023A00004000020000000200800002008B50B4BAE
:1023B0001A6842F400721A601A6842F480621A6065
:1023C0001A6842F480721A60032000F0BFFA0F20EE
:1023D000FFF7C6FFFFF770F8002008BD003C024081
:1023E000034A1168034B1B780B441360704700BF0E
:1023F000C030002004000020014B1868704700BF67
:10240000C030002038B50446FFF7F6FF0546B4F1AA
:10241000FF3F02D0044B1B781C44FFF7EDFF401B2D
:10242000A042FAD338BD00BF040000204A4B5A68CE
:1024300022F440325A605A6841680A435A6002687E
:10244000536823F48073536002685368016943EA58
:10245000012353600268536823F04073536002689D
:10246000536881680B4353600268936823F40063E8
:10247000936002689368C1680B439360826A374B2C
:102480009A4257D00268936823F0706393600268A1
:102490009368816A0B4393600268936823F040530A
:1024A000936002689368C16A0B4393600268936803
:1024B00023F00203936002689368017E43EA4103BC
:1024C000936090F82030002B3FD00268536843F4AB
:1024D000006353600268536823F4604353600168EB
:1024E0004B68426A013A43EA42334B600268D36A5E
:1024F00023F47003D3620168CB6AC269013A43EAEC
:102500000253CB620268936823F4007393600268FD
:10251000936890F8301043EA41239360026893680F
:1025200023F48063936002689368416943EA8123DE
:10253000936070470268936823F070639360026849
:10254000936823F040539360B0E70268536823F424
:1025500000635360CAE700BF002301400100000F81
:1025600038B310B50446036C43B1236C13F0100F5D
:102570000BD00120002384F83C3010BDFEF76AFD2B
:102580000023636484F83C30EFE7236C23F4885322
:1025900023F0020343F0020323642046FFF746FFC3
:1025A00000206064236C23F0030343F001032364E1
:1025B000E0E701207047000010B582B0134600220A
:1025C000019290F83C20012A00F0948004460122F8
:1025D00080F83C200268906810F0010F13D19068D9
:1025E00040F001009060464A1068464AA2FB002075
:1025F000800C00EB4000019002E00198013801904E
:1026000001980028F9D12268906810F4807F03D0E7
:10261000906820F4807090602268906810F0010F3C
:102620005DD0206C20F4E06020F0010040F4807068
:102630002064526812F4806F05D0226C22F440525C
:1026400042F480522264226C12F4805F34D0626CB7
:1026500022F006026264002284F83C20A26B2A4821
:10266000D063A26B29481064A26B2948D064226809
:102670006FF0220010602068426842F08062426081
:102680002068826842F48072826020680A4600F105
:102690004C01A06B00F0ACFA1E4B5B6813F01F0FEF
:1026A0000DD123689A6812F0405F25D19A6842F0F4
:1026B00080429A6000201BE000226264CBE723681E
:1026C000154A934201D0002012E09A6812F0405F50
:1026D00014D19A6842F080429A60002008E0236C8E
:1026E00043F010032364636C43F001036364002030
:1026F00002B010BD0220FBE70020F9E70020F7E759
:102700000000002083DE1B43432700082127000828
:102710002D2700080023014000200140704770472A
:1027200008B5806BFFF7FBFF08BD704708B5806BED
:1027300040230364436C43F004034364FFF7F5FF55
:1027400008BD08B50346806B026C12F0500F25D10E
:10275000036C43F40073036403689A6812F0405FEB
:1027600019D1027EBAB9DA6A12F4700F03D09A68EE
:1027700012F4806F0FD15A6822F020025A60036C65
:1027800023F480730364036C13F4805F03D1036C40
:1027900043F001030364FFF7C1FF08BD026C12F0B0
:1027A000100F04D1826BD26C18469047F5E7FFF703
:1027B000BCFFF2E730B482B00023019390F83C30C4
:1027C000012B00F0BB80012380F83C300B68092B03
:1027D00041D90468E2689BB203EB43031E3B4FF010
:1027E000070C0CFA03F322EA0303E3600468E268CF
:1027F0000B8803EB43031E3B8D6805FA03F3134379
:10280000E3604B68062B3DD80468626B03EB8303DF
:10281000053B4FF01F0C0CFA03F322EA030363633A
:102820000468626B4B6803EB8303053BB1F800C09F
:102830000CFA03F3134363630268414B9A4251D08D
:1028400002683F4B9A4256D0002380F83C3018462D
:1028500002B030BC7047046822699BB203EB4303AB
:102860004FF0070C0CFA03F322EA03032361046818
:1028700022690B8803EB43038D6805FA03F31343C6
:102880002361BEE70C2B16D805682A6B03EB830384
:10289000233B1F2404FA03F322EA03032B63056896
:1028A0002A6B4B6803EB8303233B0C8804FA03F386
:1028B00013432B63C0E70568EA6A03EB8303413BDC
:1028C0001F2404FA03F322EA0303EB620568EA6AB1
:1028D0004B6803EB8303413B0C8804FA03F3134377
:1028E000EB62A9E70B68122BAAD1164A536843F48E
:1028F00080035360A4E70B68103B012BA4D8114A56
:10290000536843F4000353600B68102B9CD10E4BAB
:102910001B6802F1467202F52E3202F28332A2FBEC
:1029200003239B0C03EB83035B00019302E0019BF9
:10293000013B0193019B002BF9D185E7022087E73A
:10294000002001400023014000000020074AD36816
:1029500023F4E0631B041B0C000200F4E06003435B
:1029600043F0BF6343F40033D360704700ED00E0F1
:1029700000B5194BDB68C3F30223C3F1070CBCF1AC
:10298000040F28BF4FF0040C03F1040EBEF1060F34
:1029900018D9033B4FF0FF3E0EFA0CFC21EA0C0164
:1029A00099400EFA03F322EA0303194300280BDBD4
:1029B0000901C9B200F1604000F5614080F80013E0
:1029C0005DF804FB0023E5E700F00F000901C9B240
:1029D000024B1954F4E700BF00ED00E014ED00E0F5
:1029E000002807DB00F01F02400901239340024A40
:1029F00042F82030704700BF00E100E00138B0F13C
:102A0000807F0BD24FF0E0235861054AF02182F815
:102A100023100020986107221A6170470120704737
:102A200000ED00E030B405682C6824F480242C60AC
:102A3000046863608368402B05D00368996003686D
:102A4000DA6030BC704703689A600368D960F8E7C1
:102A500010B40368D9B210390C4AA2FB0142120922
:102A60000B4CA25CC2655F2909D923F47F7323F064
:102A7000030304338365806D5DF8044B704723F4D2
:102A80007F7323F003038365F5E700BFABAAAAAA0F
:102A9000C07C0008836A826992B9012B0AD0022B9C
:102AA00002D00BB100207047C36A13F0807F28D199
:102AB00000207047C36AB3F1C07F24D00020704764
:102AC000B2F5005F09D0022B25D9032B25D1C36AAB
:102AD00013F0807F23D100207047032B03D8DFE859
:102AE00003F01404140A00207047C36A13F0807FB7
:102AF0000DD100207047C36AB3F1C07F09D0002018
:102B00007047012070470120704701207047012065
:102B10007047012070470120704700207047012056
:102B20007047000070B50446FFF766FC002C5BD0D0
:102B30000546022384F83530002384F834302268B7
:102B4000136823F00103136023681A6812F0010F61
:102B50000AD0FFF751FC431B052BF5D920236365F1
:102B6000032084F8350070BD1A6820481040616861
:102B7000A2680A43E1680A4321690A4361690A437A
:102B8000A1690A43E1690A43216A0A430243616A6F
:102B900004291ED01A602668756925F00705636A46
:102BA0001D43042B07D1A36A1D43E36A1BB12046D2
:102BB000FFF770FF90B975612046FFF749FFE26D9E
:102BC0003F239340836000206065012384F8353003
:102BD000C9E7E16A206B01430A43DBE740236365F1
:102BE000012084F83500BEE70120BCE73F8010F0EB
:102BF00038B50446856D90F8340001282BD00120AB
:102C000084F8340094F83500C0B2012804D00023C1
:102C100084F83430022038BD022084F835000020CA
:102C200060652046FFF7FEFEE26D3F239340AB60F8
:102C30002268136843F016031360236C23B12268E3
:102C4000136843F0080313602268136843F001031C
:102C500013600020DFE70220DDE70000F0B583B05D
:102C6000044600230193724B1D68724BA3FB05358C
:102C7000AD0A876D3E68C26D08239340334210D081
:102C800003681A6812F0040F0BD01A6822F00402CD
:102C90001A60C26D08239340BB60436D43F001038B
:102CA0004365E26D01239340334209D022685269A3
:102CB00012F0800F04D0BB60636D43F002036365C4
:102CC000E26D04239340334209D02268126812F067
:102CD000020F04D0BB60636D43F004036365E26DD3
:102CE00010239340334224D02268126812F0080F58
:102CF0001FD0BB6023681A6812F4802F0DD01B68A8
:102D000013F4002F04D1236C9BB12046984710E0A8
:102D1000A36C73B1204698470BE01A6812F4807FC9
:102D200003D11A6822F008021A60236C0BB1204606
:102D30009847E26D20239340334255D022681268B1
:102D400012F0100F50D0BB6094F83530DBB2052B79
:102D50000ED023681A6812F4802F33D01B6813F446
:102D6000002F2AD1636C002B3ED0204698473BE0D1
:102D70002268136823F0160313602268536923F056
:102D800080035361236CA3B12268136823F0080306
:102D90001360E26D3F239340BB60012384F835301C
:102DA000002384F83430236D002B3FD02046984711
:102DB0003CE0A36C002BE7D1EBE7E36BA3B120462B
:102DC000984711E01A6812F4807F09D11A6822F03E
:102DD00010021A60012384F83530002384F834305F
:102DE000E36B0BB120469847636DFBB1636D13F045
:102DF000010F17D0052384F835302268136823F0BB
:102E000001031360019B01330193AB4204D8236893
:102E10001B6813F0010FF5D1012384F8353000232E
:102E200084F83430E36C0BB12046984703B0F0BD12
:102E300000000020B5814E1B00230F2B00F2C6803E
:102E400070B582B060E085685E000324B44025EA76
:102E50000405CC68B4402C438460456825EA02052B
:102E60004C68C4F300129A402A4342605AE0DC08DE
:102E7000083450F8246003F0070295000F22AA409E
:102E800026EA020E0A69AA4042EA0E0240F824200D
:102E90005CE0022200E0002202FA0EF22A43023431
:102EA0004B4D45F824204B4A94686FEA0C0224EA03
:102EB0000C054E6816F4801F01D04CEA0405454C01
:102EC000A560E46802EA04054E6816F4001F01D00C
:102ED0004CEA04053F4CE560646802EA04054E686C
:102EE00016F4003F01D04CEA04053A4C65602468B2
:102EF00022404D6815F4803F01D04CEA0402354C65
:102F0000226001330F2B5FD801229A400C6804EA3B
:102F1000020C32EA0404F4D14C6804F00304013CCE
:102F2000012C90D94A6802F00302032A09D0C46830
:102F30005D000322AA4024EA02048A68AA402243D0
:102F4000C2604A6802F00302022A90D004684FEA85
:102F5000430E032202FA0EF224EA02044A6802F047
:102F6000030202FA0EF2224302604A6812F4403F62
:102F7000C7D000220192184A546C44F4804454642F
:102F8000526C02F480420192019A9C08A51C104ADE
:102F900052F8255003F003024FEA820E0F2202FA84
:102FA0000EF225EA02050D4A90423FF474AF02F595
:102FB0008062904206D002F5806290423FF469AF91
:102FC000072269E7012267E702B070BD704700BFC2
:102FD00000380140003C014000380240000002403F
:102FE0000AB181617047090481617047436901EA50
:102FF000030221EA030141EA0241816170470000B6
:1030000008B5254B9B6803F00C03042B3FD0082B1D
:103010003FD1214B5A6802F03F025B6813F4800FE6
:1030200012D01D4B5968C1F388111C480023A1FB25
:103030000001FDF729FE184B5B68C3F30143013320
:103040005B00B0FBF3F025E0134B5968C1F3881C1B
:103050004FEA4C11B1EB0C006EEB0E0E4FEA8E13E3
:1030600043EA90638101091A63EB0E03DB0043EA34
:103070005173C90011EB0C0C43F1000399020023BA
:103080004FEA8C2041EA9C51FDF7FEFDD3E703484F
:1030900000E0034808BD00BF00380240002D3101A8
:1030A0000024F400002800F09B8070B50D46044613
:1030B0004F4B1B6803F007038B4208D2CBB24C4A3C
:1030C0001370136803F007038B4240F08B80236872
:1030D00013F0020F17D013F0040F04D0454A936881
:1030E00043F4E0539360236813F0080F04D0414A7F
:1030F000936843F4604393603E4A936823F0F0037F
:10310000A1680B439360236813F0010F32D063680A
:10311000012B21D09A1E012A25D9364A126812F0B5
:10312000020F61D033498A6822F0030213438B6097
:10313000FFF762F906462F4B9B6803F00C036268A9
:10314000B3EB820F16D0FFF757F9801B41F288339B
:103150009842F0D9032042E0264A126812F4003F58
:10316000E0D101203BE0234A126812F0007FD9D160
:10317000012034E01E4B1B6803F00703AB4207D964
:10318000EAB21B4B1A701B6803F00703AB422DD148
:10319000236813F0040F06D0164A936823F4E05313
:1031A000E1680B439360236813F0080F07D0114ABE
:1031B000936823F46043216943EAC1039360FFF7F6
:1031C0001FFF0C4B9B68C3F303130B4AD35CD8401F
:1031D0000A4B18600A4B1868FFF7C2F8002070BD50
:1031E000012070470120FAE70120F8E70120F6E707
:1031F000003C024000380240887C000800000020AB
:1032000008000020014B1868704700BF0000002034
:1032100008B5FFF7F7FF044B9B68C3F38223034A0B
:10322000D35CD84008BD00BF00380240987C00083D
:1032300008B5FFF7E7FF044B9B68C3F34233034A2B
:10324000D35CD84008BD00BF00380240987C00081D
:10325000002800F0E98170B582B00446036813F0DD
:10326000010F3BD09F4B9B6803F00C03042B2CD029
:103270009C4B9B6803F00C03082B21D06368B3F5CB
:10328000803F4FD0B3F5A02F52D0964B1A6822F44E
:1032900080321A601A6822F480221A606368002B58
:1032A00050D0FFF7A9F805468E4B1B6813F4003F7A
:1032B00014D1FFF7A1F8401B6428F5D90320BAE127
:1032C000884B5B6813F4800FD8D0864B1B6813F4CF
:1032D000003F03D06368002B00F0A881236813F03F
:1032E000020F54D07F4B9B6813F00C0F3ED07D4BE8
:1032F0009B6803F00C03082B33D0E368002B68D0E5
:10330000794B01221A60FFF777F80546754B1B6869
:1033100013F0020F54D1FFF76FF8401B0228F5D9C4
:10332000032088E16F4A136843F480331360B5E7E4
:103330006C4B1A6842F480221A601A6842F4803298
:103340001A60ABE7FFF758F80546664B1B6813F4A5
:10335000003FC3D0FFF750F8401B6428F5D9032085
:1033600069E1604B5B6813F4800FC6D15D4B1B684D
:1033700013F0020F03D0E368012B40F05981594A42
:10338000136823F0F803216943EAC103136023683B
:1033900013F0080F42D063696BB3534B0122C3F89B
:1033A000802EFFF729F805464E4B5B6F13F0020F96
:1033B00034D1FFF721F8401B0228F5D903203AE168
:1033C000484A136823F0F803216943EAC1031360F4
:1033D000DDE7454B00221A60FFF70EF80546414B2A
:1033E0001B6813F0020FD2D0FFF706F8401B02282B
:1033F000F5D903201FE13C4B0022C3F8802EFEF7D5
:10340000FBFF0546374B5B6F13F0020F06D0FEF74C
:10341000F3FF401B0228F5D903200CE1236813F0C9
:10342000040F77D02F4B1B6C13F0805F33D1002338
:1034300001932C4B1A6C42F080521A641B6C03F0FF
:1034400080530193019B0125284B1B6813F4807F57
:1034500023D0A368012B34D0052B38D0214B1A6F11
:1034600022F001021A671A6F22F004021A67A36899
:10347000002B3DD0FEF7C0FF06461A4B1B6F13F022
:10348000020F46D1FEF7B8FF801B41F28833984205
:10349000F3D90320CFE00025D6E7144A136843F49C
:1034A00080731360FEF7A8FF0646104B1B6813F4E9
:1034B000807FCED1FEF7A0FF801B0228F5D9032024
:1034C000B9E0084A136F43F001031367CFE7054BD8
:1034D0001A6F42F004021A671A6F42F001021A676B
:1034E000C5E700BF003802400000474200700040BE
:1034F000FEF782FF0646584B1B6F13F0020F08D0F1
:10350000FEF77AFF801B41F288339842F3D90320FB
:1035100091E0EDB9A369002B00F08C804E4A9268CF
:1035200002F00C02082A54D0022B17D04B4B002279
:103530001A66FEF761FF0446474B1B6813F0007FD5
:1035400045D0FEF759FF001B0228F5D9032072E091
:10355000414A136C23F080531364DBE73F4B002296
:103560001A66FEF749FF05463B4B1B6813F0007FC8
:1035700006D0FEF741FF401B0228F5D903205AE090
:10358000E369226A1343626A43EA8213A26A520819
:10359000013A43EA0243E26A43EA0263226B43EAE6
:1035A00002732D4A53602D4B01221A66FEF724FF49
:1035B0000446294B1B6813F0007F06D1FEF71CFF61
:1035C000001B0228F5D9032035E0002033E000205D
:1035D00031E0012B31D0204B5B6803F48001E269BC
:1035E00091422CD103F03F02216A8A4229D1616ABB
:1035F00047F6C0721A40B2EB811F24D103F4403168
:10360000A26A5208013AB1EB024F1ED103F0706278
:10361000E16AB2EB016F1AD103F0E043226BB3EB26
:10362000027F16D1002006E001207047012002E051
:10363000012000E0002002B070BD0120FBE7012066
:10364000F9E70120F7E70120F5E70120F3E7012082
:10365000F1E70120EFE700BF0038024000004742D9
:103660002DE9F04782B00546884617461E46FEF70C
:10367000C3FE0A9B1B1A03EB0609FEF7BDFE82463A
:103680002B4B1B68C3F3CB3309FB03F301932B686C
:103690009C6838EA04030CBF4FF0010C4FF0000C9B
:1036A000BC4540D0B6F1FF3FF1D0FEF7A5FEA0EB40
:1036B0000A0048450AD2B9F1000F07D0019A02B1B9
:1036C0004A46019B013B01939146E0E72A68536813
:1036D00023F0E00353606B68B3F5827F0BD0AB6AD5
:1036E000B3F5005F14D0012385F85130002385F82D
:1036F0005030032018E0AB68B3F5004F02D0B3F5AB
:10370000806FECD12A68136823F040031360E6E76A
:103710002A68136823F4005313602A68136843F47B
:1037200000531360DFE7002002B0BDE8F08700BF60
:103730000000002010B584B00446164B1868164BE4
:10374000A3FB0030400D4FF47A7303FB00F00390AD
:103750006368B3F5827F0BD0039BBBB1039B013B36
:10376000039323689B6813F0800FF5D100200EE0CF
:1037700000920B46002280212046FFF771FF30B1F6
:10378000636D43F020036365032000E0002004B074
:1037900010BD00BF00000020819F5E1610B582B0F2
:1037A00004460B464168B1F5827F14D06168B1F5DB
:1037B000827F2AD1A168B1F5806F19D000920022D2
:1037C00080212046FFF74CFF30B3636D43F02003A8
:1037D0006365032020E08168B1F5004F02D0B1F5A8
:1037E000806FE3D12068016821F040010160DDE7CE
:1037F0000092002201212046FFF732FF60B1636D85
:1038000043F020036365032006E0009200220121BB
:103810002046FFF725FF08B902B010BD636D43F0E5
:10382000200363650320F7E700285AD010B504464B
:10383000436A33B94368B3F5827F05D00023C3617F
:1038400002E00023036143610023A36294F8513036
:10385000002B40D0022384F851302268136823F0F3
:1038600040031360636803F48273A26802F40442A5
:103870001343E26802F400621343226902F0020279
:103880001343626902F001021343A26902F4007259
:103890001343E26902F038021343226A02F0800205
:1038A0001343A26A02F40052216813430B60638B36
:1038B00003F00403626A02F01002216813434B60B4
:1038C0002268D36923F40063D3610020606501237B
:1038D00084F8513010BD84F850302046FDF788FD43
:1038E000B8E7012070472DE9F04383B01D4690F8FA
:1038F0005030012B00F0D1800446884691460123C8
:1039000080F85030FEF778FD074694F85160F6B223
:10391000012E40F0AF80B8F1000F00F0AC80B9F19B
:10392000000F00F0A880032384F851300023636562
:10393000C4F83080A4F83490A4F83690A363A38729
:10394000E38763642364A368B3F5004F1ED0236844
:103950001A6812F0400F03D11A6842F040021A6050
:10396000E368B3F5006F1CD0636813B1B9F1010FC0
:1039700052D1226B236812781A73236B01332363AD
:10398000E38E9BB2013B9BB2E38645E0226813685D
:1039900023F0400313602268136843F480431360EC
:1039A000D5E7636813B1B9F1010F16D1226B236813
:1039B0001288DA60236B02332363E38E9BB2013BF0
:1039C0009BB2E38609E0FEF717FDC01BA84202D3B5
:1039D000B5F1FF3F59D1002D59D0E38E9BB2002B9A
:1039E00033D023689A6812F0020FECD0226B128851
:1039F000DA60236B02332363E38E9BB2013B9BB2FD
:103A0000E386EAE7FEF7F8FCC01BA84202D3B5F153
:103A1000FF3F3ED1002D3ED0E38E9BB2ABB1236879
:103A20009A6812F0020FEDD0226B12781A73236B92
:103A300001332363B4F836C01FFA8CFC0CF1FF3C51
:103A40001FFA8CFCA4F836C0E6E73A462946204621
:103A5000FFF770FE08B120236365A36833B90193B3
:103A60002368DA6801929B680193019B636D13B927
:103A7000002600E00226012384F85130002384F858
:103A80005030304603B0BDE8F0830326F3E7032649
:103A9000F1E70326EFE70326EDE70226F1E72DE93C
:103AA000F04383B01F460A9D90F85030012B00F080
:103AB0001081044688469146012380F85030FEF775
:103AC0009BFC064694F85130DBB26268012B0AD0A9
:103AD000B2F5827F40F0E380A268002A40F0E980DE
:103AE000042B40F0E880B8F1000F00F0E680B9F157
:103AF000000F00F0E480002F00F0E38094F85130D4
:103B0000DBB2042B02D0052384F851300023636517
:103B1000C4F83890E787A787C4F83080E786A7867F
:103B20002364636423681A6812F0400F03D11A6893
:103B300042F040021A60E368B3F5006F11D0636889
:103B40000BB1012F0BD1226B236812781A73236BF0
:103B500001332363E38E9BB2013B9BB2E3860127D3
:103B60006BE063680BB1012F0BD1226B23681288C5
:103B7000DA60236B02332363E38E9BB2013B9BB27B
:103B8000E38601271CE023689A6812F0010F0ED02B
:103B9000E28F92B25AB1DA68A36B1A80A36B023338
:103BA000A363E38F9BB2013B9BB2E3870127FEF740
:103BB00023FC801BA84203D3B5F1FF3F40F0838074
:103BC000E38E9BB21BB9E38F9BB2002B53D02368CB
:103BD0009A6812F0020FD6D0E28E92B2002AD2D0AA
:103BE000002FD0D0226B1288DA60236B023323635C
:103BF000E38E9BB2013B9BB2E3860027C3E72368B9
:103C00009A6812F0010F0ED0E28F92B25AB1DA68C0
:103C1000A36B1A70A36B0133A363E38F9BB2013BC9
:103C20009BB2E3870127FEF7E7FB831BAB4202D37E
:103C3000B5F1FF3F49D1002D49D0E38E9BB213B9B6
:103C4000E38F9BB2BBB123689A6812F0020FD6D003
:103C5000E28E92B2002AD2D0002FD0D0226B1278FE
:103C60001A73236B01332363E38E9BB2013B9BB238
:103C7000E3860027C3E7324629462046FFF75AFD70
:103C800048B9A36863B901932368DA6801929B6815
:103C90000193019B04E020236365012000E00220E2
:103CA000012384F85130002384F8503003B0BDE87C
:103CB000F0830220F4E70220F2E70120F0E7012080
:103CC000EEE70120ECE70320EAE70320E8E7032022
:103CD000E6E70220EAE72DE9F04383B00446884690
:103CE00091461D464068B0F5827F38D094F8503038
:103CF000012B00F0AE80012384F85030FEF77CFBEE
:103D0000074694F85160F6B2012E40F08F80B8F16A
:103D1000000F00F08C80B9F1000F00F088800423C0
:103D200084F8513000236365C4F83880A4F83C90CF
:103D3000A4F83E902363A386E38623646364A368A8
:103D4000B3F5004F19D023681A6812F0400F03D161
:103D50001A6842F040021A60E3681BB341E0A368AE
:103D6000002BC3D1042384F85130009513460A4632
:103D70002046FFF794FE06465FE02268136823F0B2
:103D8000400313602268136823F480431360DAE76A
:103D9000FEF732FBC01BA84202D3B5F1FF3F50D162
:103DA000002D50D0E38F9BB2002B33D023689A684C
:103DB00012F0010FECD0A26B1B7B1370A36B0133CD
:103DC000A363E38F9BB2013B9BB2E387EAE7FEF775
:103DD00013FBC01BA84202D3B5F1FF3F35D1002D24
:103DE00035D0E38F9BB2ABB123689A6812F0010F14
:103DF000EDD0DA68A36B1A80A36B0233A363B4F827
:103E00003EC01FFA8CFC0CF1FF3C1FFA8CFCA4F89E
:103E10003EC0E6E73A4629462046FFF7BFFC08B118
:103E200020236365636D13B9002600E00226012399
:103E300084F85130002384F85030304603B0BDE898
:103E4000F0830326F3E70326F1E70326EFE70326D3
:103E5000EDE70226F1E7000030B4036A23F0010326
:103E60000362036A4268846924F073040D682C437A
:103E700023F0020C8B6843EA0C03104DA84203D0D8
:103E800005F58065A84205D123F00803CD682B43D2
:103E900023F00403094DA84203D005F58065A8422C
:103EA00005D122F440724D692A438D692A4342604C
:103EB00084614A684263036230BC7047000001407D
:103EC00030B4036A23F480730362036A4268C469EE
:103ED00024F0730C0C6844EA0C0523F400738C681E
:103EE00043EA0423114CA04203D004F58064A042AD
:103EF00006D123F40063CC6843EA042323F48063EF
:103F00000A4CA04203D004F58064A04207D122F4F9
:103F100040524C6942EA04128C6942EA041242603F
:103F2000C5614A68C263036230BC7047000001404B
:103F300030B4036A23F480530362036A4468C2699D
:103F400022F4E6420D6842EA052223F400538D680C
:103F500043EA0533094DA84203D005F58065A84220
:103F600004D124F480444D6944EA85144460C2615C
:103F70004A680264036230BC704700BF0000014021
:103F800090F83D30DBB2012B37D1022380F83D3071
:103F90000268D36843F00103D3600368194A93426F
:103FA00020D0B3F1804F1DD0A2F57C42934219D0AE
:103FB00002F58062934215D002F58062934211D0DF
:103FC00002F5784293420DD002F57052934209D027
:103FD000A2F59432934205D01A6842F001021A60A9
:103FE000002070479A6802F00702062A07D01A6874
:103FF00042F001021A600020704701207047002043
:10400000704700BF000001400268D36823F001033D
:10401000D3600368196A41F21112114208D1196A7A
:1040200040F24442114203D11A6822F001021A60A0
:10403000012380F83D30002070477047704770477B
:10404000704710B5044603681A6912F0020F11D0C8
:10405000DA6812F0020F0DD06FF002021A6101232C
:10406000037703689B6913F0030F70D0FFF7E6FF37
:104070000023237723681A6912F0040F12D0DA683C
:1040800012F0040F0ED06FF004021A61022323779E
:1040900023689B6913F4407F5FD02046FFF7CEFF73
:1040A0000023237723681A6912F0080F12D0DA6808
:1040B00012F0080F0ED06FF008021A610423237764
:1040C0002368DB6913F0030F4ED02046FFF7B6FFDD
:1040D0000023237723681A6912F0100F12D0DA68D0
:1040E00012F0100F0ED06FF010021A610823237720
:1040F0002368DB6913F4407F3DD02046FFF79EFF25
:104100000023237723681A6912F0010F03D0DA68BD
:1041100012F0010F36D123681A6912F0800F03D014
:10412000DA6812F0800F34D123681A6912F0400F58
:1041300003D0DA6812F0400F32D123681A6912F006
:10414000200F03D0DA6812F0200F30D110BDFFF736
:1041500074FF2046FFF773FF8AE72046FFF76DFFE5
:104160002046FFF76CFF9BE72046FFF766FF2046DF
:10417000FFF765FFACE72046FFF75FFF2046FFF73C
:104180005EFFBDE76FF001021A612046FDF760FF98
:10419000C1E76FF080021A61204600F073FAC3E7AE
:1041A0006FF040021A612046FFF74AFFC5E76FF043
:1041B00020021A61204600F064FAC7E70368304A1B
:1041C000904212D0B0F1804F0FD0A2F57C429042C5
:1041D0000BD002F58062904207D002F580629042D7
:1041E00003D002F57842904203D123F070034A686D
:1041F0001343234A90422AD0B0F1804F27D0A2F532
:104200007C42904223D002F5806290421FD002F59A
:10421000806290421BD002F57842904217D002F59E
:104220007052904213D002F5806290420FD002F596
:10423000806290420BD0A2F59832904207D002F5EE
:104240008062904203D002F58062904203D123F451
:104250004073CA68134323F080034A691343036021
:104260008B68C3620B688362054B984203D003F5E9
:104270008063984201D10B69036301234361704756
:104280000000014040B310B5044690F83D30F3B152
:10429000022384F83D30214651F8040BFFF78EFFCE
:1042A000012384F8463084F83E3084F83F3084F8A7
:1042B000403084F8413084F8423084F8433084F848
:1042C000443084F8453084F83D30002010BD80F83B
:1042D0003C30FDF785F9DBE70120704740B310B5AE
:1042E000044690F83D30F3B1022384F83D30214676
:1042F00051F8040BFFF762FF012384F8463084F87D
:104300003E3084F83F3084F8403084F8413084F8FF
:10431000423084F8433084F8443084F8453084F8DF
:104320003D30002010BD80F83C30FDF731F9DBE76F
:104330000120704730B4036A23F010030362036A5C
:104340004468826922F4E6420D6842EA052223F0BD
:1043500020038D6843EA0513114DA84203D005F5EB
:104360008065A84206D123F08003CD6843EA051397
:1043700023F040030A4DA84203D005F58065A8420A
:1043800007D124F440644D6944EA85048D6944EA08
:104390008504446082614A688263036230BC70476E
:1043A0000000014038B590F83C30012B66D004463F
:1043B0000D46012380F83C300C2A5AD8DFE802F081
:1043C000075959591B5959593059595944000068CE
:1043D000FFF742FD2268936943F008039361226866
:1043E000936923F0040393612268936929690B435D
:1043F000936100203EE00068FFF79CFF226893690C
:1044000043F4006393612268936923F480639361AA
:1044100022689369296943EA01239361002029E016
:104420000068FFF74DFD2268D36943F00803D361AC
:104430002268D36923F00403D3612268D369296910
:104440000B43D361002015E00068FFF771FD22687F
:10445000D36943F40063D3612268D36923F4806392
:10446000D3612268D369296943EA0123D36100201B
:1044700000E00120002384F83C3038BD0220FCE736
:1044800001F01F01012303FA01FC036A23EA0C0374
:104490000362036A02FA01F10B43036270470000F2
:1044A00010B504460846002942D194F83E30DBB2EC
:1044B000013B18BF0123002B6ED1002851D10223EC
:1044C00084F83E30012201462068FFF7D9FF2368B7
:1044D000334A934203D002F58062934203D15A6C6F
:1044E00042F400425A6423682D4A934249D0B3F102
:1044F000804F46D0A2F57C42934242D002F58062C2
:1045000093423ED002F5806293423AD002F578425F
:10451000934236D002F57052934232D0A2F59432D3
:1045200093422ED01A6842F001021A60002032E055
:10453000042908D008290DD094F84130DBB2013BA2
:1045400018BF0123B7E794F83F30DBB2013B18BF37
:104550000123B0E794F84030DBB2013B18BF0123E0
:10456000A9E7042805D0082807D0022384F84130A1
:10457000A8E7022384F83F30A4E7022384F8403000
:10458000A0E79A6802F00702062A07D01A6842F0EC
:1045900001021A60002010BD0120FCE70020FAE7AC
:1045A0000000014090F83C30012B3DD010B40123B5
:1045B00080F83C30022380F83D3003685A689C68DC
:1045C00022F0700C0A6842EA0C025A600368174A2B
:1045D00093421AD0B3F1804F17D0A2F57C42934298
:1045E00013D002F5806293420FD002F580629342AD
:1045F0000BD002F57842934207D002F570529342F5
:1046000003D0A2F59432934204D124F080044A6886
:1046100014439C60012380F83D30002380F83C3037
:1046200018465DF8044B70470220704700000140B7
:1046300090F83C30012B22D0012380F83C30CB682D
:1046400023F440738A68134323F480634A68134356
:1046500023F400630A68134323F480530A69134365
:1046600023F400534A69134323F48043CA69134374
:1046700002685364002380F83C30184670470220DB
:10468000704770477047000038B5044602681369E8
:1046900023F44053C1680B431361836802691343D9
:1046A00042691343C2691A430168CB6823F4164375
:1046B00023F00C031343CB600268536923F4407367
:1046C00081690B4353610368314A934206D002F576
:1046D0008062934202D0FEF79BFD01E0FEF7A8FD49
:1046E000E369B3F5004F29D00021031849411B1895
:1046F00041F10001C90041EA5371DB0018186368F9
:104700004FEA83024FEA937341F10001FCF7BCFAD0
:10471000204DA5FB00325109642303FB11031B014B
:104720003233A5FB03235B0903F0F00202EB011215
:1047300003F00F03216813448B6038BD0023021877
:1047400043EB0301121841F10001C90041EA527123
:10475000D200101841F10001626892185B41FCF729
:1047600093FA0C4DA5FB00325109642303FB11039E
:10477000DB003233A5FB03235B095A0002F4F87215
:1047800002EB011203F00703216813448B60D4E7A6
:10479000001001401F85EB5158B310B5044690F846
:1047A0003D300BB3242384F83D302268D36823F4D2
:1047B0000053D3602046FFF767FF2268136923F494
:1047C000904313612268536923F02A0353612268DE
:1047D000D36843F40053D36000202064202384F87E
:1047E0003D3084F83E3010BD80F83C30FDF72AF8AB
:1047F000D8E701207047000070B584B08DF807102D
:1048000000F07F008DF80F000F4D104C002229881A
:104810002068FEF7E5FB0E4E4FF0FF3301220DF14D
:104820000F013068FFF75FF84FF0FF3301220DF101
:1048300007013068FFF757F8012229882068FEF742
:10484000CFFB04B070BD00BFC4300020C8300020D2
:10485000CC30002070B582B000228DF8072060F0C7
:104860007F008DF80600104D104C29882068FEF757
:10487000B7FB0F4E4FF0FF3301220DF106013068F8
:10488000FFF731F84FF0FF3301220DF107013068D7
:10489000FFF721FA012229882068FEF7A1FB9DF885
:1048A000070002B070BD00BFC4300020C830002037
:1048B000CC300020032859D8F8B504460D4603290A
:1048C00057D84600F6B24F00FFB220217F20FFF7F5
:1048D00093FF31460120FFF78FFF39461420FFF781
:1048E0008BFF0120FFF7B6FF00F00600864243D1A0
:1048F0001420FFF7AFFF00F0060087423FD10021F0
:104900007F20FFF779FF032C06D8DFE804F0020BC5
:104910000F131D4B1D4A1A60032D33D8DFE805F035
:104920000E141A20184B1A4A1A60F5E7164B194A4A
:104930001A60F1E7144B184A1A60EDE7174B4FF075
:1049400062521A600020F8BD144B4FF064521A6096
:104950000020F8E7114B4FF066521A600020F2E792
:104960000E4B4FF068521A600020ECE74FF0FF301A
:1049700070474FF0FF30E6E74FF0FF30E3E74FF0CE
:10498000FF30E0E70020DEE7100000200000FA3BE7
:1049900000007A3C0000FA3C00007A3D0C00002048
:1049A00038B50D46FFF756FF04462846FFF752FF7D
:1049B00040EA042080B238BD08B50020FFF74AFF66
:1049C00008BD000038B5134B1860134B1960134B2A
:1049D0001A80FFF7F1FF04460025E02C0FD0642079
:1049E000FDF710FDFFF7E8FF044601460C4800F014
:1049F000CBFF0135042DF0DD4FF0FF3038BD012134
:104A00000620FFF7F9FE01210220FFF753FF0020E7
:104A1000F4E700BFCC300020C8300020C4300020B4
:104A2000C87C000808B538213720FFF7B9FF00B26D
:104A300008BD000008B5FFF7F5FF07EE900AF8EE95
:104A4000E77A034B93ED000A27EE800A08BD00BF0A
:104A50001000002038B52DED028B0D4600249FED8F
:104A60000B8A08E0FFF7E6FF38EE008A2846FDF7DC
:104A7000C9FC0134A4B2B4F57A7FF3D39FED040AE4
:104A800088EE000ABDEC028B38BD00BF00000000BC
:104A900000007A4480EA500080EA900000F0113073
:104AA0004FF0113303FB00F0C0F30070704710B5F6
:104AB000C40BC0F30E00FFF7EDFF80B2844201D0BB
:104AC000002010BD0120FCE7B0F9083063B959B1EE
:104AD00001818B2906DC01EB8101044B03EB011101
:104AE000C16070470023C360704700BF14000020FE
:104AF00000230381014BC360704700BF14000020F6
:104B000038B50546C1F30D0141EA82310CB22046A9
:104B1000FFF7C0FF44EAC034AC80294631F8022BCD
:104B2000281D00F052FA50B96C8814F4804F0DD152
:104B30002046FFF7BCFF80B1C4F30D0038BD012152
:104B40002846FFF7C1FF4FF0FF30F7E70221284664
:104B5000FFF7BAFF4FF0FF30F0E703212846FFF7D9
:104B6000B3FF4FF0FF30E9E770B504461646012960
:104B700019D9032917D043F6FC73994213D043F691
:104B8000FD7399420FD043F6FE7399420BD043F662
:104B9000FF73994207D0172905D0162903D0182989
:104BA00001D019290FD1012209B22046FFF7A8FF31
:104BB000012243F6FC712046FFF7A2FF051E18DB19
:104BC0003EB9284670BD0A21FFF77EFF4FF0FF3542
:104BD000F7E7012200212046FFF792FF00280BDBB8
:104BE0000028EED10B212046FFF76EFF4FF0FF3576
:104BF000E7E74FF0FF35E4E74FF0FF35E1E72DE958
:104C0000F04107460C4615461E469DF818800329BC
:104C100007D0172905D0162903D0182901D0192942
:104C200012D1002221B23846FFF76AFF002229463E
:104C30003846FFF765FF002833DB5EB9B8F1000F97
:104C40001ED10020BDE8F0811421FFF73DFF4FF099
:104C5000FF30F7E7012243F6FC713846FFF750FFBB
:104C6000002821DB182C08D08542E7D015213846D2
:104C7000FFF72AFF4FF0FF30E4E745F00105F3E7C7
:104C8000012200213846FFF73BFF00280FDB08B167
:104C90000020D7E716213846FFF716FF4FF0FF3008
:104CA000D0E74FF0FF30CDE74FF0FF30CAE74FF0CD
:104CB000FF30C7E738B504460D4600238371012352
:104CC000C37101800A2000F077F9284600F078F9D6
:104CD00088B9012211462046FFF746FF01221146FE
:104CE0002046FFF741FF002813DB0BDC2046FFF7CF
:104CF000FFFE002038BD1E212046FFF7E5FE4FF0E5
:104D0000FF30F7E71F212046FFF7DEFE4FF0FF30B0
:104D1000F0E74FF0FF30EDE7B0F90800003818BFBA
:104D20000120704710B50446C379EBB1FFF7F4FFDB
:104D300008B9002010BD012211462046FFF714FFDC
:104D4000012211462046FFF70FFF002812DB04DC8A
:104D50002046FFF7CDFE0020ECE732212046FFF78A
:104D6000B3FE4FF0FF30E5E73321FFF7ADFE4FF024
:104D7000FF30DFE74FF0FF30DCE770B50446C37962
:104D800013B10D46827932B9002B4BD0A379002B99
:104D90004FD0304670BD012243F6FF71FFF7B0FEE1
:104DA000012243F6FC712046FFF7AAFE061E47DBF0
:104DB000002DEED0012200212046FFF7A1FE0028A1
:104DC00041DB98B183B210F4006F16D113F4806FF9
:104DD0001AD113F4007F1ED113F4807FD9D14A2158
:104DE0002046FFF771FE4FF0FF36D2E746212046FE
:104DF000FFF76AFE4FF0FF36CBE747212046FFF76B
:104E000063FE4FF0FF36C4E748212046FFF75CFE03
:104E10004FF0FF36BDE749212046FFF755FE4FF022
:104E2000FF36B6E74B212046FFF74EFE4FF0FF3628
:104E3000AFE74C212046FFF747FE4FF0FF36A8E7CB
:104E40004FF0FF36A5E74FF0FF36A2E7F0B583B08D
:104E50000446C379002B42D001221721FFF784FEBC
:104E6000002842DB00F0C005012700973B462A4698
:104E700017212046FFF7C3FE064600973B46002257
:104E800016212046FFF7BBFE064336B286BB3846E6
:104E900000F092F83A4643F6FF712046FFF764FEB1
:104EA000002828DB00F03F02C0F3871600973B463E
:104EB0002A4317212046FFF7A2FE054600973B46EE
:104EC000324616212046FFF79AFE05432DB2ADB9B2
:104ED0003846A77100F070F8284603B0F0BD5021A5
:104EE000FFF7F2FD4FF0FF35F6E74FF0FF35F3E740
:104EF0004FF0FF35F0E74FF0FF35EDE74FF0FF35AE
:104F0000EAE7000018B101280CD0FF2070470B4BD6
:104F10000B4A1A600B4B01221A800B4B0B4A1A608A
:104F200000207047054B0A4A1A60064B04221A807B
:104F3000054B064A1A600020704700BFD43000209D
:104F400000000240D0300020D8300020682E002021
:104F50000004024008B50246034B1988034B186849
:104F6000FEF73EF808BD00BFD0300020D43000204E
:104F700008B5FFF7C7FF0120FFF7ECFF002008BDD1
:104F800008B5FFF7BFFF0020FFF7E4FF002008BDD2
:104F900000B583B00A464FF0FF330093012301466A
:104FA00004480068FEF77BFD10B903B05DF804FB10
:104FB000FF20FAE7D830002008B5FDF723FA08BD36
:104FC00008B5FFF7D5FF002008BD70B505460E46B1
:104FD00014461046FFF7D4FF31462846FFF7D8FFA6
:104FE0002046FFF7C5FF002070BD0000DFF834D079
:104FF0000D480E490E4A002302E0D458C450043331
:10500000C4188C42F9D30B4A0B4C002301E0136007
:105010000432A242FBD3FCF789FA00F011F8FCF746
:1050200083F970470000042000000020A42D002018
:1050300004810008A42D0020F0300020FEE70000CD
:1050400070B50D4D0D4C641BA4100026A64209D16D
:105050000B4D0C4C02F00CFE641BA4100026A64263
:1050600005D170BD55F8043B98470136EEE755F879
:10507000043B98470136F2E7FC800008FC800008FA
:10508000FC800008008100080A44914200F1FF33CF
:1050900000D1704710B511F8014B03F8014F914250
:1050A000F9D110BD02440346934200D1704703F882
:1050B000011BF9E72DE9FF4755EC104B002D0E467B
:1050C00019462B46BBBF05F100431D4600232D2387
:1050D0000B700D9BDDF830A0914623F02008BCBF7B
:1050E00022461446B8F1460F05D0B8F1450F00D15D
:1050F0000136022100E0032103AB019302AB0093D0
:1051000045EC104B5346324600F01AFEB8F1470FFB
:10511000074602D119F0010F22D0B8F1460F07EB74
:10512000060910D13B78302B0AD1002200232046FB
:105130002946FBF7E9FC18B9C6F10106CAF8006078
:10514000DAF8003099440022002320462946FBF774
:10515000DBFC08B1CDF80C903022039B4B4507D304
:10516000039B0E9ADB1B3846136004B0BDE8F08742
:10517000591C03911A70F0E7F7B503460029B8BF30
:10518000494203F8022BB4BF2D222B220929427079
:105190002ADD0DF10704A4460A27A6460A4691FB1C
:1051A000F7F607FB16153035632A04F1FF340EF8C5
:1051B000015C3146F1DC3031AEF1020504F8011C2E
:1051C000441C294661450AD30DF10902A2EB0E02E7
:1051D000654588BF00221344181A03B0F0BD11F8CA
:1051E000012B04F8012FEDE7302330318370C170BB
:1051F000031DF1E72DE9F04F2DED028B8DB00C462C
:10520000DDF8608016461F46054601F03FFDD0F8E8
:1052100000A05046FAF7FCFF00230A932368059389
:10522000D8F8003094F818B0073323F0070303F1DF
:105230000802C8F80020D3E90023C4E91223D4E906
:10524000128929F000430793CDF8188008EE100A60
:105250009F4BDDE906014FF0FF32FBF787FC88BB6F
:10526000DDE906019A4B4FF0FF32FBF761FC48BBCA
:105270000022002340464946FBF750FC10B12D2385
:1052800084F84330934B9448BBF1470F94BF984642
:10529000804603232361059B23F0040222604FF024
:1052A0000009009733460BAA2146284600F0D8F99A
:1052B000013040F090804FF0FF300DB0BDEC028B1C
:1052C000BDE8F08F42464B4640464946FBF74EFC50
:1052D00040B14B46002BBCBF2D2384F843307F48A0
:1052E0007F4BD1E763680BF0DF0206925A1C3FD177
:1052F00006236360059B616843F480620023039387
:105300000AABCDE901B309AB49EC108B00932260E5
:105310000DF123032846FFF7CDFE069B0999472B85
:10532000804608D1C81C02DB6368994241DDABF1BD
:10533000020B5FFA8BFBBBF1650F20D801395A468F
:1053400004F150000991FFF717FF0A9A1318012A78
:105350008146236102DC2268D20701D50133236133
:105360009DF82330002B9CD02D2384F8433098E700
:10537000069A472ABED1002BBCD10123B9E7BBF165
:10538000660F18D1002963680BDD216113B922680B
:10539000D00702D501330B442361A1654FF000090A
:1053A000DEE713B92268D20701D50233F4E70123FF
:1053B000F2E74FF0670B0A9B994205DB23682161F6
:1053C000D807EAD54B1CE7E70029D4BFC1F1020298
:1053D00001221344E0E723685A0507D423694246B3
:1053E00031462846B84701302CD164E7BBF1650F40
:1053F00040F2E080D4E9120100220023FBF784FB95
:10540000002834D0374A012331462846B8470130B6
:105410003FF451AFDDE909239A4202DB2368D80744
:1054200010D518EE103A524631462846B84701309A
:105430003FF441AF4FF0000804F11A090A9B013B09
:10544000434509DC23689B0700F10581E0680B9B5D
:105450009842B8BF184630E701234A4631462846ED
:10546000B84701303FF427AF08F10108E6E7099B90
:10547000002B39DC1B4A012331462846B84701304E
:105480003FF419AFDDE90923134302D12368D9079B
:10549000D8D518EE103A524631462846B847013062
:1054A0003FF409AF4FF0000904F11A0A099B5B426F
:1054B0004B4501DC0A9B92E70123524631462846C0
:1054C000B84701303FF4F7AE09F10109EEE700BF3C
:1054D000FFFFEF7FD47C0008D87C0008E07C000848
:1054E000DC7C0008E47C00080A9AA36D9A42A8BFFD
:1054F0001A46002A914637DC4FF0000B29EAE97979
:1055000004F11A02A36D0593A3EB09035B4533DC99
:10551000DDE909239A423BDB2368DA0738D40A9B8A
:10552000059A09999A1AA3EB01099145A8BF9146DA
:10553000B9F1000F35DC4FF0000829EAE97904F1F0
:105540001A0ADDE909239B1AA3EB090343457FF7F8
:1055500079AF0123524631462846B84701303FF41F
:10556000AAAE08F10108ECE7134631464246284648
:10557000B8470130C0D19EE6012331462846059246
:10558000B84701303FF497AE059A0BF1010BB9E72C
:1055900018EE103A524631462846B8470130BED17F
:1055A00089E6059A4B46424431462846B8470130C1
:1055B000C1D180E60A9A012A01DCDB0738D5012334
:1055C000424631462846B84701303FF474AE18EEE3
:1055D000103A524631462846B84701303FF46BAE88
:1055E000D4E9120100220023FBF78EFAD8B90A9BF6
:1055F00008F10102013B31462846B84701300ED17F
:1056000059E60123524631462846B84701303FF457
:1056100052AE08F101080A9B013B4345F1DC4B46C1
:1056200004F15002DCE64FF0000804F11A0AF2E738
:1056300001234246DFE701234A4631462846B84760
:1056400001303FF438AE08F10108E3680B995B1AAA
:105650004345F0DCFAE64FF0000804F11909F4E7DD
:105660002DE9F047164699468A680B69DDF82080D7
:105670009342B8BF1346336091F8432007460C4667
:105680000AB1013333602368990642BF336802339D
:105690003360256815F0060506D104F1190AE368A0
:1056A00032689B1AAB4226DC94F84320131E226812
:1056B00018BF012392062BD404F143024946384611
:1056C000C04701301ED02368E568326803F0060346
:1056D000042B08BFAD1AA36822690CBF25EAE57543
:1056E00000259342C4BF9B1AED1800261A34B54218
:1056F0001AD1002008E00123524649463846C047E7
:10570000013003D14FF0FF30BDE8F0870135C6E727
:10571000E1185A1C302081F84300224494F84510C7
:1057200082F843100233C7E7012322464946384630
:10573000C0470130E6D00136D9E700002DE9FF4728
:105740000F7E0C9D782F914680460C469A4601F1BB
:10575000430207D8622F0AD8002F00F0D880582FB4
:1057600000F0A38004F1420584F842703AE0A7F10A
:105770006303152BF6D801A151F823F0D557000883
:10578000E957000865570008655700086557000885
:1057900065570008E9570008655700086557000875
:1057A0006557000865570008F558000819580008A3
:1057B000D7580008655700086557000817590008B2
:1057C0006557000819580008655700086557000814
:1057D000DF5800082B681A1D1B682A6004F1420577
:1057E00084F842300123A3E020682968060601F10D
:1057F00004030AD50E682B60002E03DA2D237642AF
:1058000084F843305E480A2319E00E682B6010F0DC
:10581000400F18BF36B2EFE72B682068191D2960CA
:10582000010601D51E6802E04606FBD51E885448D5
:105830006F2F0CBF08230A23002184F843106568EA
:10584000A560002DA2BF216821F0040121600EB9DE
:10585000002D4DD01546B6FBF3F103FB1167C75D74
:1058600005F8017D3746BB420E46F4D9082B0BD113
:105870002368DE0708D5236961689942DEBF3023BB
:1058800005F8013C05F1FF35521B2261CDF800A05F
:105890004B4603AA21464046FFF7E2FE01304CD1B9
:1058A0004FF0FF3004B0BDE8F087354881F845700F
:1058B0002968236851F8046B29601D0614D5DF0799
:1058C00044BF43F0200323601EB9236823F0200364
:1058D00023601023B0E7236843F02003236078237C
:1058E000284884F84530E3E7590648BFB6B2E6E7F2
:1058F0001546BBE72B6826686169181D28603506C8
:105900001B6801D5196002E07006FBD519800023E1
:1059100023611546BAE72B681A1D2A601D68626864
:1059200000212846FAF77CFC08B1401B60606368E0
:105930002361002384F84330A8E723692A464946B7
:105940004046D0470130ABD023689B0713D4E068B2
:10595000039B9842B8BF1846A4E701233246494644
:105960004046D04701309BD00135E36803995B1A6C
:10597000AB42F2DCEBE7002504F11906F5E700BFC6
:10598000E67C0008F77C00080FB40A4B13B51C68CE
:1059900024B1A36913B9204601F0DAF805AB049AE3
:1059A000A1680193204601F089FE02B0BDE81040D5
:1059B00004B07047D42B002070B50E46054618B1D0
:1059C00083690BB901F0C4F8AB69AC6813B9284618
:1059D00001F0BEF82C4B9C4220D16C68636EDB0753
:1059E00005D4A389980502D4A06D01F054F9A389C8
:1059F00019071DD52369DBB1013EA36816F8011F05
:105A0000013BA36039BB002B38DA22460A21284625
:105A100000F048F8013011D00A2511E01B4B9C42E0
:105A200001D1AC68DAE71A4B9C4208BFEC68D5E7B5
:105A30002146284600F088F80028DDD04FF0FF35D9
:105A4000636EDA0705D4A3899B0502D4A06D01F02B
:105A500023F9284670BD002B04DAA2699A4206DCBD
:105A60000A2904D023685A1C22601970C5E722460F
:105A7000284600F017F80130BFD1DFE723680A2578
:105A80005A1C22601D70DBE7DC7D0008FC7D0008ED
:105A9000BC7D0008024B01461868FFF78DBF00BFB0
:105AA000D42B0020F8B50E461446054618B183697C
:105AB0000BB901F04DF8214B9C422BD16C68A369C6
:105AC000A360A3891A072FD523696BB323692068C4
:105AD000C01A6369F6B28342374604DC2146284681
