:020000040800F2
:10000000000004203D3F00089521000897210008CA
:10001000992100089B2100089D2100080000000094
:100020000000000000000000000000009F21000808
:10003000A121000800000000A3210008A52100085C
:100040008D3F00088D3F00088D3F00088D3F000860
:100050008D3F00088D3F00088D3F00088D3F000850
:100060008D3F00088D3F00088D3F00088D3F000840
:100070008D3F00088D3F00088D3F00088D3F000830
:100080008D3F00088D3F00088D3F00088D3F000820
:100090008D3F00088D3F00088D3F00088D3F000810
:1000A0008D3F00088D3F00088D3F00088D3F000800
:1000B0008D3F00088D3F00088D3F00088D3F0008F0
:1000C0008D3F00088D3F00088D3F00088D3F0008E0
:1000D0008D3F00088D3F00088D3F00088D3F0008D0
:1000E0008D3F00088D3F00088D3F00088D3F0008C0
:1000F0008D3F00088D3F00088D3F00088D3F0008B0
:10010000000000008D3F00088D3F00088D3F000873
:100110000000000000000000AD2100088D3F000835
:10012000BD2100088D3F00088D3F00088D3F00086D
:100130008D3F00088D3F00088D3F00088D3F00086F
:100140008D3F00088D3F00088D3F00088D3F00085F
:100150008D3F00088D3F00088D3F00088D3F00084F
:100160008D3F00088D3F00080000000000000000E7
:10017000000000000000000000000000000000007F
:100180008D3F00088D3F00080000000000000000C7
:100190008D3F00088D3F00080000000000000000B7
:1001A000000000000000000000000000000000004F
:1001B0000000000000000000000000008D3F00086B
:0401C0008D3F000867
:1001D00010B5054C237833B9044B13B10448AFF381
:1001E00000800123237010BD70000020000000007B
:1001F0005C50000808B5034B1BB103490348AFF33B
:10020000008008BD00000000740000205C50000861
:1002100001F0FF01102A2BDB10F0070F08D010F8B7
:10022000013B013A8B422DD010F0070F42B3F6D1BB
:10023000F0B441EA012141EA014122F007047FF0D4
:1002400000070023F0E80256083C85EA010586EA2B
:10025000010685FA47F5A3FA87F586FA47F6A5FA67
:1002600087F68EB9EED1F0BC01F0FF0102F0070273
:1002700032B110F8013B013A83EA010313B1F8D11E
:100280000020704701387047002D06BF35460338FF
:10029000073815F0010F07D1013015F4807F02BF38
:1002A000013015F4C03F0130F0BC0138704700BF89
:1002B00091ED000A91ED011A03884069F0EE000A01
:1002C00020EE200AF0EE001A61EE210A70EE201AEC
:1002D000B6EE002A30EE600A21EE822AF6EE000A1F
:1002E00000F1080C82ED002A60EE200A5B1EC2EDD0
:1002F000010A02F1080001EBC3020831D2ED001A35
:1003000091ED002A92ED011AD1ED012A9CED003AFF
:10031000DCED013A31EEC20A72EE211A71EE220AC8
:1003200043EE001A32EEC11A43EEA01AB6EE002ACE
:1003300003EE801A21EE822A03EE601AB6EE000A5E
:1003400080ED002A21EE000A80ED010A0830083114
:10035000083A5B1E0CF1080CD0D1704791ED000AF1
:10036000D1ED010A30EE201AF6EE001A30EE600AE6
:100370000388406961EE211AF6EE000A00F1080CCC
:10038000C2ED001A60EE200A5B1EC2ED010A02F106
:10039000080001EBC30211F1080173B3D2ED001A9A
:1003A00091ED000A92ED011AD1ED010A9CED002AAF
:1003B000DCED012A30EE613A30EE210A70EE813A2E
:1003C00002EE430A70EEC10A02EEE30AF6EE001AEC
:1003D00042EE830A60EE211A42EE630AB6EE001A7C
:1003E000C0ED001A20EE811A80ED011A08300831A4
:1003F000083A5B1E0CF1080CD0D17047F0B50446EA
:1004000081B0208A0D461F464008390016462080DC
:100410000CD029462046FFF7A1FF3A463146204638
:1004200001B0BDE8F040012300F0D2BB012300225F
:100430002946204600F0CCFB32462946204601B032
:10044000BDE8F04034E7000010B94FF0FF307047CE
:100450001021018020225F490282816014235E4ABC
:100460005E498381426041610020704710B94FF0BE
:10047000FF3070472021018040225949028281606B
:100480003023584A584983814260416100207047B7
:1004900010B94FF0FF30704740210180802253494E
:1004A000028281603823524A52498381426041610D
:1004B0000020704710B94FF0FF3070478021018055
:1004C0004FF480724C4902828160D0234B4A4C49E0
:1004D0008381426041610020704710B94FF0FF30C6
:1004E00070474FF4807101804FF4007245490282D9
:1004F00081604FF4DC73444A444983814260416126
:100500000020704710B94FF0FF3070474FF4007172
:1005100001804FF480623E49028281604FF4E073B3
:100520003C4A3D498381426041610020704710B9D7
:100530004FF0FF3070474FF4806101804FF400624C
:100540003649028281604FF4E163354A354983813F
:10055000426041610020704710B94FF0FF30704792
:100560004FF4006101804FF480522F490282816074
:100570004FF46E632D4A2E49838142604161002011
:100580007047202920D040291CD0B1F5807F17D09A
:10059000B1F5007F12D0B1F5806F0DD0B1F5006FCD
:1005A00008D0B1F5805F11D122490A0011D14FF076
:1005B000FF3070472049F8E72049F6E72049F4E783
:1005C0002049F2E72049F0E72049EEE74FF0FF30FD
:1005D00070470847F4CF0008745000084C05010824
:1005E0001CD00008F4500008CC0501087CD000089D
:1005F000F4510008CC060108ECD00008F4530008C0
:10060000CC0801088CD20008F4570008CC0C010873
:10061000FCD50008F45F0008CC1401087CD9000860
:10062000F46F0008CC2401088CE70008F48F000860
:10063000CC440108590500082F05000805050008ED
:10064000DB040008B50400086D0400084904000834
:100650002DE9F04105462DED048B2F886A6801EBEA
:1006600087037F08B80894460C46984601EB870E2E
:1006700003EB870600F0928091ED000A93ED002ACB
:10068000D1ED010A91ED021AD1ED031AD3ED012A41
:1006900093ED023AD3ED033A9EED004ADEED014AB6
:1006A0009EED025ADEED035A96ED006AD6ED016A20
:1006B00096ED027AD6ED037A30EE028A81ED008A59
:1006C00030EE420A30EEA28A71EE038A31EEA39A2E
:1006D00071EEE31A77EEE53A34EE062A81ED018AEF
:1006E000C1ED028A81ED039A70EEE20A31EE431AFF
:1006F0008EED002A103134EEA62A75EE072A35EE6B
:10070000A73A8EED012A36EE442ACEED022A76EE85
:10071000E42A8EED033A37EE453A9CED004ADCEDD3
:10072000014A20EE045A00EEA45A60EE840A83EDDA
:10073000005A40EE640A22EE240AC3ED010A02EEDA
:10074000C40A86ED000A22EEA40A02EE040A86ED2F
:10075000010A9CED020ADCED030A21EE002A01EEFB
:10076000A02A61EE801A41EE601A23EE201A63EE91
:10077000A00A03EEC01A43EE000A83ED022AC3ED7D
:10078000031A86ED021AC6ED030A10331036401E16
:100790000EF1100E0CF1100C7FF46EAF02233946EF
:1007A000204600F0D7FA6A68BDEC048B3946404613
:1007B000BDE8F041022300F0CDBA00002DE9F04F72
:1007C00081B004462DED048B86B022880591520835
:1007D00001EB820303EB820505EB82000493039592
:1007E0000290A0F1040E666801960EEB8208520892
:1007F0000092D5ED000A91ED001AD5ED011A91EDA8
:10080000012AD3ED014A90ED014AD3ED005A90ED53
:10081000005A31EE200A71EE600A32EE211A72EEB1
:10082000611A30EEA42A71EE643A70EEE40A32EEF8
:10083000442A73EEC43A70EE840A71EEE52A71EE32
:10084000A51A30EE653A30EE250A30EE050A81ED44
:10085000000A71EEC51A93ED014A90ED010A31EEDE
:10086000041A31EE000A72EE852A33EE453A81ED24
:10087000010A01F1080200F10809A3F1040AA5F137
:10088000040C83ED002AC3ED012A85ED003AC5ED85
:10089000013AC0ED000AC0ED011A06F10800009F00
:1008A00006F11001083308351836BF1E5FEA5707F6
:1008B00000F0FB8095ED000AD2ED000A30EE803AA0
:1008C00030EEC01A95ED010AD2ED010AD3ED005ABF
:1008D000D3ED014A99ED005A70EE803A70EEC02ACD
:1008E00072EEE50A72EEA52A72EEC52A99ED014A6A
:1008F00031EE240A30EE852A70EE441A73EE650A52
:1009000030EEC50A33EE253A73EEE40A31EE641A8E
:1009100033EE053A70EEC40A31EE041A82ED003A65
:1009200093ED014A99ED013A73EE843A33EE833A3E
:1009300082ED013A08325EF804BC9EED006A9AED41
:10094000007A03EE10BA77EE066A5AF804BCD8EDC6
:10095000007A9CED008A36EEC85A35EE675A76EE7C
:10096000886A04EE10BA58F804BC09EE10BA5CF8B4
:1009700004BC09EE90BA76EEA76AACF1040B74EEF3
:10098000033A74EE435A37EE464A34EE694A74EE3F
:10099000094A33EEE94A34EE494A78EE678ACAEDED
:1009A000006A38EEA53A78EEE55A79EE698A36EEB5
:1009B000476A9BED007AA8F1040B73EE873ADBEDF2
:1009C000006AAAF1040B73EEA66A38EE866ACBEDD4
:1009D000006AACF1040BD0ED003AD0ED016A21EED3
:1009E000A37A02EE267A22EE232A83ED007A01EE24
:1009F000E62A64EEA61A43EE631A83ED012ACCEDD3
:100A0000001A63EE261A44EEA31ACBED001AAEF1DB
:100A1000040BD1ED001A91ED012A20EE213A00EEEF
:100A2000823A60EEA10A85ED003A40EE420A25EED8
:100A3000610A04EE420AC5ED010A8EED000A25EEB8
:100A4000020A04EE610A8BED000A96ED000AD6ED6B
:100A5000010A61EE001A42EEA01AC9ED001A62EE18
:100A6000801A0830083310310835183641EE601A04
:100A700026EE201A05EEC01A65EEA00AA8F1040BB6
:100A8000C9ED011A88ED001A46EE000A7F1EAAF190
:100A9000080AACF1080CAEF1080E09F10809CBED1B
:100AA000000AA8F108087FF405AFD5ED000A92ED21
:100AB000001AD5ED011A92ED012AD3ED014A99ED04
:100AC000014AD3ED005A99ED005A31EE200A71EE39
:100AD000600A32EE211A72EE611A30EEA42A71EE2B
:100AE000643A70EEE40A32EE442A73EEC43A70EED1
:100AF000840A71EEE52A72EE852A30EE653A30EE10
:100B0000250A30EE050A82ED000A33EE453A93EDF0
:100B1000014A99ED010A31EE041A31EE000A82ED24
:100B2000010A71EEA51A90ED000A90ED011A22EE6D
:100B3000004A02EE814A22EE800A83ED004A02EE6C
:100B4000410A83ED010A71EEC51A91ED000A91ED9B
:100B5000011A23EE002A03EE812A23EE800A85ED96
:100B6000002A03EE410A85ED010A042396ED000AEE
:100B700096ED011A20EE802A01EE812A21EE800AEC
:100B800089ED002A00EEC10A89ED010A0099019A57
:100B9000059889B200F0DEF8009962680498042391
:100BA00089B200F0D7F8009962680398042389B2EB
:100BB00000F0D0F862680298009906B00423BDECFA
:100BC000048B89B201B0BDE8F04F00F0C3B800005B
:100BD0002DE9F041064617463488012F0D46984608
:100BE0002DD1291D002C52D014F0030000F00980F3
:100BF00091ED000AB1EE400A81ED000A0831401E75
:100C0000F6D1A00800F01B8091ED000AB1EE400A79
:100C100081ED000AD1ED020A91ED040AF1EE600ABD
:100C2000C1ED020AB1EE400AD1ED060A81ED040AD7
:100C3000F1EE600AC1ED060A2031401EE4D1102C0D
:100C400015D0202C18D0402C1BD0802C0FD0B4F500
:100C5000807F11D0B4F5007F13D0B4F5806F06D03B
:100C6000B4F5006F08D0B4F5805F0AD00FE02946D4
:100C70003046FFF7EDFC0AE029463046FFF79EFDBF
:100C800005E0726801232146284600F063F8B8F1B8
:100C9000000F04D0B268B189284600F02AFB012F6A
:100CA00056D100EE104AB8EE400AF7EE000A002CCA
:100CB00080EE800A4CD014F003000ED0D5ED000A6F
:100CC00060EE800AC5ED000A95ED011A21EE401A8A
:100CD00085ED011A0835401EF0D1A40800F03880D7
:100CE000D5ED000A60EE800AC5ED000A05F10800A6
:100CF00095ED011A21EE401A85ED011A90ED001ACA
:100D000061EE000A90ED011AC0ED000A21EE401AD2
:100D100080ED011A0830D0ED000A90ED011A60EE66
:100D2000800A21EE401AC0ED000A80ED011A083059
:100D3000641E90ED001A61EE000A90ED011AC0EDFC
:100D4000000A21EE401A80ED011A00F10805C7D112
:100D5000BDE8F0812DE9F44F2DED108B83B01C46DA
:100D60000B469FED037AADF80240ADF80010ACE100
:100D7000F304353F0024012501940295019BBDF841
:100D80000240DDF84CE01B190EEBC30601935C003A
:100D9000D6ED006ADDF804900EEBC4061D1996ED41
:100DA000006A0EEBC5065F19D6ED005A0EEBC706BA
:100DB00003EB070B96ED005A0EEBCB0603EB0B0C87
:100DC000D6ED004A0EEBCC06634496ED004A0EEBDE
:100DD000C306D6ED003A0EF1040606EBC90696ED01
:100DE000003A139E06F1040E0EEBC404D4ED002A63
:100DF000341D04EBC50595ED002A351D05EBC70430
:100E000005EBC303D4ED001A93ED000A05EBCB0408
:100E100094ED001A05EBCC04D4ED000ADDF808408F
:100E2000BDF8005001EBC40302EB0408D3ED008AC7
:100E300002EB080B02EB0B0C02EB0C0E01EBCE07E6
:100E400002EB0E06D7ED007A01EBC60738EEA78A53
:100E500038EEE79AD7ED007A01EBC80702EB0609F6
:100E6000D7ED009A79EEA78A01EBC90779EEE79AE8
:100E7000D7ED007A01EBCB0702EB090A97ED00AA48
:100E80003AEE27BA01EBCA077AEE677A97ED00AA25
:100E900001EBCC07D7ED00AA7AEE8ABA3AEECAAADD
:100EA00078EE4BAA38EE0B8A38EEEBBA78EEAB8AC6
:100EB00078EE28BA0F1DC3ED00BA07EBCE0778EE27
:100EC00068BA97ED008AD3ED018A0F1D78EE88DAB3
:100ED00007EBC60738EEC88AD7ED008A0F1D07EB6F
:100EE000C80797ED00CA0F1D3CEE28EA07EBC907BB
:100EF0003CEE68CAD7ED008A0F1D07EBCB07D7ED94
:100F000000CA0F1D3CEEA8FA07EBCA077CEEE88A80
:100F1000D7ED00CA0F1D07EBCC0797ED00DA7DEE89
:100F20002CEA7DEE6CCA3DEECFDA7DEE8FDA3EEE36
:100F30006EFA7EEE2EEA3AEE8FEA7AEECFAA3DEE18
:100F4000AEFA7DEEEEEA7DEE4BDA3DEE0BBA25EE23
:100F50002BDA01EBCE0783ED01FA01EEAEDA87ED75
:100F600000DA0F1D65EE2EEA07EBCE0741EEEBEA45
:100F7000C7ED00EA66EE0EBA01EBCB0742EEADBA62
:100F8000C7ED00BA0F1D26EE2DDA07EBCB0702EEF8
:100F9000CEDA87ED00DA64EE2ADA01EBC90740EE1B
:100FA0008BDAC7ED00DA0F1D24EE0BBA07EBC90789
:100FB00000EEEABA87ED00BA79EECAAA79EE8A9A0B
:100FC00029EE87BA7CEE6C9A29EE87DA7CEE2C9AB1
:100FD0006AEE87AA69EE87BA79EE6A9A39EE2AAA8A
:100FE00037EECB9A77EE8BAA38EEEBCA78EE4D7AD5
:100FF00038EE0DBA78EEAB8A3AEE288A7AEE688A35
:101000007BEE6ABA39EE8CAA7BEE2AAA79EECC9AEC
:1010100037EEC9BA77EE897A26EE889A01EBC807CF
:1010200003EE2B9A87ED009A0F1D66EEABBA07EB25
:10103000C80743EE48BAC7ED00BA23EEA88A01EB11
:10104000CA0700EE2A8A87ED008A0F1D23EEAA9AAE
:1010500007EBCA0700EE689A87ED009A64EE8A8A69
:1010600001EBC60741EE0B8AC7ED008A0F1D24EE87
:101070008B8A07EBC60601EE4A8A86ED008A25EECA
:10108000A99A01EBCC0602EE279A86ED009A0E1D76
:1010900065EEA77A06EBCC06041942EE697AAC42FB
:1010A000C6ED007A03EBC003FFF4BEAE029BADF8C1
:1010B00000505B1C93420293FFF460AE0846BDF8FB
:1010C0000210C9001346ADF80210DA08BDF800A0FE
:1010D00000268146D9ED000A91195418151902EB22
:1010E000050800EBC80702EB080B97ED000A30EE8D
:1010F000802A00EBCB0730EEC00AD7ED000A00EBE8
:10110000C10702EB0B0C97ED001A71EE203A00EBD1
:10111000CC0731EE601AD7ED000A00EBC40702EBF2
:101120000C0ED7ED001A31EEA03A00EBCE0771EEAF
:10113000E00AD7ED001A00EBC5079E19D7ED002A8B
:1011400032EEA14A72EEE11A72EE432A32EE032A1F
:1011500033EEC43A73EE843A32EE234A00EBC8070A
:1011600089ED004A32EE632A87ED002A071D07EB5E
:10117000C807D9ED013A97ED002A071D73EE824AA0
:1011800007EBCB0733EEC22AD7ED003A071D07EB7A
:10119000C10797ED004A071D34EE235A07EBCC0731
:1011A00034EE634AD7ED003A071D07EBC407D7EDCD
:1011B000005A071D07EBCE0735EEA36AD7ED006A8C
:1011C000071D07EBC50775EEE33AD7ED007A77EE1A
:1011D000A65A77EEE66A74EEC67A74EE864A35EE63
:1011E000656A35EE255A071D74EE855A07EBC80867
:1011F000C9ED015A74EEC54AC8ED004A00EBC408B7
:1012000032EE865A88ED005A00EBCC0872EEC62A00
:1012100007EBC404C8ED002A77EEC34AC4ED004AC8
:10122000041D04EBCC0437EE833A71EE612A31EEF3
:10123000211A84ED003A62EE872A61EE071A34EE35
:10124000661A30EE623A21EE071A30EE220A34EEC8
:10125000264A70EEE12A72EE414A24EE074A70EE09
:10126000A10A32EE011A33EEC42A73EE841A00EB9F
:10127000C10470EE213A00EBCE07C4ED003A30EE27
:10128000610A00EBCB0487ED000A73EE021AC4ED8D
:10129000001A00EBC504071D33EE422A07EBC1011B
:1012A00084ED002A31EE603A81ED003A041D04EB32
:1012B000CE0131EE200A81ED000A07EBCB0174EE7E
:1012C000E20A04EBC505C1ED000A34EEA20A564558
:1012D00085ED000A09EBC309FFF4FCAE0146082ABC
:1012E0001846BFF447AD03B0BDEC108B01B0BDE8AC
:1012F000F08FF0B500230C001CD014885588A4088A
:10130000AD0850F8246050F8257040F8247040F87B
:101310002560071D061D57F8257056F8246000F15A
:10132000040E9B1C4EF82470041D121D44F8256009
:101330008B42E2D3F0BD0023002900D17047F0B505
:10134000951C32F8134035F81350A408AD0830F856
:10135000146030F8157020F8147020F81560871CA0
:10136000861C37F8157036F8146000F1020E9B1CCD
:101370002EF81470841C9BB224F815608B42DFDBBE
:10138000F0BD000053B94AB9002908BF00281CBFAE
:101390004FF0FF314FF0FF3000F074B9ADF1080CA1
:1013A0006DE904CE00F006F8DDF804E0DDE9022383
:1013B00004B070472DE9F047089D04468E46002B87
:1013C0004DD18A42944669D9B2FA82F252B101FAF9
:1013D00002F3C2F1200120FA01F10CFA02FC41EA09
:1013E000030E94404FEA1C48210CBEFBF8F61FFA8E
:1013F0008CF708FB16E341EA034306FB07F1994229
:101400000AD91CEB030306F1FF3080F01F819942DB
:1014100040F21C81023E63445B1AA4B2B3FBF8F0B5
:1014200008FB103344EA034400FB07F7A7420AD93C
:101430001CEB040400F1FF3380F00A81A74240F264
:1014400007816444023840EA0640E41B00261DB1CF
:10145000D4400023C5E900433146BDE8F0878B4204
:1014600009D9002D00F0EF800026C5E900013046C3
:101470003146BDE8F087B3FA83F6002E4AD18B429D
:1014800002D3824200F2F980841A61EB0303012047
:101490009E46002DE0D0C5E9004EDDE702B9FFDE33
:1014A000B2FA82F2002A40F09280A1EB0C014FEADE
:1014B0001C471FFA8CFE0126200CB1FBF7F307FB3B
:1014C000131140EA01410EFB03F0884208D91CEBDE
:1014D000010103F1FF3802D2884200F2CB8043467B
:1014E000091AA4B2B1FBF7F007FB101144EA01445A
:1014F0000EFB00FEA64508D91CEB040400F1FF31E9
:1015000002D2A64500F2BB800846A4EB0E0440EAD6
:1015100003409CE7C6F12007B34022FA07FC4CEADF
:10152000030C20FA07F401FA06F31C43F9404FEAD2
:101530001C4900FA06F3B1FBF9F8200C1FFA8CFEE7
:1015400009FB181140EA014108FB0EF0884202FA3B
:1015500006F20BD91CEB010108F1FF3A80F08880FC
:10156000884240F28580A8F102086144091AA4B2B9
:10157000B1FBF9F009FB101144EA014100FB0EFE3A
:101580008E4508D91CEB010100F1FF346CD28E4569
:101590006AD90238614440EA0840A0FB0294A1EBFA
:1015A0000E01A142C846A64656D353D05DB1B3EB57
:1015B000080261EB0E0101FA07F722FA06F3F14087
:1015C0001F43C5E9007100263146BDE8F087C2F12E
:1015D0002003D8400CFA02FC21FA03F391400143A6
:1015E0004FEA1C471FFA8CFEB3FBF7F007FB1036DF
:1015F0000B0C43EA064300FB0EF69E4204FA02F48B
:1016000008D91CEB030300F1FF382FD29E422DD9DD
:10161000023863449B1B89B2B3FBF7F607FB163312
:1016200041EA034106FB0EF38B4208D91CEB010192
:1016300006F1FF3816D28B4214D9023E6144C91A12
:1016400046EA004638E72E46284605E70646E3E622
:101650001846F8E64B45A9D2B9EB020864EB0C0E2C
:101660000138A3E74646EAE7204694E74046D1E73B
:10167000D0467BE7023B614432E7304609E76444E9
:10168000023842E7704700BF394B834200D07047B1
:1016900030B5ADF5077D3748036837490C88374AC0
:1016A00022F813404D8803F1400422F814508D882D
:1016B00003F1800422F81450CC8803F1C00122F811
:1016C0001140013303603F2B02DC0DF5077D30BD77
:1016D000274802F031F800253EE003EB8511274A48
:1016E00032F8112007EE902A06AA02EB8302F8EEE8
:1016F000677AC2ED007A01333F2BEEDD4021684668
:10170000FEF73FFF002346AA06A96846FEF776FECD
:1017100000240FE046AB03EB8403D3ED007AFDEE2B
:10172000E77A17EE901A0029B8BF4942144802F030
:101730005BFC01343F2CEDDD124802F0DBFCDDEDFB
:101740004F7AFDEEE77A17EE903A002BB8BF5B4276
:101750000D4A42F825300135032D01DC0023CBE78B
:10176000044B00221A60024801F0A2FFADE700BF5F
:10177000DC040020980000208C0000209C00002049
:10178000CC840108D08401089C02002010464FF050
:10179000000C0AE000BF4FF060431B68002BF9D03B
:1017A0004FF060431A700CF1010C844510DA11F807
:1017B000012B4FF06043D3F8803E13F0010FF2D0BD
:1017C0004FF06043D3F8003E13F0010FE3D1EAE796
:1017D000704772B6FEE7000000B595B034220021D4
:1017E00007A802F0F9FB00230293039304930593E7
:1017F000069300931F4A116C41F080511164126CE2
:1018000002F080520092009A01931B4B1A6842F436
:1018100040421A601B6803F440430193019B01237B
:1018200007934FF4A023089302230D934FF48002F3
:101830000E920A220F926422109211931293139324
:1018400007A801F097F888B90F23029302230393A6
:10185000002304934FF4805205920693032102A8BB
:1018600000F0B2FF20B915B05DF804FBFFF7B1FF3F
:10187000FFF7AFFF003802400070004008B501F0EC
:10188000F7FDFFF7A9FF00F031F800F06DF900F067
:10189000A9F900F099F800F081F900F029FC00F0B6
:1018A00023FB00F091FB00F0D9FB00F023FA0522A6
:1018B0000A490B4800F06CFD0A4C0021204602F05A
:1018C00087F90421204602F083F92368FA225A633B
:1018D00000229A63044801F0EBFEFEE78C00002032
:1018E000AC02002094040020DC0400202DE9F0412B
:1018F0008AB00024059406940794089409940194EE
:101900002D4B1A6B42F004021A631A6B02F00402A8
:101910000192019A02941A6B42F080021A631A6BC8
:1019200002F080020292029A03941A6B42F00102C2
:101930001A631A6B02F001020392039A04941A6B61
:1019400042F002021A631B6B03F002030493049B30
:10195000DFF8708022464FF46041404601F0E6FA1D
:10196000164F22460121384601F0E0FA144E224675
:101970000521304601F0DAFA4FF460430593012562
:1019800006950794089405A9404601F0FBF90595D2
:1019900006950794089405A9384601F0F3F9052344
:1019A000059306950794089405A9304601F0EAF9D5
:1019B0000AB0BDE8F08100BF0038024000000240DC
:1019C000000402400008024000B585B000230093E7
:1019D0000193029303932C482C4A02604FF4803207
:1019E0004260836001220261027680F82030C36287
:1019F00027498162C3600521C16180F830204361BD
:101A000000F09AFC68BB0123009301930223029328
:101A100069461D4800F0BAFD30BB022300930193D4
:101A20006946194800F0B2FD08BB032300930193F7
:101A30006946154800F0AAFDE0B90423009301931C
:101A40006946114800F0A2FDB8B9092300930523A7
:101A5000019369460C4800F099FD88B905B05DF81E
:101A600004FBFFF7B6FECEE7FFF7B3FED5E7FFF7BF
:101A7000B0FEDAE7FFF7ADFEDFE7FFF7AAFEE4E727
:101A8000FFF7A7FEEAE700BFAC02002000200140FC
:101A90000100000F70B588B00023039304930593F1
:101AA00006930793026803F1804303F590339A424B
:101AB00001D008B070BD04460025009503F58C33B5
:101AC0005A6C42F480725A645A6C02F4807200922A
:101AD000009A01951A6B42F001021A631A6B02F028
:101AE00001020192019A02951A6B42F002021A63F6
:101AF0001B6B03F002030293029B1E230393032636
:101B0000049603A9144801F03DF9022303930496B7
:101B1000059503A9114801F035F91148114B0360EF
:101B200045608560C5604FF4806303614FF40063D6
:101B300043614FF4005383614FF48073C3610562C6
:101B4000456201F079FA18B9054BA3639C63B0E7CD
:101B5000FFF73FFEF8E700BF00000240000402402C
:101B6000F40200201064024000B583B0002101910E
:101B7000094B1A6B42F480021A631B6B03F4800357
:101B80000193019B0A46382001F0F2FB382001F056
:101B900027FC03B05DF804FB0038024008B50F488D
:101BA0000F4B03604FF482734360002383604FF454
:101BB0000062C2600361012242614FF400728261DF
:101BC0001822C2610362436283620A23C36201F086
:101BD0007BFC00B908BDFFF7FCFDFBE754030020C8
:101BE0000030014008B50F480F4B03604FF482737B
:101BF000436000238360C3600222026101224261CC
:101C00004FF4007282611022C261036243628362F8
:101C10000A23C36201F058FC00B908BDFFF7D9FDE3
:101C2000FBE700BFAC0300200038004000B58BB0DC
:101C30000023059306930793089309930368284AA2
:101C4000934205D0274A934225D00BB05DF804FBA0
:101C500000210191244B5A6C42F480525A645A6C10
:101C600002F480520192019A02911A6B42F0010231
:101C70001A631B6B03F001030293029BE02305939D
:101C800002230693032308930523099305A9174804
:101C900001F078F8D9E700210391134B1A6C42F454
:101CA00080421A641A6C02F480420392039A0491EF
:101CB0001A6B42F002021A631B6B03F002030493D7
:101CC000049B4FF460430593022306930323089378
:101CD0000523099305A9064801F054F8B5E700BFAC
:101CE000003001400038004000380240000002404F
:101CF0000004024000B583B00023009301930E4816
:101D00000E4A02607C22426083600422C2608361CA
:101D100001F050FE50B90023009301936946064834
:101D200001F0D8FF28B903B05DF804FBFFF751FDBF
:101D3000F1E7FFF74EFDF6E7DC040020001000405D
:101D400084B00368184A934207D0B3F1804F11D092
:101D5000164A93421BD004B0704700230193144BE2
:101D60005A6C42F001025A645B6C03F00103019368
:101D7000019BF0E7002302930D4B1A6C42F0010225
:101D80001A641B6C03F001030293029BE3E7002338
:101D90000393074B1A6C42F002021A641B6C03F0A7
:101DA00002030393039BD6E70000014000040040B8
:101DB0000038024002680E4B9A4200D0704700B5CE
:101DC00083B00021019103F50A331A6C42F010022E
:101DD0001A641B6C03F010030193019B0A46362022
:101DE00001F0C6FA362001F0FBFA03B05DF804FBFF
:101DF0000010004070B58AB0002305930693079346
:101E0000089309930368334A934207D0B3F1804F94
:101E10001CD0314A934247D00AB070BD00230193D1
:101E20002E4B1A6B42F001021A631B6B03F0010385
:101E30000193019B4FF4E063059302230693012372
:101E4000099305A9264800F09DFFE5E700240294C8
:101E500003F50E331A6B42F002021A631A6B02F09A
:101E600002020292029A03941A6B42F001021A6370
:101E70001B6B03F001030393039B4FF480630593F3
:101E8000022606960125099505A9164800F07AFF55
:101E90004FF400430593069607940894099505A905
:101EA0000F4800F06FFFB7E7002304930B4B1A6B4A
:101EB00042F002021A631B6B03F002030493049BBB
:101EC0003023059302230693099305A9054800F0E2
:101ED00059FFA1E700000140000400400038024023
:101EE000000002400004024010B592B0002410949B
:101EF000119409940A940B940C940D940E940F94DD
:101F00002022214601A802F067F82D482D4B0360DE
:101F100040F2F3134360846040F2CF73C360046106
:101F20004461846101F072FD002836D100231093D2
:101F3000119310A9224801F0CDFE002830D1602372
:101F4000099300220A920B920C920D920E920F921C
:101F500009A91B4801F0BEFD28BB042209A91848A5
:101F600001F0B8FD10BB082209A9154801F0B2FD27
:101F7000F8B90023019302930393049305934FF45C
:101F800000520692089301A90D4801F0E9FE98B9A4
:101F90000B48FFF72FFF12B010BDFFF71AFCC5E783
:101FA000FFF717FCCBE7FFF714FCD6E7FFF711FCB0
:101FB000D9E7FFF70EFCDCE7FFF70BFCE8E700BF13
:101FC000040400200000014000B58BB000230893FA
:101FD0000993019302930393049305930693079344
:101FE0001D484FF08042026040F2F312426083606D
:101FF00040F2CF72C2600361836101F007FDF0B966
:1020000000230893099308A9134801F063FEC8B997
:1020100060230193002202920392059201A90E48C7
:1020200001F058FD88B9082201A90B4801F052FDC2
:1020300070B90948FFF7DEFE0BB05DF804FBFFF74F
:10204000C8FBDDE7FFF7C5FBE2E7FFF7C2FBEAE706
:10205000FFF7BFFBEDE700BF4C04002000B58BB0DD
:102060000023089309930193029303930493059328
:10207000069307931C481D4A026009224260836050
:1020800040F2E732C2600361836101F0BFFCF8B93E
:1020900000230893099308A9134801F01BFED0B947
:1020A00060230193002202920392059201A90E4837
:1020B00001F010FD90B904220DEB02010A4801F075
:1020C00009FD70B90848FFF795FE0BB05DF804FBF9
:1020D000FFF77FFBDCE7FFF77CFBE1E7FFF779FB2E
:1020E000E9E7FFF776FBEDE79404002000040040E9
:1020F00008B50A480A4B03604FF4E13343600023FC
:102100008360C36003610C2242618361C36101F09B
:10211000DBFE00B908BDFFF75CFBFBE724050020F0
:102120000014014000B589B0002303930493059384
:10213000069307930268154B9A4202D009B05DF8E6
:1021400004FB0021019103F592335A6C42F0200206
:102150005A645A6C02F020020192019A02911A6BA1
:1021600042F001021A631B6B03F001030293029B0E
:102170004FF4C053039302230493032306930823CD
:10218000079303A9024800F0FDFDD7E700140140C2
:1021900000000240FEE7FEE7FEE7FEE7FEE77047CD
:1021A0007047704708B501F07DF908BD08B50248D1
:1021B00001F0DFFA08BD00BFDC04002008B50248CA
:1021C00000F0D6FF08BD00BFF402002082B000215D
:1021D00000910B4B5A6C42F480425A645A6C02F4E0
:1021E00080420092009A01911A6C42F080521A6467
:1021F0001B6C03F080530193019B02B0704700BF3A
:10220000003802404A4B5A6822F440325A605A68F9
:1022100041680A435A600268536823F4807353602C
:1022200002685368016943EA0123536002685368F6
:1022300023F0407353600268536881680B43536016
:102240000268936823F40063936002689368C1682E
:102250000B439360826A374B9A4257D00268936867
:1022600023F07063936002689368816A0B43936004
:102270000268936823F04053936002689368C16AD0
:102280000B4393600268936823F002039360026833
:102290009368017E43EA4103936090F82030002B5D
:1022A0003FD00268536843F4006353600268536888
:1022B00023F46043536001684B68426A013A43EA81
:1022C00042334B600268D36A23F47003D36201681F
:1022D000CB6AC269013A43EA0253CB62026893684F
:1022E00023F4007393600268936890F8301043EA17
:1022F000412393600268936823F4806393600268CB
:102300009368416943EA8123936070470268936848
:1023100023F0706393600268936823F040539360E6
:10232000B0E70268536823F400635360CAE700BF54
:10233000002301400100000F38B310B50446036CC0
:1023400043B1236C13F0100F0BD00120002384F84D
:102350003C3010BDFFF79EFB0023636484F83C30E3
:10236000EFE7236C23F4885323F0020343F00203C6
:1023700023642046FFF746FF00206064236C23F0AF
:10238000030343F001032364E0E7012070470000EA
:1023900010B582B013460022019290F83C20012A29
:1023A00000F094800446012280F83C200268906886
:1023B00010F0010F13D1906840F001009060464A80
:1023C0001068464AA2FB0020800C00EB4000019000
:1023D00002E001980138019001980028F9D12268A3
:1023E000906810F4807F03D0906820F48070906033
:1023F0002268906810F0010F5DD0206C20F4E0603E
:1024000020F0010040F480702064526812F4806F64
:1024100005D0226C22F4405242F480522264226C95
:1024200012F4805F34D0626C22F0060262640022F3
:1024300084F83C20A26B2A48D063A26B2948106420
:10244000A26B2948D06422686FF0220010602068D7
:10245000426842F0806242602068826842F4807282
:10246000826020680A4600F14C01A06B00F04AFE31
:102470001E4B5B6813F01F0F0DD123689A6812F092
:10248000405F25D19A6842F080429A6000201BE0AC
:1024900000226264CBE72368154A934201D00020F2
:1024A00012E09A6812F0405F14D19A6842F08042BC
:1024B0009A60002008E0236C43F010032364636CEF
:1024C00043F001036364002002B010BD0220FBE76B
:1024D0000020F9E70020F7E70800002083DE1B4317
:1024E0001B250008F92400080525000800230140E9
:1024F000002001407047704708B5806BFFF7FBFF75
:1025000008BD704708B5806B40230364436C43F0FB
:1025100004034364FFF7F5FF08BD08B50346806B6D
:10252000026C12F0500F25D1036C43F40073036466
:1025300003689A6812F0405F19D1027EBAB9DA6A6C
:1025400012F4700F03D09A6812F4806F0FD15A689A
:1025500022F020025A60036C23F480730364036C3E
:1025600013F4805F03D1036C43F001030364FFF7AE
:10257000C1FF08BD026C12F0100F04D1826BD26C47
:1025800018469047F5E7FFF7BCFFF2E730B482B09A
:102590000023019390F83C30012B00F0BB80012315
:1025A00080F83C300B68092B41D90468E2689BB283
:1025B00003EB43031E3B4FF0070C0CFA03F322EA34
:1025C0000303E3600468E2680B8803EB43031E3BEC
:1025D0008D6805FA03F31343E3604B68062B3DD87F
:1025E0000468626B03EB8303053B4FF01F0C0CFA8E
:1025F00003F322EA030363630468626B4B6803EB33
:102600008303053BB1F800C00CFA03F31343636383
:102610000268414B9A4251D002683F4B9A4256D0D1
:10262000002380F83C30184602B030BC7047046884
:1026300022699BB203EB43034FF0070C0CFA03F340
:1026400022EA03032361046822690B8803EB430336
:102650008D6805FA03F313432361BEE70C2B16D8EC
:1026600005682A6B03EB8303233B1F2404FA03F35F
:1026700022EA03032B6305682A6B4B6803EB830391
:10268000233B0C8804FA03F313432B63C0E705686C
:10269000EA6A03EB8303413B1F2404FA03F322EAB3
:1026A0000303EB620568EA6A4B6803EB8303413B73
:1026B0000C8804FA03F31343EB62A9E70B68122BAF
:1026C000AAD1164A536843F480035360A4E70B6809
:1026D000103B012BA4D8114A536843F40003536004
:1026E0000B68102B9CD10E4B1B6802F1467202F551
:1026F0002E3202F28332A2FB03239B0C03EB8303F3
:102700005B00019302E0019B013B0193019B002BC5
:10271000F9D185E7022087E700200140002301402E
:102720000800002008B5254B9B6803F00C03042B20
:102730003FD0082B3FD1214B5A6802F03F025B6823
:1027400013F4800F12D01D4B5968C1F388111C4837
:102750000023A1FB0001FEF715FE184B5B68C3F3D5
:10276000014301335B00B0FBF3F025E0134B5968E4
:10277000C1F3881C4FEA4C11B1EB0C006EEB0E0E4E
:102780004FEA8E1343EA90638101091A63EB0E034B
:10279000DB0043EA5173C90011EB0C0C43F1000359
:1027A000990200234FEA8C2041EA9C51FEF7EAFD92
:1027B000D3E7034800E0034808BD00BF00380240EB
:1027C000002D31010024F400002800F09B8070B53A
:1027D0000D4604464F4B1B6803F007038B4208D29B
:1027E000CBB24C4A1370136803F007038B4240F0DE
:1027F0008B80236813F0020F17D013F0040F04D05E
:10280000454A936843F4E0539360236813F0080F3C
:1028100004D0414A936843F4604393603E4A93680E
:1028200023F0F003A1680B439360236813F0010FBA
:1028300032D06368012B21D09A1E012A25D9364A4D
:10284000126812F0020F61D033498A6822F0030245
:1028500013438B6000F032FE06462F4B9B6803F05B
:102860000C036268B3EB820F16D000F027FE801BCA
:1028700041F288339842F0D9032042E0264A126898
:1028800012F4003FE0D101203BE0234A126812F02D
:10289000007FD9D1012034E01E4B1B6803F00703F1
:1028A000AB4207D9EAB21B4B1A701B6803F007034F
:1028B000AB422DD1236813F0040F06D0164A93685B
:1028C00023F4E053E1680B439360236813F0080F8F
:1028D00007D0114A936823F46043216943EAC10396
:1028E0009360FFF71FFF0C4B9B68C3F303130B4A66
:1028F000D35CD8400A4B18600A4B186800F092FD70
:10290000002070BD012070470120FAE70120F8E7A0
:102910000120F6E7003C024000380240DC84010858
:102920000800002004000020014B1868704700BF19
:102930000800002008B5FFF7F7FF044B9B68C3F3BE
:102940008223034AD35CD84008BD00BF0038024050
:10295000EC84010808B5FFF7E7FF044B9B68C3F35D
:102960004233034AD35CD84008BD00BF0038024060
:10297000EC840108002800F0E98170B582B00446BB
:10298000036813F0010F3BD09F4B9B6803F00C03CF
:10299000042B2CD09C4B9B6803F00C03082B21D0FC
:1029A0006368B3F5803F4FD0B3F5A02F52D0964B5C
:1029B0001A6822F480321A601A6822F480221A609F
:1029C0006368002B50D000F079FD05468E4B1B68E4
:1029D00013F4003F14D100F071FD401B6428F5D9B9
:1029E0000320BAE1884B5B6813F4800FD8D0864B84
:1029F0001B6813F4003F03D06368002B00F0A8812C
:102A0000236813F0020F54D07F4B9B6813F00C0F18
:102A10003ED07D4B9B6803F00C03082B33D0E3685A
:102A2000002B68D0794B01221A6000F047FD054663
:102A3000754B1B6813F0020F54D100F03FFD401B93
:102A40000228F5D9032088E16F4A136843F48033E4
:102A50001360B5E76C4B1A6842F480221A601A685A
:102A600042F480321A60ABE700F028FD0546664B61
:102A70001B6813F4003FC3D000F020FD401B642806
:102A8000F5D9032069E1604B5B6813F4800FC6D170
:102A90005D4B1B6813F0020F03D0E368012B40F07D
:102AA0005981594A136823F0F803216943EAC103A5
:102AB0001360236813F0080F42D063696BB3534B64
:102AC0000122C3F8802E00F0F9FC05464E4B5B6FE7
:102AD00013F0020F34D100F0F1FC401B0228F5D9AD
:102AE00003203AE1484A136823F0F803216943EAD6
:102AF000C1031360DDE7454B00221A6000F0DEFCE5
:102B00000546414B1B6813F0020FD2D000F0D6FCF3
:102B1000401B0228F5D903201FE13C4B0022C3F8DB
:102B2000802E00F0CBFC0546374B5B6F13F0020F95
:102B300006D000F0C3FC401B0228F5D903200CE1AD
:102B4000236813F0040F77D02F4B1B6C13F0805FBA
:102B500033D1002301932C4B1A6C42F080521A643B
:102B60001B6C03F080530193019B0125284B1B68CC
:102B700013F4807F23D0A368012B34D0052B38D0E9
:102B8000214B1A6F22F001021A671A6F22F0040219
:102B90001A67A368002B3DD000F090FC06461A4B44
:102BA0001B6F13F0020F46D100F088FC801B41F22E
:102BB00088339842F3D90320CFE00025D6E7144AA2
:102BC000136843F48073136000F078FC0646104BE2
:102BD0001B6813F4807FCED100F070FC801B0228AC
:102BE000F5D90320B9E0084A136F43F001031367D6
:102BF000CFE7054B1A6F42F004021A671A6F42F0D2
:102C000001021A67C5E700BF0038024000004742D2
:102C10000070004000F052FC0646584B1B6F13F04A
:102C2000020F08D000F04AFC801B41F28833984222
:102C3000F3D9032091E0EDB9A369002B00F08C805B
:102C40004E4A926802F00C02082A54D0022B17D088
:102C50004B4B00221A6600F031FC0446474B1B68C0
:102C600013F0007F45D000F029FC001B0228F5D9A5
:102C7000032072E0414A136C23F080531364DBE7B6
:102C80003F4B00221A6600F019FC05463B4B1B68BF
:102C900013F0007F06D000F011FC401B0228F5D98C
:102CA00003205AE0E369226A1343626A43EA82130B
:102CB000A26A5208013A43EA0243E26A43EA026323
:102CC000226B43EA02732D4A53602D4B01221A6690
:102CD00000F0F4FB0446294B1B6813F0007F06D17B
:102CE00000F0ECFB001B0228F5D9032035E00020A2
:102CF00033E0002031E0012B31D0204B5B6803F43E
:102D00008001E26991422CD103F03F02216A8A429C
:102D100029D1616A47F6C0721A40B2EB811F24D1F3
:102D200003F44031A26A5208013AB1EB024F1ED1BE
:102D300003F07062E16AB2EB016F1AD103F0E04375
:102D4000226BB3EB027F16D1002006E00120704712
:102D5000012002E0012000E0002002B070BD01204F
:102D6000FBE70120F9E70120F7E70120F5E7012063
:102D7000F3E70120F1E70120EFE700BF0038024050
:102D80000000474200230F2B00F2C68070B582B0CE
:102D900060E085685E000324B44025EA0405CC6841
:102DA000B4402C438460456825EA02054C68C4F3AE
:102DB00000129A402A4342605AE0DC08083450F876
:102DC000246003F0070295000F22AA4026EA020EB3
:102DD0000A69AA4042EA0E0240F824205CE002227E
:102DE00000E0002202FA0EF22A4302344B4D45F86D
:102DF00024204B4A94686FEA0C0224EA0C054E68C2
:102E000016F4801F01D04CEA0405454CA560E46827
:102E100002EA04054E6816F4001F01D04CEA0405CE
:102E20003F4CE560646802EA04054E6816F4003F12
:102E300001D04CEA04053A4C6560246822404D6894
:102E400015F4803F01D04CEA0402354C2260013376
:102E50000F2B5FD801229A400C6804EA020C32EA78
:102E60000404F4D14C6804F00304013C012C90D913
:102E70004A6802F00302032A09D0C4685D000322F5
:102E8000AA4024EA02048A68AA402243C2604A682F
:102E900002F00302022A90D004684FEA430E032294
:102EA00002FA0EF224EA02044A6802F0030202FA6D
:102EB0000EF2224302604A6812F4403FC7D000225B
:102EC0000192184A546C44F480445464526C02F4E5
:102ED00080420192019A9C08A51C104A52F8255084
:102EE00003F003024FEA820E0F2202FA0EF225EAE5
:102EF00002050D4A90423FF474AF02F580629042A1
:102F000006D002F5806290423FF469AF072269E77C
:102F1000012267E702B070BD704700BF0038014072
:102F2000003C014000380240000002400AB18161CB
:102F3000704709048161704730B405682C6824F437
:102F400080242C60046863608368402B05D003688C
:102F500099600368DA6030BC704703689A60036860
:102F6000D960F8E710B40368D9B210390C4AA2FB53
:102F7000014212090B4CA25CC2655F2909D923F4F6
:102F80007F7323F0030304338365806D5DF8044B86
:102F9000704723F47F7323F003038365F5E700BFD5
:102FA000ABAAAAAAD4840108836A826992B9012BC8
:102FB0000AD0022B02D00BB100207047C36A13F075
:102FC000807F28D100207047C36AB3F1C07F24D02E
:102FD00000207047B2F5005F09D0022B25D9032BE2
:102FE00025D1C36A13F0807F23D100207047032BC3
:102FF00003D8DFE803F01404140A00207047C36A02
:1030000013F0807F0DD100207047C36AB3F1C07FF9
:1030100009D000207047012070470120704701202F
:103020007047012070470120704701207047002041
:10303000704701207047000070B5044600F03EFA6A
:10304000002C5BD00546022384F83530002384F839
:1030500034302268136823F00103136023681A6870
:1030600012F0010F0AD000F029FA431B052BF5D905
:1030700020236365032084F8350070BD1A6820485A
:1030800010406168A2680A43E1680A4321690A4363
:1030900061690A43A1690A43E1690A43216A0A4353
:1030A0000243616A04291ED01A602668756925F0FA
:1030B0000705636A1D43042B07D1A36A1D43E36A16
:1030C0001BB12046FFF770FF90B975612046FFF7EE
:1030D00049FFE26D3F239340836000206065012338
:1030E00084F83530C9E7E16A206B01430A43DBE726
:1030F00040236365012084F83500BEE70120BCE76A
:103100003F8010F038B50446856D90F834000128F2
:103110002BD0012084F8340094F83500C0B2012887
:1031200004D0002384F83430022038BD022084F813
:103130003500002060652046FFF7FEFEE26D3F236C
:103140009340AB602268136843F016031360236C4E
:1031500023B12268136843F00803136022681368E0
:1031600043F0010313600020DFE70220DDE70000E9
:10317000F0B583B0044600230193724B1D68724B77
:10318000A3FB0535AD0A876D3E68C26D08239340E9
:10319000334210D003681A6812F0040F0BD01A687B
:1031A00022F004021A60C26D08239340BB60436D95
:1031B00043F001034365E26D01239340334209D09C
:1031C0002268526912F0800F04D0BB60636D43F037
:1031D00002036365E26D04239340334209D0226801
:1031E000126812F0020F04D0BB60636D43F0040359
:1031F0006365E26D10239340334224D02268126845
:1032000012F0080F1FD0BB6023681A6812F4802FD9
:103210000DD01B6813F4002F04D1236C9BB1204602
:10322000984710E0A36C73B1204698470BE01A68EA
:1032300012F4807F03D11A6822F008021A60236C0E
:103240000BB120469847E26D20239340334255D07E
:103250002268126812F0100F50D0BB6094F835301D
:10326000DBB2052B0ED023681A6812F4802F33D0FE
:103270001B6813F4002F2AD1636C002B3ED020462C
:1032800098473BE02268136823F016031360226816
:10329000536923F080035361236CA3B12268136840
:1032A00023F008031360E26D3F239340BB600123CA
:1032B00084F83530002384F83430236D002B3FD060
:1032C000204698473CE0A36C002BE7D1EBE7E36B8B
:1032D000A3B12046984711E01A6812F4807F09D103
:1032E0001A6822F010021A60012384F83530002396
:1032F00084F83430E36B0BB120469847636DFBB123
:10330000636D13F0010F17D0052384F83530226860
:10331000136823F001031360019B01330193AB4257
:1033200004D823681B6813F0010FF5D1012384F83A
:103330003530002384F83430E36C0BB120469847D5
:1033400003B0F0BD08000020B5814E1B074AD368CA
:1033500023F4E0631B041B0C000200F4E060034351
:1033600043F0BF6343F40033D360704700ED00E0E7
:1033700000B5194BDB68C3F30223C3F1070CBCF1A2
:10338000040F28BF4FF0040C03F1040EBEF1060F2A
:1033900018D9033B4FF0FF3E0EFA0CFC21EA0C015A
:1033A00099400EFA03F322EA0303194300280BDBCA
:1033B0000901C9B200F1604000F5614080F80013D6
:1033C0005DF804FB0023E5E700F00F000901C9B236
:1033D000024B1954F4E700BF00ED00E014ED00E0EB
:1033E000002807DB00F01F02400901239340024A36
:1033F00042F82030704700BF00E100E00138B0F132
:10340000807F0BD24FF0E0235861054AF02182F80B
:1034100023100020986107221A617047012070472D
:1034200000ED00E010B504460E4B18784FF47A73A7
:10343000B3FBF0F30C4A1068B0FBF3F0FFF7DEFFCC
:1034400068B90F2C01D901200AE0002221464FF073
:10345000FF30FFF78DFF054B1C60002000E00120CE
:1034600010BD00BF00000020080000200400002064
:1034700008B50B4B1A6842F400721A601A6842F4DD
:1034800080621A601A6842F480721A600320FFF7A3
:103490005DFF0F20FFF7C6FFFEF798FE002008BD76
:1034A000003C0240034A1168034B1B780B44136035
:1034B000704700BF6805002000000020014B18681D
:1034C000704700BF6805002000285AD010B5044698
:1034D000436A33B94368B3F5827F05D00023C361E3
:1034E00002E00023036143610023A36294F851309A
:1034F000002B40D0022384F851302268136823F057
:1035000040031360636803F48273A26802F4044208
:103510001343E26802F400621343226902F00202DC
:103520001343626902F001021343A26902F40072BC
:103530001343E26902F038021343226A02F0800268
:103540001343A26A02F40052216813430B60638B99
:1035500003F00403626A02F01002216813434B6017
:103560002268D36923F40063D361002060650123DE
:1035700084F8513010BD84F850302046FEF756FBD9
:10358000B8E701207047000030B4036A23F001035C
:103590000362036A4268846924F073040D682C4353
:1035A00023F0020C8B6843EA0C03104DA84203D0B1
:1035B00005F58065A84205D123F00803CD682B43AB
:1035C00023F00403094DA84203D005F58065A84205
:1035D00005D122F440724D692A438D692A43426025
:1035E00084614A684263036230BC70470000014056
:1035F00030B4036A23F480730362036A4268C469C7
:1036000024F0730C0C6844EA0C0523F400738C68F6
:1036100043EA0423114CA04203D004F58064A04285
:1036200006D123F40063CC6843EA042323F48063C7
:103630000A4CA04203D004F58064A04207D122F4D2
:1036400040524C6942EA04128C6942EA0412426018
:10365000C5614A68C263036230BC70470000014024
:1036600030B4036A23F480530362036A4468C26976
:1036700022F4E6420D6842EA052223F400538D68E5
:1036800043EA0533094DA84203D005F58065A842F9
:1036900004D124F480444D6944EA85144460C26135
:1036A0004A680264036230BC704700BF00000140FA
:1036B00090F83D30DBB2012B37D1022380F83D304A
:1036C0000268D36843F00103D3600368194A934248
:1036D00020D0B3F1804F1DD0A2F57C42934219D087
:1036E00002F58062934215D002F58062934211D0B8
:1036F00002F5784293420DD002F57052934209D000
:10370000A2F59432934205D01A6842F001021A6081
:10371000002070479A6802F00702062A07D01A684C
:1037200042F001021A60002070470120704700201B
:10373000704700BF000001400268D36823F0010316
:10374000D3600368196A41F21112114208D1196A53
:1037500040F24442114203D11A6822F001021A6079
:10376000012380F83D300020704770477047704754
:10377000704710B5044603681A6912F0020F11D0A1
:10378000DA6812F0020F0DD06FF002021A61012305
:10379000037703689B6913F0030F70D0FFF7E6FF10
:1037A0000023237723681A6912F0040F12D0DA6815
:1037B00012F0040F0ED06FF004021A610223237777
:1037C00023689B6913F4407F5FD02046FFF7CEFF4C
:1037D0000023237723681A6912F0080F12D0DA68E1
:1037E00012F0080F0ED06FF008021A61042323773D
:1037F0002368DB6913F0030F4ED02046FFF7B6FFB6
:103800000023237723681A6912F0100F12D0DA68A8
:1038100012F0100F0ED06FF010021A6108232377F8
:103820002368DB6913F4407F3DD02046FFF79EFFFD
:103830000023237723681A6912F0010F03D0DA6896
:1038400012F0010F36D123681A6912F0800F03D0ED
:10385000DA6812F0800F34D123681A6912F0400F31
:1038600003D0DA6812F0400F32D123681A6912F0DF
:10387000200F03D0DA6812F0200F30D110BDFFF70F
:1038800074FF2046FFF773FF8AE72046FFF76DFFBE
:103890002046FFF76CFF9BE72046FFF766FF2046B8
:1038A000FFF765FFACE72046FFF75FFF2046FFF715
:1038B0005EFFBDE76FF001021A612046FDF7E4FEEE
:1038C000C1E76FF080021A61204600F073FAC3E787
:1038D0006FF040021A612046FFF74AFFC5E76FF01C
:1038E00020021A61204600F064FAC7E70368304AF4
:1038F000904212D0B0F1804F0FD0A2F57C4290429E
:103900000BD002F58062904207D002F580629042AF
:1039100003D002F57842904203D123F070034A6845
:103920001343234A90422AD0B0F1804F27D0A2F50A
:103930007C42904223D002F5806290421FD002F573
:10394000806290421BD002F57842904217D002F577
:103950007052904213D002F5806290420FD002F56F
:10396000806290420BD0A2F59832904207D002F5C7
:103970008062904203D002F58062904203D123F42A
:103980004073CA68134323F080034A6913430360FA
:103990008B68C3620B688362054B984203D003F5C2
:1039A0008063984201D10B6903630123436170472F
:1039B0000000014040B310B5044690F83D30F3B12B
:1039C000022384F83D30214651F8040BFFF78EFFA7
:1039D000012384F8463084F83E3084F83F3084F880
:1039E000403084F8413084F8423084F8433084F821
:1039F000443084F8453084F83D30002010BD80F814
:103A00003C30FEF7D7F9DBE70120704740B310B533
:103A1000044690F83D30F3B1022384F83D3021464E
:103A200051F8040BFFF762FF012384F8463084F855
:103A30003E3084F83F3084F8403084F8413084F8D8
:103A4000423084F8433084F8443084F8453084F8B8
:103A50003D30002010BD80F83C30FEF771F9DBE707
:103A60000120704730B4036A23F010030362036A35
:103A70004468826922F4E6420D6842EA052223F096
:103A800020038D6843EA0513114DA84203D005F5C4
:103A90008065A84206D123F08003CD6843EA051370
:103AA00023F040030A4DA84203D005F58065A842E3
:103AB00007D124F440644D6944EA85048D6944EAE1
:103AC0008504446082614A688263036230BC704747
:103AD0000000014038B590F83C30012B66D0044618
:103AE0000D46012380F83C300C2A5AD8DFE802F05A
:103AF000075959591B5959593059595944000068A7
:103B0000FFF742FD2268936943F00803936122683E
:103B1000936923F0040393612268936929690B4335
:103B2000936100203EE00068FFF79CFF22689369E4
:103B300043F4006393612268936923F48063936183
:103B400022689369296943EA01239361002029E0EF
:103B50000068FFF74DFD2268D36943F00803D36185
:103B60002268D36923F00403D3612268D3692969E9
:103B70000B43D361002015E00068FFF771FD226858
:103B8000D36943F40063D3612268D36923F480636B
:103B9000D3612268D369296943EA0123D3610020F4
:103BA00000E00120002384F83C3038BD0220FCE70F
:103BB00001F01F01012303FA01FC036A23EA0C034D
:103BC0000362036A02FA01F10B43036270470000CB
:103BD00010B504460846002942D194F83E30DBB2C5
:103BE000013B18BF0123002B6ED1002851D10223C5
:103BF00084F83E30012201462068FFF7D9FF236890
:103C0000334A934203D002F58062934203D15A6C47
:103C100042F400425A6423682D4A934249D0B3F1DA
:103C2000804F46D0A2F57C42934242D002F580629A
:103C300093423ED002F5806293423AD002F5784238
:103C4000934236D002F57052934232D0A2F59432AC
:103C500093422ED01A6842F001021A60002032E02E
:103C6000042908D008290DD094F84130DBB2013B7B
:103C700018BF0123B7E794F83F30DBB2013B18BF10
:103C80000123B0E794F84030DBB2013B18BF0123B9
:103C9000A9E7042805D0082807D0022384F841307A
:103CA000A8E7022384F83F30A4E7022384F84030D9
:103CB000A0E79A6802F00702062A07D01A6842F0C5
:103CC00001021A60002010BD0120FCE70020FAE785
:103CD0000000014090F83C30012B3DD010B401238E
:103CE00080F83C30022380F83D3003685A689C68B5
:103CF00022F0700C0A6842EA0C025A600368174A04
:103D000093421AD0B3F1804F17D0A2F57C42934270
:103D100013D002F5806293420FD002F58062934285
:103D20000BD002F57842934207D002F570529342CD
:103D300003D0A2F59432934204D124F080044A685F
:103D400014439C60012380F83D30002380F83C3010
:103D500018465DF8044B7047022070470000014090
:103D600090F83C30012B22D0012380F83C30CB6806
:103D700023F440738A68134323F480634A6813432F
:103D800023F400630A68134323F480530A6913433E
:103D900023F400534A69134323F48043CA6913434D
:103DA00002685364002380F83C30184670470220B4
:103DB000704770477047000038B5044602681369C1
:103DC00023F44053C1680B431361836802691343B2
:103DD00042691343C2691A430168CB6823F416434E
:103DE00023F00C031343CB600268536923F4407340
:103DF00081690B4353610368314A934206D002F54F
:103E00008062934202D0FEF795FD01E0FEF7A2FD2D
:103E1000E369B3F5004F29D00021031849411B186D
:103E200041F10001C90041EA5371DB0018186368D1
:103E30004FEA83024FEA937341F10001FDF7A2FAC2
:103E4000204DA5FB00325109642303FB11031B0124
:103E50003233A5FB03235B0903F0F00202EB0112EE
:103E600003F00F03216813448B6038BD0023021850
:103E700043EB0301121841F10001C90041EA5271FC
:103E8000D200101841F10001626892185B41FDF701
:103E900079FA0C4DA5FB00325109642303FB110391
:103EA000DB003233A5FB03235B095A0002F4F872EE
:103EB00002EB011203F00703216813448B60D4E77F
:103EC000001001401F85EB5158B310B5044690F81F
:103ED0003D300BB3242384F83D302268D36823F4AB
:103EE0000053D3602046FFF767FF2268136923F46D
:103EF000904313612268536923F02A0353612268B7
:103F0000D36843F40053D36000202064202384F856
:103F10003D3084F83E3010BD80F83C30FEF702F9A9
:103F2000D8E7012070470000034AD2F8883043F4F4
:103F30007003C2F88830704700ED00E0DFF834D03D
:103F40000D480E490E4A002302E0D458C4500433F1
:103F5000C4188C42F9D30B4A0B4C002301E01360C8
:103F60000432A242FBD3FFF7DFFF00F011F8FDF7A8
:103F700085FC704700000420000000207000002035
:103F80009C8501087000002080050020FEE70000ED
:103F900070B50D4D0D4C641BA4100026A64209D12E
:103FA0000B4D0C4C01F05AF8641BA4100026A642DD
:103FB00005D170BD55F8043B98470136EEE755F83A
:103FC000043B98470136F2E794850108948501087F
:103FD000948501089885010802440346934200D164
:103FE000704703F8011BF9E70FB40A4B13B51C68BF
:103FF00024B1A36913B9204600F05EFA05AB049A18
:10400000A1680193204600F067FC02B0BDE81040B3
:1040100004B070470C00002070B50E46054618B17C
:1040200083690BB900F048FAAB69AC6813B928464C
:1040300000F042FA2C4B9C4220D16C68636EDB0787
:1040400005D4A389980502D4A06D00F0D3FAA38902
:1040500019071DD52369DBB1013EA36816F8011FBE
:10406000013BA36039BB002B38DA22460A212846DF
:1040700000F048F8013011D00A2511E01B4B9C429A
:1040800001D1AC68DAE71A4B9C4208BFEC68D5E76F
:104090002146284600F088F80028DDD04FF0FF3593
:1040A000636EDA0705D4A3899B0502D4A06D00F0E6
:1040B000A2FA284670BD002B04DAA2699A4206DCF7
:1040C0000A2904D023685A1C22601970C5E72246C9
:1040D000284600F017F80130BFD1DFE723680A2532
:1040E0005A1C22601D70DBE718850108388501081D
:1040F000F8840108024B01461868FFF78DBF00BF26
:104100000C000020F8B50E461446054618B1836928
:104110000BB900F0D1F9214B9C422BD16C68A369FB
:10412000A360A3891A072FD523696BB3236920687D
:10413000C01A6369F6B28342374604DC214628463A
:1041400000F026F930BBA368013BA36023685A1C2A
:1041500022601E7063690130834204D0A389DB07AB
:1041600006D50A2E04D12146284600F011F988B957
:104170003846F8BD0A4B9C4201D1AC68CFE7094BE9
:104180009C4208BFEC68CAE72146284600F00CF8BC
:104190000028CBD04FF0FF37EAE700BF18850108B1
:1041A00038850108F8840108324B70B51D68064651
:1041B0000C4625B1AB6913B9284600F07DF92E4BAA
:1041C0009C420FD16C68A389B4F90C2019072CD438
:1041D000DD0611D40923336042F04003A3814FF080
:1041E000FF303EE0254B9C4201D1AC68EBE7244B0D
:1041F0009C4208BFEC68E6E7580712D5616B41B1F5
:1042000004F14403994202D0304600F05BFA0023E7
:104210006363A38923F02403A381002363602369DC
:104220002360A38943F00803A38123694BB9A389C1
:1042300003F42073B3F5007F03D02146304600F02D
:1042400001FAA089B4F90C2010F001030AD0002370
:10425000A36063695B42A361236943B910F08000E6
:10426000BAD170BD810758BF6369A360F4E700202D
:10427000F7E700BF0C000020188501083885010809
:10428000F88401088A892DE9F041054610070C469B
:1042900058D44B68002B05DC0B6C002B02DC002093
:1042A000BDE8F081E66A002EF9D0002312F48052B6
:1042B0002F682B6032D0606DA3895A0705D56368DB
:1042C000C01A636B0BB1236CC01A00230246E66A66
:1042D000216A2846B047431CA38906D129681D29B5
:1042E0002CD82A4ACA40D60728D500226260D904B1
:1042F0002269226004D5421C01D12B6803B9606594
:10430000616B2F600029CAD004F14403994202D0A6
:10431000284600F0D7F900206063C1E7216A012335
:104320002846B047411CC7D12B68002BC4D01D2B99
:1043300001D0162B01D12F60B1E7A38943F04003D0
:10434000A381ADE70F69002FA9D093070E6808BFBE
:104350004B690F6018BF0023A6EB07088B60B8F10C
:10436000000F9CDD216AA66A43463A462846B047BC
:10437000002806DCA38943F04003A3814FF0FF30FF
:104380008EE70744A8EB0008E9E700BF01004020E2
:1043900038B50B6905460C4613B90025284638BDCB
:1043A00018B183690BB900F087F8144B9C421BD1FC
:1043B0006C68B4F90C30002BEFD0626ED00704D4D7
:1043C000990502D4A06D00F015F928462146FFF7A3
:1043D00059FF636EDA070546E0D4A3899B05DDD457
:1043E000A06D00F008F9D9E7054B9C4201D1AC68FB
:1043F000DFE7044B9C4208BFEC68DAE71885010848
:1044000038850108F8840108002310B50446C0E986
:104410000033C0E90433836081814366C2818361D4
:10442000194608225C30FFF7D7FD054B6362054B48
:10443000A362054BE362054B2462236310BD00BFFA
:10444000814E0008A34E0008DB4E0008FF4E000816
:10445000014900F0AFB800BF9143000870B5682271
:104460004D1E55430E4605F1740100F097F90446C0
:1044700040B10021C0E900160C30A06005F16802CF
:10448000FFF7AAFD204670BD014800F0B3B800BF99
:104490006D050020014800F0AEB800BF6D0500209A
:1044A000014800F0A7B800BF6E050020014800F0E9
:1044B000A2B800BF6E05002010B50446FFF7F0FF5C
:1044C000A3691BB1BDE81040FFF7F0BFC4E9123388
:1044D0002365134B134A1B68A262A34204BF012346
:1044E000A361204600F020F86060204600F01CF830
:1044F000A060204600F018F80022E0600421606807
:10450000FFF782FFA06801220921FFF77DFFE06825
:1045100002221221FFF778FF0123A361D2E700BF37
:10452000F484010851440008F8B50746FFF7ACFFD2
:104530001E4B1E68B36913B93046FFF7BDFF4836FE
:10454000D6E90134013B03D533680BB33668F7E78E
:10455000B4F90C50D5B9164BE36004F15800656608
:1045600000F047F8FFF796FFC4E90155C4E9045588
:104570002560A5610822294604F15C00FFF72CFDA7
:10458000C4E90D55C4E912552046F8BD6834D9E791
:1045900004213846FFF762FF044630600028D5D179
:1045A000FFF778FF0C233B60EEE700BFF4840108BF
:1045B0000100FFFF2DE9F8430646884600F1480454
:1045C0000027D4E90195B9F1010905D52468002C2B
:1045D000F7D13846BDE8F883AB89012B07D9B5F987
:1045E0000E30013303D029463046C04707436835B3
:1045F000E9E770477047704770B50E46B1F90E1085
:10460000002996B014461D4608DAB6F90C3000228F
:104610002A601A0610D44FF480630EE06A4600F058
:1046200095FC0028F1DB019A02F47042A2F50053D8
:104630005A425A412A60EEE740230020236016B018
:1046400070BD00008B8973B59D0706460C4607D5E3
:1046500004F14703236023610123636102B070BD4D
:1046600001AB6A46FFF7C8FF00990546304600F0E7
:1046700095F848B9B4F90C309A05EFD423F0030348
:1046800043F00203A381E3E70D4BB362A3892060EB
:1046900043F08003A381009B6361019B20615BB1B8
:1046A000B4F90E10304600F063FC28B1A38923F062
:1046B000030343F00103A381A0890543A581CDE74E
:1046C0005144000837B5002944D051F8043C01900A
:1046D000002BA1F10404B8BFE41800F06BFC1E4AE3
:1046E0000198136833B96360146003B0BDE83040CB
:1046F00000F066BCA34208D9256861198B4201BF4E
:1047000019685B6849192160EDE71A465B680BB1CF
:10471000A342FAD911685518A5420BD12468214447
:104720005418A3421160E0D11C685B6853602144B7
:104730001160DAE702D90C230360D6E72568611916
:104740008B4204BF19685B68636004BF491921602C
:104750005460CAE703B030BD7005002070B50E4E3E
:104760000C463168054611B900F07AFB30602146ED
:10477000284600F075FB431C0AD0C41C24F0030437
:10478000A04207D0211A284600F06AFB013001D16F
:104790004FF0FF34204670BD740500202DE9F04134
:1047A000CD1C25F0030508350C2D38BF0C25002D38
:1047B000074601DBA94205D90C233B6000263046A1
:1047C000BDE8F0812E4E00F0F5FB33681C4634BB8B
:1047D00029463846FFF7C2FF431C04464DD13468D2
:1047E0002646002E40D123683146384604EB0308A4
:1047F00000F036FB80453AD1216803356D1A25F06B
:10480000030508350C2D38BF0C2529463846FFF71F
:10481000A5FF01302BD023682B4423600EE02268D3
:10482000521B1ED40B2A16D96119A342256018BF4A
:104830005960636808BF316062514B60384604F1CB
:104840000B0600F0BDFB26F00706231DF21AB6D0BA
:104850009B1BA350B3E76268A3420CBF32605A604F
:10486000ECE723466468B2E734467668B9E70C2380
:104870003B60384600F0A4FBA1E72560DEE700BFFF
:10488000700500209368013B002B10B4936008DA98
:104890009469A34201DB0A2903D15DF8044BFFF7B9
:1048A00031BC1368581C1060197008465DF8044B41
:1048B0007047F8B506460F461446D518AC4201D1EC
:1048C000002007E014F8011B3A463046FFF7DAFFF4
:1048D000431CF3D1F8BD00002DE9F04F0D469DB00B
:1048E00014469846064618B183690BB9FFF7E4FDF4
:1048F000894B9D421BD175686B6ED90705D4AB8976
:104900009A0502D4A86DFFF775FEAB891B0701D588
:104910002B69EBB929463046FFF746FCC0B16B6EF8
:10492000DC070ED54FF0FF301DB0BDE8F08F7B4B9C
:104930009D4201D1B568DFE7794B9D4208BFF5681C
:10494000DAE7AB899805EDD4A86DFFF754FEE9E7E7
:104950000023099320238DF82930CDF80C803023D3
:10496000DFF8C0818DF82A304FF0010923469A46BE
:1049700013F8012B0AB1252AF9D1BAEB040B0BD09D
:104980005B46224629463046FFF793FF013000F090
:10499000AA80099A5A4409929AF80030002B00F034
:1049A000A28000234FF0FF32CDE905230AF1010A6E
:1049B000049307938DF853301A935446052214F844
:1049C000011B5848FBF724FC049AD8B9D10644BF10
:1049D00020238DF85330130744BF2B238DF8533019
:1049E0009AF800302A2B15D0079A544600204FF031
:1049F0000A0C214611F8013B303B092B4ED9B0B1CE
:104A0000079214E0A0EB080309FA03F3134304939D
:104A1000A246D2E7039B191D1B680391002BBBBF65
:104A20005B4242F0020207930793B8BF04922378D7
:104A30002E2B0CD163782A2B35D1039B1A1D1B68B2
:104A40000392002BB8BF4FF0FF3302340593DFF819
:104A5000E4A0217803225046FBF7DAFB40B1402363
:104A6000A0EB0A0003FA00F0049B03430134049313
:104A700014F8011B2C488DF828100622FBF7C8FB00
:104A800000283FD0294B1BBB039B073323F00703B0
:104A900008330393099B3B44099367E70CFB0232FD
:104AA0000C460120A5E700230134059319464FF079
:104AB0000A0C204610F8012B303A092A03D9002BA2
:104AC000C5D00591C3E70CFB012104460123F0E7A3
:104AD00003AB00932A46164B04A93046AFF300807F
:104AE0000746781CD6D16B6ED90705D4AB899A05D9
:104AF00002D4A86DFFF77FFDAB895B063FF512AFCF
:104B0000099811E703AB00932A46094B04A93046E4
:104B100000F080F8E4E700BF188501083885010837
:104B2000F88401085885010862850108000000002A
:104B3000B34800085E8501082DE9F04716469946FE
:104B40008A680B69DDF820809342B8BF1346336052
:104B500091F8432007460C460AB1013333602368BD
:104B6000990642BF336802333360256815F00605A5
:104B700006D104F1190AE36832689B1AAB4226DCBD
:104B800094F84320131E226818BF012392062BD4E9
:104B900004F1430249463846C04701301ED023681D
:104BA000E568326803F00603042B08BFAD1AA3685A
:104BB00022690CBF25EAE57500259342C4BF9B1A04
:104BC000ED1800261A34B5421AD1002008E001235E
:104BD000524649463846C047013003D14FF0FF30B6
:104BE000BDE8F0870135C6E7E1185A1C302081F88E
:104BF0004300224494F8451082F843100233C7E77B
:104C00000123224649463846C0470130E6D00136E6
:104C1000D9E700002DE9FF470F7E0C9D782F9146C4
:104C200080460C469A4601F1430207D8622F0AD803
:104C3000002F00F0D880582F00F0A38004F1420527
:104C400084F842703AE0A7F16303152BF6D801A16E
:104C500051F823F0AD4C0008C14C00083D4C000851
:104C60003D4C00083D4C00083D4C0008C14C00087C
:104C70003D4C00083D4C00083D4C00083D4C0008F0
:104C8000CD4D0008F14C0008AF4D00083D4C000828
:104C90003D4C0008EF4D00083D4C0008F14C000869
:104CA0003D4C00083D4C0008B74D00082B681A1D0C
:104CB0001B682A6004F1420584F842300123A3E016
:104CC00020682968060601F104030AD50E682B60E6
:104CD000002E03DA2D23764284F843305E480A23FF
:104CE00019E00E682B6010F0400F18BF36B2EFE7E6
:104CF0002B682068191D2960010601D51E6802E095
:104D00004606FBD51E8854486F2F0CBF08230A2384
:104D1000002184F843106568A560002DA2BF2168BA
:104D200021F0040121600EB9002D4DD01546B6FBCF
:104D3000F3F103FB1167C75D05F8017D3746BB4200
:104D40000E46F4D9082B0BD12368DE0708D523695A
:104D500061689942DEBF302305F8013C05F1FF355B
:104D6000521B2261CDF800A04B4603AA21464046C3
:104D7000FFF7E2FE01304CD14FF0FF3004B0BDE848
:104D8000F087354881F845702968236851F8046B2D
:104D900029601D0614D5DF0744BF43F020032360BC
:104DA0001EB9236823F0200323601023B0E7236893
:104DB00043F0200323607823284884F84530E3E754
:104DC000590648BFB6B2E6E71546BBE72B6826682A
:104DD0006169181D286035061B6801D5196002E05D
:104DE0007006FBD51980002323611546BAE72B68AE
:104DF0001A1D2A601D68626800212846FBF708FA20
:104E000008B1401B606063682361002384F843306D
:104E1000A8E723692A4649464046D0470130ABD02F
:104E200023689B0713D4E068039B9842B8BF1846D9
:104E3000A4E70123324649464046D04701309BD083
:104E40000135E36803995B1AAB42F2DCEBE700251E
:104E500004F11906F5E700BF698501087A850108A4
:104E600038B5064D0023044608462B6000F0E8F8EC
:104E7000431C02D12B6803B1236038BD78050020A4
:104E800010B50C46B1F90E1000F0A0F80028ABBF29
:104E9000636DA3891B1823F48053ACBF6365A381A2
:104EA00010BD2DE9F0411F468B89DB0505460C46F8
:104EB000164605D5B1F90E100223002200F068F85D
:104EC000A389B4F90E1023F48053A38132463B46E4
:104ED0002846BDE8F04100F017B810B50C46B1F90E
:104EE0000E1000F055F8431CA38915BF606523F42C
:104EF000805343F48053A38118BFA38110BDB1F93F
:104F00000E1000F013B8000038B5074D04460846EF
:104F1000114600222A601A46FCF738FC431C02D1D5
:104F20002B6803B1236038BD7805002038B5064DE5
:104F30000023044608462B6000F05AF8431C02D1B7
:104F40002B6803B1236038BD7805002038B5074DC4
:104F500000230446084611462B6000F051F8431C1C
:104F600002D12B6803B1236038BD00BF7805002053
:104F700038B5064D0023044608462B6000F048F87B
:104F8000431C02D12B6803B1236038BD7805002093
:104F900038B5074D04460846114600222A601A46D5
:104FA00000F03EF8431C02D12B6803B1236038BDEA
:104FB000780500200148FFF71DBB00BF6C050020ED
:104FC0000148FFF718BB00BF6C05002038B5074D3E
:104FD00004460846114600222A601A4600F028F8C6
:104FE000431C02D12B6803B1236038BD7805002033
:104FF000024B58221A604FF0FF30704778050020AE
:10500000024B58221A604FF0FF307047780500209D
:10501000024B58221A600020704700BF780500201C
:10502000024B58221A604FF0FF307047780500207D
:10503000024B58221A604FF0FF307047780500206D
:10504000044A05491368002B08BF0B46184410603A
:10505000184670477C05002080050020F8B500BF89
:10506000F8BC08BC9E467047F8B500BFF8BC08BC49
:045070009E467047A1
:105074000000803F000000005E836C3F15EFC33EDC
:10508400F304353FF304353F15EFC33E5E836C3FB5
:10509400000000000000803F15EFC3BE5E836C3F3C
:1050A400F30435BFF304353F5E836CBF15EFC33E95
:1050B400000080BF000000005E836CBF15EFC3BE1C
:1050C400F30435BFF30435BF15EFC3BE5E836CBF75
:1050D40000000080000080BF15EFC33E5E836CBFFC
:1050E400F304353FF30435BF5E836C3F15EFC3BE55
:1050F4000000803F00000000BE147B3FC2C5473E55
:105104005E836C3F15EFC33E31DB543FDA390E3F0B
:10511400F304353FF304353FDA390E3F31DB543FB6
:1051240015EFC33E5E836C3FC2C5473EBE147B3F52
:10513400000000000000803FC2C547BEBE147B3F94
:1051440015EFC3BE5E836C3FDA390EBF31DB543FCB
:10515400F30435BFF304353F31DB54BFDA390E3F76
:105164005E836CBF15EFC33EBE147BBFC2C5473E12
:10517400000080BF00000000BE147BBFC2C547BE54
:105184005E836CBF15EFC3BE31DB54BFDA390EBF8B
:10519400F30435BFF30435BFDA390EBF31DB54BF36
:1051A40015EFC3BE5E836CBFC2C547BEBE147BBFD2
:1051B40000000080000080BFC2C5473EBE147BBF14
:1051C40015EFC33E5E836CBFDA390E3F31DB54BF4B
:1051D400F304353FF30435BF31DB543FDA390EBFF6
:1051E4005E836C3F15EFC3BEBE147B3FC2C547BE92
:1051F4000000803F000000006DC47E3F36BDC83D06
:10520400BE147B3FC2C5473E0BFA743F31A0943EA7
:105214005E836C3F15EFC33E98C5613FEA5AF13E89
:1052240031DB543FDA390E3F03E4453F9967223FAF
:10523400F304353FF304353F9967223F03E4453FC8
:10524400DA390E3F31DB543FEA5AF13E98C5613FEB
:1052540015EFC33E5E836C3F31A0943E0BFA743F5E
:10526400C2C5473EBE147B3F36BDC83D6DC47E3FBC
:10527400000000000000803F36BDC8BD6DC47E3F05
:10528400C2C547BEBE147B3F31A094BE0BFA743F27
:1052940015EFC3BE5E836C3FEA5AF1BE98C5613F09
:1052A400DA390EBF31DB543F996722BF03E4453F2F
:1052B400F30435BFF304353F03E445BF9967223F48
:1052C40031DB54BFDA390E3F98C561BFEA5AF13E6B
:1052D4005E836CBF15EFC33E0BFA74BF31A0943EDE
:1052E400BE147BBFC2C5473E6DC47EBF36BDC83D3C
:1052F400000080BF000000006DC47EBF36BDC8BD85
:10530400BE147BBFC2C547BE0BFA74BF31A094BEA6
:105314005E836CBF15EFC3BE98C561BFEA5AF1BE88
:1053240031DB54BFDA390EBF03E445BF996722BFAE
:10533400F30435BFF30435BF996722BF03E445BFC7
:10534400DA390EBF31DB54BFEA5AF1BE98C561BFEA
:1053540015EFC3BE5E836CBF31A094BE0BFA74BF5D
:10536400C2C547BEBE147BBF36BDC8BD6DC47EBFBB
:1053740000000080000080BF36BDC83D6DC47EBF04
:10538400C2C5473EBE147BBF31A0943E0BFA74BF26
:1053940015EFC33E5E836CBFEA5AF13E98C561BF08
:1053A400DA390E3F31DB54BF9967223F03E445BF2E
:1053B400F304353FF30435BF03E4453F996722BF47
:1053C40031DB543FDA390EBF98C5613FEA5AF1BE6A
:1053D4005E836C3F15EFC3BE0BFA743F31A094BEDD
:1053E400BE147B3FC2C547BE6DC47E3F36BDC8BD3B
:1053F4000000803F000000000FB17F3F2FFB483DBD
:105404006DC47E3F36BDC83DAC3A7D3F8340163EF9
:10541400BE147B3FC2C5473EF853783FCCCF783E9D
:105424000BFA743F31A0943E0809713FD47CAC3E22
:105434005E836C3F15EFC33ED86B673F80E8DA3E6E
:1054440098C5613FEA5AF13E1A945B3F3D9C033F85
:1054540031DB543FDA390E3F029F4D3FC07F183F86
:1054640003E4453F9967223FF9AE3D3F4AEB2B3FAA
:10547400F304353FF304353F4AEB2B3FF9AE3D3F90
:105484009967223F03E4453FC07F183F029F4D3F89
:10549400DA390E3F31DB543F3D9C033F1A945B3FA6
:1054A400EA5AF13E98C5613F80E8DA3ED86B673F1F
:1054B40015EFC33E5E836C3FD47CAC3E0809713F5C
:1054C40031A0943E0BFA743FCCCF783EF853783F2A
:1054D400C2C5473EBE147B3F8340163EAC3A7D3F77
:1054E40036BDC83D6DC47E3F2FFB483D0FB17F3FA5
:1054F400000000000000803F2FFB48BD0FB17F3F3C
:1055040036BDC8BD6DC47E3F834016BEAC3A7D3FF8
:10551400C2C547BEBE147B3FCCCF78BEF853783F9C
:1055240031A094BE0BFA743FD47CACBE0809713F21
:1055340015EFC3BE5E836C3F80E8DABED86B673F6D
:10554400EA5AF1BE98C5613F3D9C03BF1A945B3F84
:10555400DA390EBF31DB543FC07F18BF029F4D3F85
:10556400996722BF03E4453F4AEB2BBFF9AE3D3FA9
:10557400F30435BFF304353FF9AE3DBF4AEB2B3F8F
:1055840003E445BF9967223F029F4DBFC07F183F88
:1055940031DB54BFDA390E3F1A945BBF3D9C033FA5
:1055A40098C561BFEA5AF13ED86B67BF80E8DA3E1E
:1055B4005E836CBF15EFC33E080971BFD47CAC3E5B
:1055C4000BFA74BF31A0943EF85378BFCCCF783E29
:1055D400BE147BBFC2C5473EAC3A7DBF8340163E76
:1055E4006DC47EBF36BDC83D0FB17FBF2FFB483DA4
:1055F400000080BF000000000FB17FBF2FFB48BD3B
:105604006DC47EBF36BDC8BDAC3A7DBF834016BEF7
:10561400BE147BBFC2C547BEF85378BFCCCF78BE9B
:105624000BFA74BF31A094BE080971BFD47CACBE20
:105634005E836CBF15EFC3BED86B67BF80E8DABE6C
:1056440098C561BFEA5AF1BE1A945BBF3D9C03BF83
:1056540031DB54BFDA390EBF029F4DBFC07F18BF84
:1056640003E445BF996722BFF9AE3DBF4AEB2BBFA8
:10567400F30435BFF30435BF4AEB2BBFF9AE3DBF8E
:10568400996722BF03E445BFC07F18BF029F4DBF87
:10569400DA390EBF31DB54BF3D9C03BF1A945BBFA4
:1056A400EA5AF1BE98C561BF80E8DABED86B67BF1D
:1056B40015EFC3BE5E836CBFD47CACBE080971BF5A
:1056C40031A094BE0BFA74BFCCCF78BEF85378BF28
:1056D400C2C547BEBE147BBF834016BEAC3A7DBF75
:1056E40036BDC8BD6DC47EBF2FFB48BD0FB17FBFA3
:1056F40000000080000080BF2FFB483D0FB17FBF3A
:1057040036BDC83D6DC47EBF8340163EAC3A7DBFF6
:10571400C2C5473EBE147BBFCCCF783EF85378BF9A
:1057240031A0943E0BFA74BFD47CAC3E080971BF1F
:1057340015EFC33E5E836CBF80E8DA3ED86B67BF6B
:10574400EA5AF13E98C561BF3D9C033F1A945BBF82
:10575400DA390E3F31DB54BFC07F183F029F4DBF83
:105764009967223F03E445BF4AEB2B3FF9AE3DBFA7
:10577400F304353FF30435BFF9AE3D3F4AEB2BBF8D
:1057840003E4453F996722BF029F4D3FC07F18BF86
:1057940031DB543FDA390EBF1A945B3F3D9C03BFA3
:1057A40098C5613FEA5AF1BED86B673F80E8DABE1C
:1057B4005E836C3F15EFC3BE0809713FD47CACBE59
:1057C4000BFA743F31A094BEF853783FCCCF78BE27
:1057D400BE147B3FC2C547BEAC3A7D3F834016BE74
:1057E4006DC47E3F36BDC8BD0FB17F3F2FFB48BDA2
:1057F4000000803F0000000043EC7F3FB00AC93C3A
:105804000FB17F3F2FFB483D6D4E7F3F05A9963D6D
:105814006DC47E3F36BDC83D24137E3F73B2FA3D4E
:10582400AC3A7D3F8340163E283B7C3FA2102F3E7E
:10583400BE147B3FC2C5473E9DC7793F135C603EA3
:10584400F853783FCCCF783E07BA763F938E883EA4
:105854000BFA743F31A0943E4714733FE59AA03E7F
:105864000809713FD47CAC3E9ED86E3F2A44B83EB2
:105874005E836C3F15EFC33EA7096A3FCA7BCF3EE8
:10588400D86B673F80E8DA3E59AA643F7533E63E39
:1058940098C5613FEA5AF13E05BE5E3F275DFC3E76
:1058A4001A945B3F3D9C033F5348583F9BF5083F88
:1058B40031DB543FDA390E3F3D4D513F2A68133FE7
:1058C400029F4D3FC07F183F12D1493FD17F1D3FFA
:1058D40003E4453F9967223F70D8413F5636273F3E
:1058E400F9AE3D3F4AEB2B3F4268393FBB85303F21
:1058F400F304353FF304353FBB85303F4268393FFD
:105904004AEB2B3FF9AE3D3F5636273F70D8413F17
:105914009967223F03E4453FD17F1D3F12D1493FA0
:10592400C07F183F029F4D3F2A68133F3D4D513FB2
:10593400DA390E3F31DB543F9BF5083F5348583F5B
:105944003D9C033F1A945B3F275DFC3E05BE5E3FD2
:10595400EA5AF13E98C5613F7533E63E59AA643F61
:1059640080E8DA3ED86B673FCA7BCF3EA7096A3F1F
:1059740015EFC33E5E836C3F2A44B83E9ED86E3F0B
:10598400D47CAC3E0809713FE59AA03E4714733FAE
:1059940031A0943E0BFA743F938E883E07BA763F4B
:1059A400CCCF783EF853783F135C603E9DC7793F77
:1059B400C2C5473EBE147B3FA2102F3E283B7C3F0E
:1059C4008340163EAC3A7D3F73B2FA3D24137E3FCA
:1059D40036BDC83D6DC47E3F05A9963D6D4E7F3FE3
:1059E4002FFB483D0FB17F3FB00AC93C43EC7F3FDA
:1059F400000000000000803FB00AC9BC43EC7F3FB8
:105A04002FFB48BD0FB17F3F05A996BD6D4E7F3F6B
:105A140036BDC8BD6DC47E3F73B2FABD24137E3F4C
:105A2400834016BEAC3A7D3FA2102FBE283B7C3F7C
:105A3400C2C547BEBE147B3F135C60BE9DC7793FA1
:105A4400CCCF78BEF853783F938E88BE07BA763FA2
:105A540031A094BE0BFA743FE59AA0BE4714733F7D
:105A6400D47CACBE0809713F2A44B8BE9ED86E3FB0
:105A740015EFC3BE5E836C3FCA7BCFBEA7096A3FE6
:105A840080E8DABED86B673F7533E6BE59AA643F37
:105A9400EA5AF1BE98C5613F275DFCBE05BE5E3F74
:105AA4003D9C03BF1A945B3F9BF508BF5348583F86
:105AB400DA390EBF31DB543F2A6813BF3D4D513FE5
:105AC400C07F18BF029F4D3FD17F1DBF12D1493FF8
:105AD400996722BF03E4453F563627BF70D8413F3C
