:020000040800F2
:1000000000000420D9240008690D00086B0D0008C9
:100010006D0D00086F0D0008710D00080000000054
:10002000000000000000000000000000730D000848
:10003000750D000800000000770D0008790D00081C
:100040002925000829250008292500082925000858
:100050002925000829250008292500082925000848
:100060002925000829250008292500082925000838
:100070002925000829250008292500082925000828
:100080002925000829250008292500082925000818
:100090002925000829250008292500082925000808
:1000A00029250008292500082925000829250008F8
:1000B00029250008292500082925000829250008E8
:1000C00029250008292500082925000829250008D8
:1000D00029250008292500082925000829250008C8
:1000E00029250008292500082925000829250008B8
:1000F00029250008292500082925000829250008A8
:1001000000000000292500082925000829250008ED
:100110000000000000000000292500082925000833
:10012000810D000829250008292500082925000837
:100130002925000829250008292500082925000867
:100140002925000829250008292500082925000857
:100150002925000829250008292500082925000847
:1001600029250008292500080000000000000000E3
:10017000000000000000000000000000000000007F
:1001800029250008292500080000000000000000C3
:1001900029250008292500080000000000000000B3
:1001A000000000000000000000000000000000004F
:1001B00000000000000000000000000029250008E9
:0401C00029250008E5
:1001C40010B5054C237833B9044B13B10448AFF38D
:1001D40000800123237010BD700000200000000087
:1001E400EC2F000808B5034B1BB103490348AFF3D8
:1001F400008008BD0000000074000020EC2F0008FF
:1002040053B94AB9002908BF00281CBF4FF0FF3179
:100214004FF0FF3000F074B9ADF1080C6DE904CE75
:1002240000F006F8DDF804E0DDE9022304B07047CD
:100234002DE9F047089D04468E46002B4DD18A4295
:10024400944669D9B2FA82F252B101FA02F3C2F1C8
:10025400200120FA01F10CFA02FC41EA030E944059
:100264004FEA1C48210CBEFBF8F61FFA8CF708FB7A
:1002740016E341EA034306FB07F199420AD91CEB52
:10028400030306F1FF3080F01F81994240F21C8184
:10029400023E63445B1AA4B2B3FBF8F008FB1033CC
:1002A40044EA034400FB07F7A7420AD91CEB040401
:1002B40000F1FF3380F00A81A74240F207816444D1
:1002C400023840EA0640E41B00261DB1D440002356
:1002D400C5E900433146BDE8F0878B4209D9002DBA
:1002E40000F0EF800026C5E9000130463146BDE844
:1002F400F087B3FA83F6002E4AD18B4202D38242AE
:1003040000F2F980841A61EB030301209E46002D5C
:10031400E0D0C5E9004EDDE702B9FFDEB2FA82F2B1
:10032400002A40F09280A1EB0C014FEA1C471FFA0F
:100334008CFE0126200CB1FBF7F307FB131140EAF6
:1003440001410EFB03F0884208D91CEB010103F1C3
:10035400FF3802D2884200F2CB804346091AA4B285
:10036400B1FBF7F007FB101144EA01440EFB00FE59
:10037400A64508D91CEB040400F1FF3102D2A645BE
:1003840000F2BB800846A4EB0E0440EA03409CE75D
:10039400C6F12007B34022FA07FC4CEA030C20FA0A
:1003A40007F401FA06F31C43F9404FEA1C4900FA2A
:1003B40006F3B1FBF9F8200C1FFA8CFE09FB1811A7
:1003C40040EA014108FB0EF0884202FA06F20BD91A
:1003D4001CEB010108F1FF3A80F08880884240F26A
:1003E4008580A8F102086144091AA4B2B1FBF9F0AE
:1003F40009FB101144EA014100FB0EFE8E4508D9A9
:100404001CEB010100F1FF346CD28E456AD902382D
:10041400614440EA0840A0FB0294A1EB0E01A14212
:10042400C846A64656D353D05DB1B3EB080261EB80
:100434000E0101FA07F722FA06F3F1401F43C5E95A
:10044400007100263146BDE8F087C2F12003D84090
:100454000CFA02FC21FA03F3914001434FEA1C47D2
:100464001FFA8CFEB3FBF7F007FB10360B0C43EAC4
:10047400064300FB0EF69E4204FA02F408D91CEB74
:10048400030300F1FF382FD29E422DD90238634472
:100494009B1B89B2B3FBF7F607FB163341EA034112
:1004A40006FB0EF38B4208D91CEB010106F1FF3861
:1004B40016D28B4214D9023E6144C91A46EA004658
:1004C40038E72E46284605E70646E3E61846F8E6EA
:1004D4004B45A9D2B9EB020864EB0C0E0138A3E733
:1004E4004646EAE7204694E74046D1E7D0467BE714
:1004F400023B614432E7304609E76444023842E78C
:10050400704700BF10464FF0000C0AE000BF4FF0E8
:1005140060431B68002BF9D04FF060431A700CF154
:10052400010C844510DA11F8012B4FF06043D3F825
:10053400803E13F0010FF2D04FF06043D3F8003E39
:1005440013F0010FE3D1EAE7704772B6FEE700004B
:1005540000B595B03422002107A802F009F8002361
:100564000293039304930593069300931F4A116C1B
:1005740041F080511164126C02F080520092009A92
:1005840001931B4B1A6842F440421A601B6803F43F
:1005940040430193019B012307934FF4A023089345
:1005A40002230D934FF480020E920A220F926422CA
:1005B400109211931293139307A800F0BDFE88B90B
:1005C4000F23029302230393002304934FF48052D6
:1005D40005920693032102A800F0D8FD20B915B0B6
:1005E4005DF804FBFFF7B1FFFFF7AFFF00380240EF
:1005F4000070004008B501F0D1FBFFF7A9FF00F03F
:1006040019F800F055F900F091F900F081F800F0C4
:1006140069F900F055FB00F099FA00F007FB044873
:1006240002F01CF84FF47A7001F0E4FBF7E700BF26
:10063400043000082DE9F0418AB0002405940694A2
:1006440007940894099401942D4B1A6B42F0040208
:100654001A631A6B02F004020192019A02941A6B53
:1006640042F080021A631A6B02F080020292029A2C
:1006740003941A6B42F001021A631A6B02F001022E
:100684000392039A04941A6B42F002021A631B6BDE
:1006940003F002030493049BDFF8708022464FF4B6
:1006A4006041404601F024F9164F224601213846A4
:1006B40001F01EF9144E22463521304601F018F996
:1006C4004FF460430593012506950794089405A902
:1006D400404601F039F8059506950794089405A954
:1006E400384601F031F835230593069507940894AC
:1006F40005A9304601F028F80AB0BDE8F08100BF32
:100704000038024000000240000402400008024099
:1007140000B585B0002300930193029303932C4802
:100724002C4A02604FF480324260836001220261ED
:10073400027680F82030C36227498162C3600521B4
:10074400C16180F83020436100F0D6FB68BB01230F
:10075400009301930223029369461D4800F0F8FBBD
:1007640030BB0223009301936946194800F0F0FB63
:1007740008BB0323009301936946154800F0E8FB86
:10078400E0B90423009301936946114800F0E0FBAB
:10079400B8B9092300930523019369460C4800F076
:1007A400D7FB88B905B05DF804FBFFF7CEFECEE7B2
:1007B400FFF7CBFED5E7FFF7C8FEDAE7FFF7C5FE84
:1007C400DFE7FFF7C2FEE4E7FFF7BFFEEAE700BF9B
:1007D4008C000020002001400100000F70B588B09B
:1007E400002303930493059306930793026803F18C
:1007F400804303F590339A4201D008B070BD04469B
:100804000025009503F58C335A6C42F480725A64C7
:100814005A6C02F480720092009A01951A6B42F0AD
:1008240001021A631A6B02F001020192019A029505
:100834001A6B42F002021A631B6B03F00203029369
:10084400029B1E2303930326049603A9144800F075
:100854007BFF022303930496059503A9114800F036
:1008640073FF1148114B036045608560C5604FF408
:10087400806303614FF4006343614FF40053836169
:100884004FF48073C3610562456201F0A1F818B9A1
:10089400054BA3639C63B0E7FFF757FEF8E700BF7F
:1008A4000000024000040240D40000201064024012
:1008B40000B583B000210191094B1A6B42F4800208
:1008C4001A631B6B03F480030193019B0A463820CF
:1008D40001F0E4F9382001F019FA03B05DF804FBE3
:1008E4000038024008B50F480F4B03604FF4827381
:1008F4004360002383604FF40062C26003610122FD
:1009040042614FF4007282611822C2610362436241
:1009140083620A23C36201F081FA00B908BDFFF7BC
:1009240014FEFBE7340100200030014008B50F48F5
:100934000F4B03604FF48273436000238360C360F2
:1009440002220261012242614FF40072826110228C
:10095400C2610362436283620A23C36201F05EFAE6
:1009640000B908BDFFF7F1FDFBE700BF8C010020D3
:100974000038004000B58BB000230593069307931D
:10098400089309930368284A934205D0274A93425F
:1009940025D00BB05DF804FB00210191244B5A6C67
:1009A40042F480525A645A6C02F480520192019AC1
:1009B40002911A6B42F001021A631B6B03F00103EC
:1009C4000293029BE02305930223069303230893D7
:1009D4000523099305A9174800F0B6FED9E70021BD
:1009E4000391134B1A6C42F480421A641A6C02F499
:1009F40080420392039A04911A6B42F002021A6332
:100A04001B6B03F002030493049B4FF460430593B0
:100A140002230693032308930523099305A9064893
:100A240000F092FEB5E700BF0030014000380040FE
:100A340000380240000002400004024082B0036813
:100A4400104A934204D0B3F1804F0ED002B07047E5
:100A5400002300930C4B5A6C42F001025A645B6C05
:100A640003F001030093009BF0E700230193064B7E
:100A74001A6C42F001021A641B6C03F00103019327
:100A8400019BE3E7000001400038024070B588B0E4
:100A94000023039304930593069307930368274A5B
:100AA400934204D0B3F1804F19D008B070BD002335
:100AB4000093234B1A6B42F001021A631B6B03F081
:100AC40001030093009B4FF4E06303930223049318
:100AD4000123079303A91B4800F036FEE5E7002431
:100AE400019403F50E331A6B42F002021A631A6B77
:100AF40002F002020192019A02941A6B42F001027E
:100B04001A631B6B03F001030293029B4FF480638F
:100B14000393022604960125079503A90A4800F0C9
:100B240013FE4FF40043039304960594069407952B
:100B340003A9044800F008FEB7E700BF0000014025
:100B440000380240000002400004024010B592B098
:100B540000241094119409940A940B940C940D9409
:100B64000E940F942022214601A801F001FD2D4886
:100B74002D4B036040F2F3134360846040F2CF7363
:100B8400C36004614461846101F0A0FA002836D195
:100B940000231093119310A9224801F069FB002847
:100BA40030D16023099300220A920B920C920D9289
:100BB4000E920F9209A91B4801F0ECFA28BB0422FB
:100BC40009A9184801F0E6FA10BB082209A915483A
:100BD40001F0E0FAF8B9002301930293039304931C
:100BE40005934FF400520692089301A90D4801F0B1
:100BF40085FB98B90B48FFF749FF12B010BDFFF70A
:100C0400A4FCC5E7FFF7A1FCCBE7FFF79EFCD6E702
:100C1400FFF79BFCD9E7FFF798FCDCE7FFF795FCAF
:100C2400E8E700BFE40100200000014000B58BB0FC
:100C34000023089309930193029303930493059368
:100C4400069307931D484FF08042026040F2F3126E
:100C54004260836040F2CF72C2600361836101F03D
:100C640035FAF0B900230893099308A9134801F051
:100C7400FFFAC8B9602301930022029203920592FD
:100C840001A90E4801F086FA88B9082201A90B4887
:100C940001F080FA70B90948FFF7F8FE0BB05DF86F
:100CA40004FBFFF752FCDDE7FFF74FFCE2E7FFF739
:100CB4004CFCEAE7FFF749FCEDE700BF2C020020FB
:100CC40008B50A480A4B03604FF4E133436000233C
:100CD4008360C36003610C2242618361C36101F0DC
:100CE400BFFB00B908BDFFF730FCFBE7740200202E
:100CF4000014014000B589B00023039304930593C5
:100D0400069307930268154B9A4202D009B05DF826
:100D140004FB0021019103F592335A6C42F0200246
:100D24005A645A6C02F020020192019A02911A6BE1
:100D340042F001021A631B6B03F001030293029B4E
:100D44004FF4C0530393022304930323069308230D
:100D5400079303A9024800F0F7FCD7E70014014009
:100D640000000240FEE7FEE7FEE7FEE7FEE770470D
:100D74007047704708B501F02BF808BD08B5024864
:100D840000F08CFE08BD00BFD400002082B000211A
:100D940000910B4B5A6C42F480425A645A6C02F430
:100DA40080420092009A01911A6C42F080521A64B7
:100DB4001B6C03F080530193019B02B0704700BF8A
:100DC400003802404A4B5A6822F440325A605A684A
:100DD40041680A435A600268536823F4807353607D
:100DE40002685368016943EA012353600268536847
:100DF40023F0407353600268536881680B43536067
:100E04000268936823F40063936002689368C1687E
:100E14000B439360826A374B9A4257D002689368B7
:100E240023F07063936002689368816A0B43936054
:100E34000268936823F04053936002689368C16A20
:100E44000B4393600268936823F002039360026883
:100E54009368017E43EA4103936090F82030002BAD
:100E64003FD00268536843F40063536002685368D8
:100E740023F46043536001684B68426A013A43EAD1
:100E840042334B600268D36A23F47003D36201686F
:100E9400CB6AC269013A43EA0253CB62026893689F
:100EA40023F4007393600268936890F8301043EA67
:100EB400412393600268936823F48063936002681B
:100EC4009368416943EA8123936070470268936899
:100ED40023F0706393600268936823F04053936037
:100EE400B0E70268536823F400635360CAE700BFA5
:100EF400002301400100000F38B310B50446036C11
:100F040043B1236C13F0100F0BD00120002384F89D
:100F14003C3010BDFFF762FC0023636484F83C306E
:100F2400EFE7236C23F4885323F0020343F0020316
:100F340023642046FFF746FF00206064236C23F0FF
:100F4400030343F001032364E0E70120704700003A
:100F540030B482B00023019390F83C30012B00F0B0
:100F6400BB80012380F83C300B68092B41D904680D
:100F7400E2689BB203EB43031E3B4FF0070C0CFAF1
:100F840003F322EA0303E3600468E2680B8803EBDB
:100F940043031E3B8D6805FA03F31343E3604B6878
:100FA400062B3DD80468626B03EB8303053B4FF0CB
:100FB4001F0C0CFA03F322EA030363630468626BF5
:100FC4004B6803EB8303053BB1F800C00CFA03F351
:100FD400134363630268414B9A4251D002683F4B0A
:100FE4009A4256D0002380F83C30184602B030BCF8
:100FF4007047046822699BB203EB43034FF0070C6C
:101004000CFA03F322EA03032361046822690B88C0
:1010140003EB43038D6805FA03F313432361BEE72F
:101024000C2B16D805682A6B03EB8303233B1F2480
:1010340004FA03F322EA03032B6305682A6B4B6863
:1010440003EB8303233B0C8804FA03F313432B635E
:10105400C0E70568EA6A03EB8303413B1F2404FAF3
:1010640003F322EA0303EB620568EA6A4B6803EBC5
:101074008303413B0C8804FA03F31343EB62A9E7AF
:101084000B68122BAAD1164A536843F480035360A9
:10109400A4E70B68103B012BA4D8114A536843F40E
:1010A400000353600B68102B9CD10E4B1B6802F19C
:1010B400467202F52E3202F28332A2FB03239B0C0A
:1010C40003EB83035B00019302E0019B013B01936B
:1010D400019B002BF9D185E7022087E7002001401E
:1010E400002301400800002008B5254B9B6803F04D
:1010F4000C03042B3FD0082B3FD1214B5A6802F03C
:101104003F025B6813F4800F12D01D4B5968C1F382
:1011140088111C480023A1FB0001FFF771F8184B4C
:101124005B68C3F3014301335B00B0FBF3F025E0DC
:10113400134B5968C1F3881C4FEA4C11B1EB0C00F6
:101144006EEB0E0E4FEA8E1343EA90638101091A87
:1011540063EB0E03DB0043EA5173C90011EB0C0C83
:1011640043F10003990200234FEA8C2041EA9C5189
:10117400FFF746F8D3E7034800E0034808BD00BF83
:1011840000380240002D31010024F400002800F052
:101194009B8070B50D4604464F4B1B6803F0070354
:1011A4008B4208D2CBB24C4A1370136803F0070386
:1011B4008B4240F08B80236813F0020F17D013F09A
:1011C400040F04D0454A936843F4E05393602368C2
:1011D40013F0080F04D0414A936843F460439360CA
:1011E4003E4A936823F0F003A1680B43936023689D
:1011F40013F0010F32D06368012B21D09A1E012A0B
:1012040025D9364A126812F0020F61D033498A6830
:1012140022F0030213438B6000F0E6FD06462F4BD9
:101224009B6803F00C036268B3EB820F16D000F0E6
:10123400DBFD801B41F288339842F0D9032042E061
:10124400264A126812F4003FE0D101203BE0234A11
:10125400126812F0007FD9D1012034E01E4B1B68C4
:1012640003F00703AB4207D9EAB21B4B1A701B68A1
:1012740003F00703AB422DD1236813F0040F06D00B
:10128400164A936823F4E053E1680B4393602368A0
:1012940013F0080F07D0114A936823F460432169BF
:1012A40043EAC1039360FFF71FFF0C4B9B68C3F332
:1012B40003130B4AD35CD8400A4B18600A4B1868D6
:1012C40000F046FD002070BD012070470120FAE7C0
:1012D4000120F8E70120F6E7003C02400038024014
:1012E400183000080800002004000020014B186892
:1012F400704700BF0800002008B5FFF7F7FF044B54
:101304009B68C3F38223034AD35CD84008BD00BF63
:10131400003802402830000808B5FFF7E7FF044B07
:101324009B68C3F34233034AD35CD84008BD00BF73
:101334000038024028300008002800F0E98170B528
:1013440082B00446036813F0010F3BD09F4B9B68A7
:1013540003F00C03042B2CD09C4B9B6803F00C0370
:10136400082B21D06368B3F5803F4FD0B3F5A02F8D
:1013740052D0964B1A6822F480321A601A6822F40A
:1013840080221A606368002B50D000F02DFD0546C2
:101394008E4B1B6813F4003F14D100F025FD401B55
:1013A4006428F5D90320BAE1884B5B6813F4800FF5
:1013B400D8D0864B1B6813F4003F03D06368002B1E
:1013C40000F0A881236813F0020F54D07F4B9B6870
:1013D40013F00C0F3ED07D4B9B6803F00C03082BDD
:1013E40033D0E368002B68D0794B01221A6000F0F7
:1013F400FBFC0546754B1B6813F0020F54D100F03B
:10140400F3FC401B0228F5D9032088E16F4A1368D6
:1014140043F480331360B5E76C4B1A6842F48022BE
:101424001A601A6842F480321A60ABE700F0DCFC00
:101434000546664B1B6813F4003FC3D000F0D4FC90
:10144400401B6428F5D9032069E1604B5B6813F401
:10145400800FC6D15D4B1B6813F0020F03D0E36805
:10146400012B40F05981594A136823F0F80321698C
:1014740043EAC1031360236813F0080F42D0636981
:101484006BB3534B0122C3F8802E00F0ADFC05462C
:101494004E4B5B6F13F0020F34D100F0A5FC401BE0
:1014A4000228F5D903203AE1484A136823F0F803E7
:1014B400216943EAC1031360DDE7454B00221A604A
:1014C40000F092FC0546414B1B6813F0020FD2D08A
:1014D40000F08AFC401B0228F5D903201FE13C4B95
:1014E4000022C3F8802E00F07FFC0546374B5B6F6B
:1014F40013F0020F06D000F077FC401B0228F5D948
:1015040003200CE1236813F0040F77D02F4B1B6CDE
:1015140013F0805F33D1002301932C4B1A6C42F0FB
:1015240080521A641B6C03F080530193019B0125C4
:10153400284B1B6813F4807F23D0A368012B34D07D
:10154400052B38D0214B1A6F22F001021A671A6F4B
:1015540022F004021A67A368002B3DD000F044FC7B
:1015640006461A4B1B6F13F0020F46D100F03CFCE9
:10157400801B41F288339842F3D90320CFE0002541
:10158400D6E7144A136843F48073136000F02CFC0C
:101594000646104B1B6813F4807FCED100F024FC68
:1015A400801B0228F5D90320B9E0084A136F43F0E1
:1015B40001031367CFE7054B1A6F42F004021A6761
:1015C4001A6F42F001021A67C5E700BF00380240F3
:1015D400000047420070004000F006FC0646584BED
:1015E4001B6F13F0020F08D000F0FEFB801B41F2CA
:1015F40088339842F3D9032091E0EDB9A369002B15
:1016040000F08C804E4A926802F00C02082A54D0F2
:10161400022B17D04B4B00221A6600F0E5FB044660
:10162400474B1B6813F0007F45D000F0DDFB001B27
:101634000228F5D9032072E0414A136C23F0805349
:101644001364DBE73F4B00221A6600F0CDFB05462E
:101654003B4B1B6813F0007F06D000F0C5FB401B1A
:101664000228F5D903205AE0E369226A1343626A27
:1016740043EA8213A26A5208013A43EA0243E26A45
:1016840043EA0263226B43EA02732D4A53602D4BF3
:1016940001221A6600F0A8FB0446294B1B6813F0CC
:1016A400007F06D100F0A0FB001B0228F5D903201F
:1016B40035E0002033E0002031E0012B31D0204B15
:1016C4005B6803F48001E26991422CD103F03F028C
:1016D400216A8A4229D1616A47F6C0721A40B2EB84
:1016E400811F24D103F44031A26A5208013AB1EBBC
:1016F400024F1ED103F07062E16AB2EB016F1AD19E
:1017040003F0E043226BB3EB027F16D1002006E026
:1017140001207047012002E0012000E0002002B017
:1017240070BD0120FBE70120F9E70120F7E7012064
:10173400F5E70120F3E70120F1E70120EFE700BF1F
:10174400003802400000474200230F2B00F2C680FD
:1017540070B582B060E085685E000324B44025EA79
:101764000405CC68B4402C438460456825EA02052E
:101774004C68C4F300129A402A4342605AE0DC08E1
:10178400083450F8246003F0070295000F22AA40A1
:1017940026EA020E0A69AA4042EA0E0240F8242010
:1017A4005CE0022200E0002202FA0EF22A43023434
:1017B4004B4D45F824204B4A94686FEA0C0224EA06
:1017C4000C054E6816F4801F01D04CEA0405454C04
:1017D400A560E46802EA04054E6816F4001F01D00F
:1017E4004CEA04053F4CE560646802EA04054E686F
:1017F40016F4003F01D04CEA04053A4C65602468B5
:1018040022404D6815F4803F01D04CEA0402354C67
:10181400226001330F2B5FD801229A400C6804EA3E
:10182400020C32EA0404F4D14C6804F00304013CD1
:10183400012C90D94A6802F00302032A09D0C46833
:101844005D000322AA4024EA02048A68AA402243D3
:10185400C2604A6802F00302022A90D004684FEA88
:10186400430E032202FA0EF224EA02044A6802F04A
:10187400030202FA0EF2224302604A6812F4403F65
:10188400C7D000220192184A546C44F48044546432
:10189400526C02F480420192019A9C08A51C104AE1
:1018A40052F8255003F003024FEA820E0F2202FA87
:1018B4000EF225EA02050D4A90423FF474AF02F598
:1018C4008062904206D002F5806290423FF469AF94
:1018D400072269E7012267E702B070BD704700BFC5
:1018E40000380140003C0140003802400000024042
:1018F4000AB18161704709048161704710B40368BB
:10190400D9B210390C4AA2FB014212090B4CA25C59
:10191400C2655F2909D923F47F7323F003030433D9
:101924008365806D5DF8044B704723F47F7323F067
:1019340003038365F5E700BFABAAAAAA1030000829
:10194400836A826992B9012B0AD0022B02D00BB1AF
:1019540000207047C36A13F0807F28D100207047AD
:10196400C36AB3F1C07F24D000207047B2F5005F92
:1019740009D0022B25D9032B25D1C36A13F0807F0C
:1019840023D100207047032B03D8DFE803F01404AD
:10199400140A00207047C36A13F0807F0DD1002021
:1019A4007047C36AB3F1C07F09D00020704701209B
:1019B40070470120704701207047012070470120C3
:1019C40070470120704700207047012070470000D5
:1019D40070B5044600F008FA002C5BD005460223DB
:1019E40084F83530002384F834302268136823F0F7
:1019F4000103136023681A6812F0010F0AD000F083
:101A0400F3F9431B052BF5D920236365032084F8E0
:101A1400350070BD1A68204810406168A2680A4306
:101A2400E1680A4321690A4361690A43A1690A43D7
:101A3400E1690A43216A0A430243616A04291ED008
:101A44001A602668756925F00705636A1D43042B2F
:101A540007D1A36A1D43E36A1BB12046FFF770FF59
:101A640090B975612046FFF749FFE26D3F2393402B
:101A7400836000206065012384F83530C9E7E16A9A
:101A8400206B01430A43DBE740236365012084F8AC
:101A94003500BEE70120BCE73F8010F0F0B583B00D
:101AA400044600230193724B1D68724BA3FB05355A
:101AB400AD0A876D3E68C26D08239340334210D04F
:101AC40003681A6812F0040F0BD01A6822F004029B
:101AD4001A60C26D08239340BB60436D43F0010359
:101AE4004365E26D01239340334209D02268526971
:101AF40012F0800F04D0BB60636D43F00203636592
:101B0400E26D04239340334209D02268126812F034
:101B1400020F04D0BB60636D43F004036365E26DA0
:101B240010239340334224D02268126812F0080F25
:101B34001FD0BB6023681A6812F4802F0DD01B6875
:101B440013F4002F04D1236C9BB12046984710E076
:101B5400A36C73B1204698470BE01A6812F4807F97
:101B640003D11A6822F008021A60236C0BB12046D4
:101B74009847E26D20239340334255D0226812687F
:101B840012F0100F50D0BB6094F83530DBB2052B47
:101B94000ED023681A6812F4802F33D01B6813F414
:101BA400002F2AD1636C002B3ED0204698473BE09F
:101BB4002268136823F0160313602268536923F024
:101BC40080035361236CA3B12268136823F00803D4
:101BD4001360E26D3F239340BB60012384F83530EA
:101BE400002384F83430236D002B3FD020469847DF
:101BF4003CE0A36C002BE7D1EBE7E36BA3B12046F9
:101C0400984711E01A6812F4807F09D11A6822F00B
:101C140010021A60012384F83530002384F834302C
:101C2400E36B0BB120469847636DFBB1636D13F012
:101C3400010F17D0052384F835302268136823F088
:101C440001031360019B01330193AB4204D8236861
:101C54001B6813F0010FF5D1012384F835300023FC
:101C640084F83430E36C0BB12046984703B0F0BDE0
:101C740008000020B5814E1B074AD36823F4E063B3
:101C84001B041B0C000200F4E060034343F0BF6339
:101C940043F40033D360704700ED00E000B5194B06
:101CA400DB68C3F30223C3F1070CBCF1040F28BFA4
:101CB4004FF0040C03F1040EBEF1060F18D9033BD8
:101CC4004FF0FF3E0EFA0CFC21EA0C0199400EFA8B
:101CD40003F322EA0303194300280BDB0901C9B209
:101CE40000F1604000F5614080F800135DF804FBEA
:101CF4000023E5E700F00F000901C9B2024B1954B3
:101D0400F4E700BF00ED00E014ED00E0002807DB7D
:101D140000F01F02400901239340024A42F8203098
:101D2400704700BF00E100E00138B0F1807F0BD2C2
:101D34004FF0E0235861054AF02182F82310002077
:101D4400986107221A6170470120704700ED00E096
:101D540010B504460E4B18784FF47A73B3FBF0F3C6
:101D64000C4A1068B0FBF3F0FFF7DEFF68B90F2CE4
:101D740001D901200AE0002221464FF0FF30FFF78D
:101D84008DFF054B1C60002000E0012010BD00BF4A
:101D940000000020080000200400002008B50B4BC0
:101DA4001A6842F400721A601A6842F480621A6077
:101DB4001A6842F480721A600320FFF75DFF0F2057
:101DC400FFF7C6FFFEF7E2FF002008BD003C02401B
:101DD400034A1168034B1B780B441360704700BF20
:101DE400B802002000000020014B1868704700BFB3
:101DF400B802002038B50446FFF7F6FF0546B4F1F3
:101E0400FF3F02D0044B1B781C44FFF7EDFF401B3F
:101E1400A042FAD338BD00BF0000002000285AD0E9
:101E240010B50446436A33B94368B3F5827F05D0DD
:101E34000023C36102E00023036143610023A36222
:101E440094F85130002B40D0022384F8513022689A
:101E5400136823F040031360636803F48273A26879
:101E640002F404421343E26802F400621343226959
:101E740002F002021343626902F001021343A269F1
:101E840002F400721343E26902F038021343226A37
:101E940002F080021343A26A02F400522168134341
:101EA4000B60638B03F00403626A02F01002216882
:101EB40013434B602268D36923F40063D361002089
:101EC4006065012384F8513010BD84F850302046F9
:101ED400FEF750FDB8E701207047000030B4036AF4
:101EE40023F001030362036A4268846924F07304E3
:101EF4000D682C4323F0020C8B6843EA0C03104D4D
:101F0400A84203D005F58065A84205D123F0080353
:101F1400CD682B4323F00403094DA84203D005F5F3
:101F24008065A84205D122F440724D692A438D6927
:101F34002A43426084614A684263036230BC70474A
:101F44000000014030B4036A23F480730362036A1F
:101F54004268C46924F0730C0C6844EA0C0523F449
:101F640000738C6843EA0423114CA04203D004F5A7
:101F74008064A04206D123F40063CC6843EA0423BE
:101F840023F480630A4CA04203D004F58064A04289
:101F940007D122F440524C6942EA04128C6942EAA5
:101FA40004124260C5614A68C263036230BC704770
:101FB4000000014030B4036A23F480530362036ACF
:101FC4004468C26922F4E6420D6842EA052223F419
:101FD40000538D6843EA0533094DA84203D005F543
:101FE4008065A84204D124F480444D6944EA8514F0
:101FF4004460C2614A680264036230BC704700BF37
:10200400000001400368304A904212D0B0F1804F82
:102014000FD0A2F57C4290420BD002F58062904230
:1020240007D002F58062904203D002F578429042D4
:1020340003D123F070034A681343234A90422AD001
:10204400B0F1804F27D0A2F57C42904223D002F514
:10205400806290421FD002F5806290421BD002F54C
:102064007842904217D002F57052904213D002F594
:10207400806290420FD002F5806290420BD0A2F5AC
:102084009832904207D002F58062904203D002F564
:102094008062904203D123F44073CA68134323F04F
:1020A40080034A69134303608B68C3620B688362CD
:1020B400054B984203D003F58063984201D10B6924
:1020C40003630123436170470000014040B310B52E
:1020D400044690F83D30F3B1022384F83D302146A4
:1020E40051F8040BFFF78EFF012384F8463084F87F
:1020F4003E3084F83F3084F8403084F8413084F82E
:10210400423084F8433084F8443084F8453084F80D
:102114003D30002010BD80F83C30FEF78FFCDBE73B
:102124000120704730B4036A23F010030362036A8A
:102134004468826922F4E6420D6842EA052223F0EB
:1021440020038D6843EA0513114DA84203D005F519
:102154008065A84206D123F08003CD6843EA0513C5
:1021640023F040030A4DA84203D005F58065A84238
:1021740007D124F440644D6944EA85048D6944EA36
:102184008504446082614A688263036230BC70479C
:102194000000014038B590F83C30012B66D004466D
:1021A4000D46012380F83C300C2A5AD8DFE802F0AF
:1021B400075959591B5959593059595944000068FC
:1021C400FFF78CFE2268936943F008039361226849
:1021D400936923F0040393612268936929690B438B
:1021E400936100203EE00068FFF79CFF226893693A
:1021F40043F4006393612268936923F480639361D9
:1022040022689369296943EA01239361002029E044
:102214000068FFF797FE2268D36943F00803D3618F
:102224002268D36923F00403D3612268D36929693E
:102234000B43D361002015E00068FFF7BBFE226862
:10224400D36943F40063D3612268D36923F48063C0
:10225400D3612268D369296943EA0123D361002049
:1022640000E00120002384F83C3038BD0220FCE764
:1022740090F83C30012B3DD010B4012380F83C3061
:10228400022380F83D3003685A689C6822F0700C81
:102294000A6842EA0C025A600368174A93421AD049
:1022A400B3F1804F17D0A2F57C42934213D002F5CC
:1022B400806293420FD002F5806293420BD002F504
:1022C4007842934207D002F57052934203D0A2F5AC
:1022D4009432934204D124F080044A6814439C60ED
:1022E400012380F83D30002380F83C3018465DF827
:1022F400044B7047022070470000014090F83C30C6
:10230400012B22D0012380F83C30CB6823F44073A6
:102314008A68134323F480634A68134323F40063F5
:102324000A68134323F480530A69134323F40053C4
:102334004A69134323F48043CA691343026853640C
:10234400002380F83C301846704702207047000094
:1023540038B504460268136923F44053C1680B433B
:10236400136183680269134342691343C2691A43C0
:102374000168CB6823F4164323F00C031343CB60AA
:102384000268536923F4407381690B435361036802
:10239400314A934206D002F58062934202D0FEF79E
:1023A400ABFF01E0FEF7B8FFE369B3F5004F29D0B6
:1023B4000021031849411B1841F10001C90041EAF9
:1023C4005371DB00181863684FEA83024FEA937372
:1023D40041F10001FDF714FF204DA5FB0032510926
:1023E400642303FB11031B013233A5FB03235B09A5
:1023F40003F0F00202EB011203F00F03216813440F
:102404008B6038BD0023021843EB0301121841F11D
:102414000001C90041EA5271D200101841F10001D3
:10242400626892185B41FDF7EBFE0C4DA5FB003290
:102434005109642303FB1103DB003233A5FB03239F
:102444005B095A0002F4F87202EB011203F007036D
:10245400216813448B60D4E7001001401F85EB51C1
:1024640058B310B5044690F83D300BB3242384F8D8
:102474003D302268D36823F40053D3602046FFF72D
:1024840067FF2268136923F4904313612268536938
:1024940023F02A0353612268D36843F40053D360C2
:1024A40000202064202384F83D3084F83E3010BDA1
:1024B40080F83C30FEF71EFCD8E70120704700008E
:1024C400034AD2F8883043F47003C2F88830704766
:1024D40000ED00E0DFF834D00D480E490E4A002329
:1024E40002E0D458C4500433C4188C42F9D30B4AC4
:1024F4000B4C002301E013600432A242FBD3FFF72C
:10250400DFFF00F011F8FEF775F8704700000420B3
:102514000000002070000020A4300008700000209B
:10252400D0020020FEE7000070B50D4D0D4C641B79
:10253400A4100026A64209D10B4D0C4C00F054FD0A
:10254400641BA4100026A64205D170BD55F8043BB7
:1025540098470136EEE755F8043B98470136F2E711
:102564009C3000089C3000089C300008A030000813
:1025740002440346934200D1704703F8011BF9E774
:1025840070B50E46054618B183690BB900F048FAD8
:10259400AB69AC6813B9284600F042FA2C4B9C4254
:1025A40020D16C68636EDB0705D4A389980502D437
:1025B400A06D00F0D3FAA38919071DD52369DBB1F7
:1025C400013EA36816F8011F013BA36039BB002B31
:1025D40038DA22460A21284600F048F8013011D0A2
:1025E4000A2511E01B4B9C4201D1AC68DAE71A4B77
:1025F4009C4208BFEC68D5E72146284600F088F8DD
:102604000028DDD04FF0FF35636EDA0705D4A389C7
:102614009B0502D4A06D00F0A2FA284670BD002BE1
:1026240004DAA2699A4206DC0A2904D023685A1CF7
:1026340022601970C5E72246284600F017F80130D9
:10264400BFD1DFE723680A255A1C22601D70DBE72F
:10265400543000087430000834300008024B01463E
:102664001868FFF78DBF00BF0C000020F8B50E46B8
:102674001446054618B183690BB900F0D1F9214B12
:102684009C422BD16C68A369A360A3891A072FD538
:1026940023696BB323692068C01A6369F6B2834265
:1026A400374604DC2146284600F026F930BBA368EF
:1026B400013BA36023685A1C22601E7063690130C9
:1026C400834204D0A389DB0706D50A2E04D1214610
:1026D400284600F011F988B93846F8BD0A4B9C42E7
:1026E40001D1AC68CFE7094B9C4208BFEC68CAE74C
:1026F4002146284600F00CF80028CBD04FF0FF37D5
:10270400EAE700BF54300008743000083430000891
:10271400324B70B51D6806460C4625B1AB6913B93A
:10272400284600F07DF92E4B9C420FD16C68A3899A
:10273400B4F90C2019072CD4DD0611D40923336015
:1027440042F04003A3814FF0FF303EE0254B9C4212
:1027540001D1AC68EBE7244B9C4208BFEC68E6E788
:10276400580712D5616B41B104F14403994202D078
:10277400304600F05BFA00236363A38923F024034B
:10278400A3810023636023692360A38943F00803C2
:10279400A38123694BB9A38903F42073B3F5007FA4
:1027A40003D02146304600F001FAA089B4F90C2088
:1027B40010F001030AD00023A36063695B42A361A4
:1027C400236943B910F08000BAD170BD810758BFA6
:1027D4006369A360F4E70020F7E700BF0C00002062
:1027E4005430000874300008343000088A892DE918
:1027F400F041054610070C4658D44B68002B05DC05
:102804000B6C002B02DC0020BDE8F081E66A002E90
:10281400F9D0002312F480522F682B6032D0606DFF
:10282400A3895A0705D56368C01A636B0BB1236C7F
:10283400C01A00230246E66A216A2846B047431CB0
:10284400A38906D129681D292CD82A4ACA40D6074B
:1028540028D500226260D9042269226004D5421C72
:1028640001D12B6803B96065616B2F600029CAD060
:1028740004F14403994202D0284600F0D7F900201D
:102884006063C1E7216A01232846B047411CC7D1D0
:102894002B68002BC4D01D2B01D0162B01D12F6027
:1028A400B1E7A38943F04003A381ADE70F69002F8B
:1028B400A9D093070E6808BF4B690F6018BF0023A7
:1028C400A6EB07088B60B8F1000F9CDD216AA66AAD
:1028D40043463A462846B047002806DCA38943F01D
:1028E4004003A3814FF0FF308EE70744A8EB0008B4
:1028F400E9E700BF0100402038B50B6905460C46E6
:1029040013B90025284638BD18B183690BB900F006
:1029140087F8144B9C421BD16C68B4F90C30002B23
:10292400EFD0626ED00704D4990502D4A06D00F0F4
:1029340015F928462146FFF759FF636EDA07054665
:10294400E0D4A3899B05DDD4A06D00F008F9D9E794
:10295400054B9C4201D1AC68DFE7044B9C4208BFA5
:10296400EC68DAE7543000087430000834300008AA
:10297400002310B50446C0E90033C0E90433836082
:1029840081814366C2818361194608225C30FFF766
:10299400EFFD054B6362054BA362054BE362054BF8
:1029A4002462236310BD00BF112E0008332E0008DB
:1029B4006B2E00088F2E0008014900F0AFB800BF4D
:1029C400FD28000870B568224D1E55430E4605F1DA
:1029D400740100F097F9044640B10021C0E90016E3
:1029E4000C30A06005F16802FFF7C2FD204670BDFF
:1029F400014800F0B3B800BFBD020020014800F058
:102A0400AEB800BFBD020020014800F0A7B800BF67
:102A1400BE020020014800F0A2B800BFBE020020A0
:102A240010B50446FFF7F0FFA3691BB1BDE81040E1
:102A3400FFF7F0BFC4E912332365134B134A1B6835
:102A4400A262A34204BF0123A361204600F020F840
:102A54006060204600F01CF8A060204600F018F8E2
:102A64000022E06004216068FFF782FFA068012271
:102A74000921FFF77DFFE06802221221FFF778FFAA
:102A84000123A361D2E700BF30300008BD2900084C
:102A9400F8B50746FFF7ACFF1E4B1E68B36913B9C0
:102AA4003046FFF7BDFF4836D6E90134013B03D574
:102AB40033680BB33668F7E7B4F90C50D5B9164B45
:102AC400E36004F15800656600F047F8FFF796FFED
:102AD400C4E90155C4E904552560A56108222946C5
:102AE40004F15C00FFF744FDC4E90D55C4E9125537
:102AF4002046F8BD6834D9E704213846FFF762FF61
:102B0400044630600028D5D1FFF778FF0C233B60E2
:102B1400EEE700BF303000080100FFFF2DE9F84365
:102B24000646884600F148040027D4E90195B9F126
:102B3400010905D52468002CF7D13846BDE8F8838F
:102B4400AB89012B07D9B5F90E30013303D02946DF
:102B54003046C04707436835E9E770477047704718
:102B640070B50E46B1F90E10002996B014461D46F4
:102B740008DAB6F90C3000222A601A0610D44FF491
:102B840080630EE06A4600F0A7F90028F1DB019AA1
:102B940002F47042A2F500535A425A412A60EEE709
:102BA40040230020236016B070BD00008B8973B5EC
:102BB4009D0706460C4607D504F1470323602361AD
:102BC4000123636102B070BD01AB6A46FFF7C8FF21
:102BD40000990546304600F095F848B9B4F90C3030
:102BE4009A05EFD423F0030343F00203A381E3E740
:102BF4000D4BB362A389206043F08003A381009B43
:102C04006361019B20615BB1B4F90E10304600F0A2
:102C140075F928B1A38923F0030343F00103A381C9
:102C2400A0890543A581CDE7BD29000837B5002952
:102C340044D051F8043C0190002BA1F10404B8BF26
:102C4400E41800F07DF91E4A0198136833B96360F3
:102C5400146003B0BDE8304000F078B9A34208D94D
:102C6400256861198B4201BF19685B6849192160A5
:102C7400EDE71A465B680BB1A342FAD911685518FF
:102C8400A5420BD1246821445418A3421160E0D119
:102C94001C685B68536021441160DAE702D90C2395
:102CA4000360D6E7256861198B4204BF19685B6825
:102CB400636004BF491921605460CAE703B030BDA2
:102CC400C002002070B50E4E0C463168054611B99D
:102CD40000F08CF830602146284600F087F8431C49
:102CE4000AD0C41C24F00304A04207D0211A2846A9
:102CF40000F07CF8013001D14FF0FF34204670BD64
:102D0400C40200202DE9F041CD1C25F0030508354F
:102D14000C2D38BF0C25002D074601DBA94205D92F
:102D24000C233B6000263046BDE8F0812E4E00F0B7
:102D340007F933681C4634BB29463846FFF7C2FFFF
:102D4400431C04464DD134682646002E40D12368E6
:102D54003146384604EB030800F048F880453AD180
:102D6400216803356D1A25F0030508350C2D38BF8D
:102D74000C2529463846FFF7A5FF01302BD02368E0
:102D84002B4423600EE02268521B1ED40B2A16D952
:102D94006119A342256018BF5960636808BF316098
:102DA40062514B60384604F10B0600F0CFF826F070
:102DB4000706231DF21AB6D09B1BA350B3E7626823
:102DC400A3420CBF32605A60ECE723466468B2E762
:102DD40034467668B9E70C233B60384600F0B6F811
:102DE400A1E72560DEE700BFC002002038B5064D2C
:102DF4000023044608462B6000F0E8F8431C02D187
:102E04002B6803B1236038BDC802002010B50C46FE
:102E1400B1F90E1000F0A0F80028ABBF636DA389D0
:102E24001B1823F48053ACBF6365A38110BD2DE947
:102E3400F0411F468B89DB0505460C46164605D531
:102E4400B1F90E100223002200F068F8A389B4F946
:102E54000E1023F48053A38132463B462846BDE836
:102E6400F04100F017B810B50C46B1F90E1000F09F
:102E740055F8431CA38915BF606523F4805343F4BC
:102E84008053A38118BFA38110BDB1F90E1000F0C7
:102E940013B8000038B5074D044608461146002211
:102EA4002A601A46FDF72EFB431C02D12B6803B19E
:102EB400236038BDC802002038B5064D00230446FF
:102EC40008462B6000F05AF8431C02D12B6803B16A
:102ED400236038BDC802002038B5074D00230446DE
:102EE400084611462B6000F051F8431C02D12B68B0
:102EF40003B1236038BD00BFC802002038B5064DB9
:102F04000023044608462B6000F048F8431C02D115
:102F14002B6803B1236038BDC802002038B5074DC3
:102F240004460846114600222A601A4600F03EF87C
:102F3400431C02D12B6803B1236038BDC8020020B2
:102F44000148FFF70BBE00BFBC0200200148FFF799
:102F540006BE00BFBC02002038B5074D0446084633
:102F6400114600222A601A4600F028F8431C02D1B8
:102F74002B6803B1236038BDC8020020024B5822DD
:102F84001A604FF0FF307047C8020020024B5822ED
:102F94001A604FF0FF307047C8020020024B5822DD
:102FA4001A600020704700BFC8020020024B58225C
:102FB4001A604FF0FF307047C8020020024B5822BD
:102FC4001A604FF0FF307047C8020020044A0549D8
:102FD4001368002B08BF0B4618441060184670474E
:102FE400CC020020D0020020F8B500BFF8BC08BC19
:102FF4009E467047F8B500BFF8BC08BC9E467047B3
:1030040048656C6C6F576F726C640D000006101687
:103014000006101600000000000000000102030476
:103024000607080900000000010203041000002044
:10303400000000000000000000000000000000008C
:10304400000000000000000000000000000000007C
:10305400000000000000000000000000000000006C
:10306400000000000000000000000000000000005C
:10307400000000000000000000000000000000004C
:10308400000000000000000000000000000000003C
:08309400A0D1FF7F0100000044
:04309C00E90100083E
:0430A000C50100085E
:1030A40001000000100000000024F40010000020C3
:1030B4000000000054300008743000083430000868
:1030C40000000000000000000000000000000000FC
:1030D40000000000000000000000000000000000EC
:1030E40000000000000000000000000000000000DC
:1030F40000000000000000000000000000000000CC
:1031040000000000000000000000000000000000BB
:04000005080024D9F2
:00000001FF
