:020000040800F2
:1000000000000420493C0008651800086718000833
:10001000691800086B1800086D180008000000003F
:100020000000000000000000000000006F18000841
:100030007118000800000000731800087518000807
:10004000993C0008993C0008993C0008993C00083C
:10005000993C0008993C0008993C0008993C00082C
:10006000993C0008993C0008993C0008993C00081C
:10007000993C0008993C0008993C0008993C00080C
:10008000993C0008993C0008993C0008993C0008FC
:10009000993C0008993C0008993C0008993C0008EC
:1000A000993C0008993C0008993C0008993C0008DC
:1000B000993C0008993C0008993C0008993C0008CC
:1000C000993C0008993C0008993C0008993C0008BC
:1000D000993C0008993C0008993C0008993C0008AC
:1000E000993C0008993C0008993C0008993C00089C
:1000F000993C0008993C0008993C0008993C00088C
:1001000000000000993C0008993C0008993C000858
:1001100000000000000000007D180008993C000865
:100120008D180008993C0008993C0008993C00088B
:10013000993C0008993C0008993C0008993C00084B
:10014000993C0008993C0008993C0008993C00083B
:10015000993C0008993C0008993C0008993C00082B
:10016000993C0008993C00080000000000000000D5
:10017000000000000000000000000000000000007F
:10018000993C0008993C00080000000000000000B5
:10019000993C0008993C00080000000000000000A5
:1001A000000000000000000000000000000000004F
:1001B000000000000000000000000000993C000862
:0401C000993C00085E
:1001D00010B5054C237833B9044B13B10448AFF381
:1001E00000800123237010BD302C0020000000008F
:1001F000684D000808B5034B1BB103490348AFF332
:10020000008008BD00000000342C0020684D00086C
:1002100001F0FF01102A2BDB10F0070F08D010F8B7
:10022000013B013A8B422DD010F0070F42B3F6D1BB
:10023000F0B441EA012141EA014122F007047FF0D4
:1002400000070023F0E80256083C85EA010586EA2B
:10025000010685FA47F5A3FA87F586FA47F6A5FA67
:1002600087F68EB9EED1F0BC01F0FF0102F0070273
:1002700032B110F8013B013A83EA010313B1F8D11E
:100280000020704701387047002D06BF35460338FF
:10029000073815F0010F07D1013015F4807F02BF38
:1002A000013015F4C03F0130F0BC0138704700BF89
:1002B00053B94AB9002908BF00281CBF4FF0FF31CD
:1002C0004FF0FF3000F074B9ADF1080C6DE904CEC9
:1002D00000F006F8DDF804E0DDE9022304B0704721
:1002E0002DE9F047089D04468E46002B4DD18A42E9
:1002F000944669D9B2FA82F252B101FA02F3C2F11C
:10030000200120FA01F10CFA02FC41EA030E9440AC
:100310004FEA1C48210CBEFBF8F61FFA8CF708FBCD
:1003200016E341EA034306FB07F199420AD91CEBA5
:10033000030306F1FF3080F01F81994240F21C81D7
:10034000023E63445B1AA4B2B3FBF8F008FB10331F
:1003500044EA034400FB07F7A7420AD91CEB040454
:1003600000F1FF3380F00A81A74240F20781644424
:10037000023840EA0640E41B00261DB1D4400023A9
:10038000C5E900433146BDE8F0878B4209D9002D0D
:1003900000F0EF800026C5E9000130463146BDE897
:1003A000F087B3FA83F6002E4AD18B4202D3824201
:1003B00000F2F980841A61EB030301209E46002DB0
:1003C000E0D0C5E9004EDDE702B9FFDEB2FA82F205
:1003D000002A40F09280A1EB0C014FEA1C471FFA63
:1003E0008CFE0126200CB1FBF7F307FB131140EA4A
:1003F00001410EFB03F0884208D91CEB010103F117
:10040000FF3802D2884200F2CB804346091AA4B2D8
:10041000B1FBF7F007FB101144EA01440EFB00FEAC
:10042000A64508D91CEB040400F1FF3102D2A64511
:1004300000F2BB800846A4EB0E0440EA03409CE7B0
:10044000C6F12007B34022FA07FC4CEA030C20FA5D
:1004500007F401FA06F31C43F9404FEA1C4900FA7D
:1004600006F3B1FBF9F8200C1FFA8CFE09FB1811FA
:1004700040EA014108FB0EF0884202FA06F20BD96D
:100480001CEB010108F1FF3A80F08880884240F2BD
:100490008580A8F102086144091AA4B2B1FBF9F001
:1004A00009FB101144EA014100FB0EFE8E4508D9FC
:1004B0001CEB010100F1FF346CD28E456AD9023881
:1004C000614440EA0840A0FB0294A1EB0E01A14266
:1004D000C846A64656D353D05DB1B3EB080261EBD4
:1004E0000E0101FA07F722FA06F3F1401F43C5E9AE
:1004F000007100263146BDE8F087C2F12003D840E4
:100500000CFA02FC21FA03F3914001434FEA1C4725
:100510001FFA8CFEB3FBF7F007FB10360B0C43EA17
:10052000064300FB0EF69E4204FA02F408D91CEBC7
:10053000030300F1FF382FD29E422DD902386344C5
:100540009B1B89B2B3FBF7F607FB163341EA034165
:1005500006FB0EF38B4208D91CEB010106F1FF38B4
:1005600016D28B4214D9023E6144C91A46EA0046AB
:1005700038E72E46284605E70646E3E61846F8E63D
:100580004B45A9D2B9EB020864EB0C0E0138A3E786
:100590004646EAE7204694E74046D1E7D0467BE767
:1005A000023B614432E7304609E76444023842E7DF
:1005B000704700BF38B5044680F001020E4D02F0CE
:1005C00001024FF40051284602F018F8620882F048
:1005D000010202F001024FF48041284602F00EF8B9
:1005E000A20882F0010202F001024FF40041284605
:1005F00002F004F838BD00BF0008024010B4002823
:1006000022DDB0F5FA6F01DD4FF4FA601C4B1B6878
:1006100000249C63D863002923DDB1F5FA6F01DD66
:100620004FF4FA61164B1B685963164B1B68002187
:10063000D963B2F5FA6F01DD4FF4FA62114B1B6812
:100640005A635DF8044B7047404200B2B0F5FA6F50
:1006500001DD4FF4FA600A4B1B6898630020D863F1
:10066000D9E7494209B2B1F5FA6F01DD4FF4FA61F9
:10067000034B1B6800205863024B1B68D963D8E703
:10068000E02D0020282E002010B50F4C012120461F
:1006900000F0FFFE0D4B188001210D4800F0F9FE1F
:1006A0000C4B1880204600F0C3FE20B9084800F02B
:1006B000BFFE20B910BD204600F0C0FEF6E704489A
:1006C00000F0BCFEF6E700BF6C2C00207C2C002064
:1006D000582C0020682C002010B5164B1B78B3B1A5
:1006E000154A1188154B198092889A80144C002263
:1006F0001021204601F082FF01222021204601F036
:100700007DFF0C4A1378C3F10103137010BD0A4A30
:1007100051880A4B5980D288DA80094C0122102175
:10072000204601F06BFF00222021204601F066FFE9
:10073000E7E700BF7E2C00204C2C0020802C0020FE
:100740000004024008B5064B834200D008BDFFF705
:10075000C3FFFFF799FF00F0DBFF01F005F8F5E7B5
:10076000702E002010B50720FFF724FF002211464D
:100770001046FFF743FF0D4802F0F6FE0C4C002236
:100780001021204601F03AFF00222021204601F0EE
:1007900035FF084803F034FB0724E443E4B2204665
:1007A000FFF708FF642002F0F7F9F6E7702E00204B
:1007B00000040240804D000810B50522234924485A
:1007C00001F04EF9002400F079FF40B9642002F0F6
:1007D000E3F90134E4B2092CF5D9FFF7C3FF002196
:1007E0001C4800F0F3FD01211B4800F0EFFD002440
:1007F0000EE00134E4B2092C26D80021154800F09F
:10080000E5FD0121144800F0E1FD642002F0C4F987
:10081000114800F00DFE0028EBD10E4800F008FE54
:100820000028E6D10B4800F09DFE0B4800F09AFE30
:10083000002211461046FFF7E1FE0020FFF7BAFE46
:10084000064802F04DFE10BDFFF78CFF4C2C002037
:10085000882C0020582C00206C2C0020702E0020AA
:1008600010464FF0000C0AE000BF4FF060431B68D9
:10087000002BF9D04FF060431A700CF1010C844545
:1008800010DA11F8012B4FF06043D3F8803E13F0DB
:10089000010FF2D04FF06043D3F8003E13F0010F88
:1008A000E3D1EAE7704772B6FEE7000000B595B005
:1008B0003422002107A803F015FA002302930393C2
:1008C00004930593069300931F4A116C41F08051E5
:1008D0001164126C02F080520092009A01931B4B3B
:1008E0001A6842F440421A601B6803F440430193C3
:1008F000019B012307934FF4A023089302230D9338
:100900004FF480020E920A220F92642210921193E9
:100910001293139307A801F095FB88B90F23029354
:1009200002230393002304934FF48052059206930D
:10093000032102A801F0B0FA20B915B05DF804FB5C
:10094000FFF7B1FFFFF7AFFF003802400070004033
:1009500008B502F0F5F8FFF7A9FF00F025F800F060
:1009600061F900F09DF900F08DF800F075F900F0E4
:1009700027FF00F0EDFA00F05BFB00F019FAFFF73B
:100980001BFF064BB3F90020054BB3F900100548D7
:1009900003F0B0F90A2002F0FFF8F2E77C2C002007
:1009A000682C00208C4D00082DE9F0418AB000240D
:1009B0000594069407940894099401942D4B1A6B9E
:1009C00042F004021A631A6B02F004020192019AC7
:1009D00002941A6B42F080021A631A6B02F08002D2
:1009E0000292029A03941A6B42F001021A631A6B84
:1009F00002F001020392039A04941A6B42F002027D
:100A00001A631B6B03F002030493049BDFF87080EE
:100A100022464FF46041404601F0F0FD164F224659
:100A20000121384601F0EAFD144E224635213046B8
:100A300001F0E4FD4FF4604305930125069507940A
:100A4000089405A9404601F005FD05950695079413
:100A5000089405A9384601F0FDFC35230593069559
:100A60000794089405A9304601F0F4FC0AB0BDE8EB
:100A7000F08100BF00380240000002400004024044
:100A80000008024000B585B0002300930193029353
:100A900003932C482C4A02604FF44032426083603A
:100AA00001220261027680F82030C3622749816208
:100AB000C3600521C16180F83020436100F0A4FFCC
:100AC00068BB0123009301930223029369461D48EA
:100AD00001F0C4F830BB0223009301936946194822
:100AE00001F0BCF808BB0323009301936946154845
:100AF00001F0B4F8E0B9042300930193694611486A
:100B000001F0ACF8B8B909230093052301936946B5
:100B10000C4801F0A3F888B905B05DF804FBFFF7B5
:100B2000C2FECEE7FFF7BFFED5E7FFF7BCFEDAE770
:100B3000FFF7B9FEDFE7FFF7B6FEE4E7FFF7B3FE26
:100B4000EAE700BF882C0020002001400100000FD0
:100B500070B588B00023039304930593069307931D
:100B6000026803F1804303F590339A4201D008B044
:100B700070BD04460025009503F58C335A6C42F491
:100B800080725A645A6C02F480720092009A019545
:100B90001A6B42F001021A631A6B02F00102019211
:100BA000019A02951A6B42F002021A631B6B03F062
:100BB00002030293029B1E2303930326049603A9B8
:100BC000144801F047FC022303930496059503A9FA
:100BD000114801F03FFC1148114B036045608560EE
:100BE000C5604FF4806303614FF4006343614FF4C9
:100BF000005383614FF48073C3610562456201F065
:100C000083FD18B9054BA3639C63B0E7FFF74BFE68
:100C1000F8E700BF0000024000040240D02C002092
:100C20001064024000B583B000210191094B1A6B9A
:100C300042F480021A631B6B03F480030193019B4F
:100C40000A46382001F0FCFE382001F031FF03B0E5
:100C50005DF804FB0038024008B50F480F4B0360F5
:100C60004FF482734360002383604FF40062C260DC
:100C70000361012242614FF4007282611822C26155
:100C80000362436283620A23C36202F07DF800B903
:100C900008BDFFF708FEFBE7302D002000300140C3
:100CA00008B50F480F4B03604FF482734360002375
:100CB0008360C36002220261012242614FF400722C
:100CC00082611022C2610362436283620A23C362AB
:100CD00002F05AF800B908BDFFF7E5FDFBE700BFD9
:100CE000882D00200038004000B58BB0002305930C
:100CF00006930793089309930368284A934205D003
:100D0000274A934225D00BB05DF804FB00210191E6
:100D1000244B5A6C42F480525A645A6C02F480524A
:100D20000192019A02911A6B42F001021A631B6B45
:100D300003F001030293029BE02305930223069331
:100D4000032308930523099305A9174801F082FBA3
:100D5000D9E700210391134B1A6C42F480421A64C4
:100D60001A6C02F480420392039A04911A6B42F0C7
:100D700002021A631B6B03F002030493049B4FF4FB
:100D800060430593022306930323089305230993E5
:100D900005A9064801F05EFBB5E700BF0030014041
:100DA00000380040003802400000024000040240C9
:100DB00000B583B00023009301930F480F4A0260EF
:100DC00063224260836040F2E732C260836102F0D6
:100DD00009FD50B90023009301936946064802F0CB
:100DE000FFFD28B903B05DF804FBFFF75CFDF1E7F8
:100DF000FFF759FDF6E700BF702E002000100040FD
:100E000082B00368104A934204D0B3F1804F0ED0F1
:100E100002B07047002300930C4B5A6C42F0010261
:100E20005A645B6C03F001030093009BF0E700231E
:100E30000193064B1A6C42F001021A641B6C03F01A
:100E400001030193019BE3E70000014000380240E9
:100E500002680E4B9A4200D0704700B583B0002163
:100E6000019103F50A331A6C42F010021A641B6CEC
:100E700003F010030193019B0A46362001F0E0FDC8
:100E8000362001F015FE03B05DF804FB00100040B1
:100E900070B588B0002303930493059306930793DA
:100EA0000368274A934204D0B3F1804F19D008B0A9
:100EB00070BD00230093234B1A6B42F001021A63AA
:100EC0001B6B03F001030093009B4FF4E06303935B
:100ED000022304930123079303A91B4801F0BAFAE4
:100EE000E5E70024019403F50E331A6B42F0020289
:100EF0001A631A6B02F002020192019A02941A6BB1
:100F000042F001021A631B6B03F001030293029B80
:100F10004FF480630393022604960125079503A9E5
:100F20000A4801F097FA4FF400430393049605949E
:100F30000694079503A9044801F08CFAB7E700BFAF
:100F4000000001400038024000000240000402405E
:100F500010B592B000241094119409940A940B9443
:100F60000C940D940E940F942022214601A802F0B7
:100F7000B9FE2D482D4B036040F2F31343608460AB
:100F800040F2CF73C36004614461846102F056FC97
:100F9000002836D100231093119310A9224802F0A3
:100FA0001FFD002830D16023099300220A920B9282
:100FB0000C920D920E920F9209A91B4802F0A2FC0E
:100FC00028BB042209A9184802F09CFC10BB082287
:100FD00009A9154802F096FCF8B900230193029381
:100FE0000393049305934FF400520692089301A9CA
:100FF0000D4802F03BFD98B90B48FFF749FF12B0CE
:1010000010BDFFF750FCC5E7FFF74DFCCBE7FFF73E
:101010004AFCD6E7FFF747FCD9E7FFF744FCDCE7DB
:10102000FFF741FCE8E700BFE02D00200000014091
:1010300000B58BB0002308930993019302930393A7
:1010400004930593069307931D484FF08042026076
:1010500040F2F3124260836040F2CF72C2600361DB
:10106000836102F0EBFBF0B900230893099308A910
:10107000134802F0B5FCC8B9602301930022029224
:101080000392059201A90E4802F03CFC88B908229F
:1010900001A90B4802F036FC70B90948FFF7F8FEC9
:1010A0000BB05DF804FBFFF7FEFBDDE7FFF7FBFB92
:1010B000E2E7FFF7F8FBEAE7FFF7F5FBEDE700BF34
:1010C000282E002018B101280CD0FF2070470B4BB0
:1010D0000B4A1A600B4B04221A800B4B0B4A1A6006
:1010E00000207047054B0A4A1A60064B01221A80FD
:1010F000054B064A1A600020704700BFBC2E002036
:1011000000040240B82E0020C02E0020302D002008
:101110000000024008B50246034B1988034B1868CB
:1011200001F06CFA08BD00BFB82E0020BC2E0020D4
:1011300008B5FFF7C7FF0120FFF7ECFF002008BD4F
:1011400008B5FFF7BFFF0020FFF7E4FF002008BD50
:1011500000B583B00A464FF0FF33009301230146E8
:101160000448006801F04BFF10B903B05DF804FBC0
:10117000FF20FAE7C02E002008B501F00DFD08BDE4
:1011800008B5FFF7D5FF002008BD70B505460E462F
:1011900014461046FFF7D4FF31462846FFF7D8FF24
:1011A0002046FFF7C5FF002070BD80EA500080EAAE
:1011B000900000F011304FF0113303FB00F0C0F34A
:1011C0000070704710B5C40BC0F30E00FFF7EDFFC1
:1011D00080B2844201D0002010BD0120FCE7000055
:1011E000B0F9083063B959B101818B2906DC01EBF4
:1011F0008101044B03EB0111C16070470023C36000
:10120000704700BF0000002000230381014BC36032
:10121000704700BF0000002038B50546C1F30D013E
:1012200041EA82310CB22046FFF7BFFF44EAC034E6
:10123000AC80294631F8022B281DFFF7A6FF50B9D4
:101240006C8814F4804F0DD12046FFF7BBFF80B1AE
:10125000C4F30D0038BD01212846FFF7C1FF4FF050
:10126000FF30F7E702212846FFF7BAFF4FF0FF30C3
:10127000F0E703212846FFF7B3FF4FF0FF30E9E71F
:1012800070B504461646012919D9032917D043F62B
:10129000FC73994213D043F6FD7399420FD043F685
:1012A000FE7399420BD043F6FF73994207D017297A
:1012B00005D0162903D0182901D019290FD10122F0
:1012C00009B22046FFF7A8FF012243F6FC71204631
:1012D000FFF7A2FF051E18DB3EB9284670BD0A21A4
:1012E000FFF77EFF4FF0FF35F7E701220021204690
:1012F000FFF792FF00280BDB0028EED10B212046E0
:10130000FFF76EFF4FF0FF35E7E74FF0FF35E4E7FB
:101310004FF0FF35E1E72DE9F04107460C46154651
:101320001E469DF81880032907D0172905D01629D5
:1013300003D0182901D0192912D1002221B2384630
:10134000FFF76AFF002229463846FFF765FF0028AD
:1013500033DB5EB9B8F1000F1ED10020BDE8F0818B
:101360001421FFF73DFF4FF0FF30F7E7012243F66E
:10137000FC713846FFF750FF002821DB182C08D0FD
:101380008542E7D015213846FFF72AFF4FF0FF309E
:10139000E4E745F00105F3E7012200213846FFF7B5
:1013A0003BFF00280FDB08B10020D7E716213846A5
:1013B000FFF716FF4FF0FF30D0E74FF0FF30CDE7DB
:1013C0004FF0FF30CAE74FF0FF30C7E738B50446AB
:1013D0000D46002383710123C37101800A20FFF7AA
:1013E000CBFE2846FFF7CCFE88B9012211462046E5
:1013F000FFF746FF012211462046FFF741FF002874
:1014000013DB0BDC2046FFF7FFFE002038BD1E215A
:101410002046FFF7E5FE4FF0FF30F7E71F2120469B
:10142000FFF7DEFE4FF0FF30F0E74FF0FF30EDE763
:10143000B0F90800003818BF0120704710B5044605
:10144000C379EBB1FFF7F4FF08B9002010BD01220A
:1014500011462046FFF714FF012211462046FFF7F0
:101460000FFF002812DB04DC2046FFF7CDFE002032
:10147000ECE732212046FFF7B3FE4FF0FF30E5E7FF
:101480003321FFF7ADFE4FF0FF30DFE74FF0FF30C5
:10149000DCE770B50446C37913B10D46827932B9E1
:1014A000002B4BD0A379002B4FD0304670BD0122CA
:1014B00043F6FF71FFF7B0FE012243F6FC712046B0
:1014C000FFF7AAFE061E47DB002DEED00122002109
:1014D0002046FFF7A1FE002841DB98B183B210F44B
:1014E000006F16D113F4806F1AD113F4007F1ED150
:1014F00013F4807FD9D14A212046FFF771FE4FF0C7
:10150000FF36D2E746212046FFF76AFE4FF0FF364E
:10151000CBE747212046FFF763FE4FF0FF36C4E7D5
:1015200048212046FFF75CFE4FF0FF36BDE749211A
:101530002046FFF755FE4FF0FF36B6E74B21204619
:10154000FFF74EFE4FF0FF36AFE74C212046FFF786
:1015500047FE4FF0FF36A8E74FF0FF36A5E74FF004
:10156000FF36A2E7F0B583B00446C379002B42D022
:1015700001221721FFF784FE002842DB00F0C0059E
:10158000012700973B462A4617212046FFF7C3FE56
:10159000064600973B46002216212046FFF7BBFE79
:1015A000064336B286BB3846FFF7E6FD3A4643F6B9
:1015B000FF712046FFF764FE002828DB00F03F02A1
:1015C000C0F3871600973B462A4317212046FFF7B2
:1015D000A2FE054600973B46324616212046FFF7FD
:1015E0009AFE05432DB2ADB93846A771FFF7C4FD89
:1015F000284603B0F0BD5021FFF7F2FD4FF0FF3554
:10160000F6E74FF0FF35F3E74FF0FF35F0E74FF027
:10161000FF35EDE74FF0FF35EAE7000030B583B066
:1016200060F07F008DF807000E4C0022012120465B
:1016300000F0E4FF0C4D642301220DF10701284660
:1016400001F001FC642301220DF10601284601F09E
:10165000F2FD01221146204600F0D0FF9DF8060061
:1016600003B030BD00040240882D002030B585B0A5
:101670008DF8071000F07F008DF80F000D4C002250
:101680000121204600F0BAFF0B4D642301220DF129
:101690000F01284601F0D7FB642301220DF1070159
:1016A000284601F0D0FB01221146204600F0A6FF9B
:1016B00005B030BD00040240882D002010B5002088
:1016C000FFF7ACFF04460146104802F013FBE02C84
:1016D00001D0002010BD01210620FFF7C7FF102117
:1016E0000320FFF7C3FF20217F20FFF7BFFF00216A
:1016F0000120FFF7BBFF00211420FFF7B7FF0021F7
:101700007F20FFF7B3FF0120E4E700BF944D0008FE
:1017100010B53320FFF782FF04023420FFF77EFF6D
:1017200000B2204300B20D4B18803520FFF776FF42
:1017300004023620FFF772FF00B2204300B2084BCC
:1017400018803720FFF76AFF04023820FFF766FF92
:1017500000B2204300B2034B188010BDC62E0020FB
:10176000CA2E0020CE2E002010B52D20FFF756FFE8
:1017700004022E20FFF752FF00B2204300B20D4BAF
:1017800018802F20FFF74AFF04023020FFF746FFA2
:1017900000B2204300B2084B18803120FFF73EFF13
:1017A00004023220FFF73AFF00B2204300B2034B9D
:1017B000188010BDC42E0020C82E0020CC2E002082
:1017C00008B50A480A4B03604FF4E1334360002335
:1017D0008360C36003610C2242618361C36102F0D4
:1017E000F9F900B908BDFFF75EF8FBE7D02E00203D
:1017F0000014014000B589B00023039304930593BE
:10180000069307930268154B9A4202D009B05DF81F
:1018100004FB0021019103F592335A6C42F020023F
:101820005A645A6C02F020020192019A02911A6BDA
:1018300042F001021A631B6B03F001030293029B47
:101840004FF4C05303930223049303230693082306
:10185000079303A9024800F0FDFDD7E700140140FB
:1018600000000240FEE7FEE7FEE7FEE7FEE7704706
:101870007047704708B501F07DF908BD08B502480A
:1018800001F08FFE08BD00BF702E002008B5024891
:1018900000F0D6FF08BD00BFD02C002082B0002190
:1018A00000910B4B5A6C42F480425A645A6C02F419
:1018B00080420092009A01911A6C42F080521A64A0
:1018C0001B6C03F080530193019B02B0704700BF73
:1018D000003802404A4B5A6822F440325A605A6833
:1018E00041680A435A600268536823F48073536066
:1018F00002685368016943EA012353600268536830
:1019000023F0407353600268536881680B4353604F
:101910000268936823F40063936002689368C16867
:101920000B439360826A374B9A4257D002689368A0
:1019300023F07063936002689368816A0B4393603D
:101940000268936823F04053936002689368C16A09
:101950000B4393600268936823F00203936002686C
:101960009368017E43EA4103936090F82030002B96
:101970003FD00268536843F40063536002685368C1
:1019800023F46043536001684B68426A013A43EABA
:1019900042334B600268D36A23F47003D362016858
:1019A000CB6AC269013A43EA0253CB620268936888
:1019B00023F4007393600268936890F8301043EA50
:1019C000412393600268936823F480639360026804
:1019D0009368416943EA8123936070470268936882
:1019E00023F0706393600268936823F04053936020
:1019F000B0E70268536823F400635360CAE700BF8E
:101A0000002301400100000F38B310B50446036CF9
:101A100043B1236C13F0100F0BD00120002384F886
:101A20003C3010BDFFF794F80023636484F83C3029
:101A3000EFE7236C23F4885323F0020343F00203FF
:101A400023642046FFF746FF00206064236C23F0E8
:101A5000030343F001032364E0E701207047000023
:101A600010B582B013460022019290F83C20012A62
:101A700000F094800446012280F83C2002689068BF
:101A800010F0010F13D1906840F001009060464AB9
:101A90001068464AA2FB0020800C00EB4000019039
:101AA00002E001980138019001980028F9D12268DC
:101AB000906810F4807F03D0906820F4807090606C
:101AC0002268906810F0010F5DD0206C20F4E06077
:101AD00020F0010040F480702064526812F4806F9E
:101AE00005D0226C22F4405242F480522264226CCF
:101AF00012F4805F34D0626C22F00602626400222D
:101B000084F83C20A26B2A48D063A26B2948106459
:101B1000A26B2948D06422686FF022001060206810
:101B2000426842F0806242602068826842F48072BB
:101B3000826020680A4600F14C01A06B00F04AFE6A
:101B40001E4B5B6813F01F0F0DD123689A6812F0CB
:101B5000405F25D19A6842F080429A6000201BE0E5
:101B600000226264CBE72368154A934201D000202B
:101B700012E09A6812F0405F14D19A6842F08042F5
:101B80009A60002008E0236C43F010032364636C28
:101B900043F001036364002002B010BD0220FBE7A4
:101BA0000020F9E70020F7E7C82B002083DE1B4365
:101BB000EB1B0008C91B0008D51B000800230140CF
:101BC000002001407047704708B5806BFFF7FBFFAE
:101BD00008BD704708B5806B40230364436C43F035
:101BE00004034364FFF7F5FF08BD08B50346806BA7
:101BF000026C12F0500F25D1036C43F400730364A0
:101C000003689A6812F0405F19D1027EBAB9DA6AA5
:101C100012F4700F03D09A6812F4806F0FD15A68D3
:101C200022F020025A60036C23F480730364036C77
:101C300013F4805F03D1036C43F001030364FFF7E7
:101C4000C1FF08BD026C12F0100F04D1826BD26C80
:101C500018469047F5E7FFF7BCFFF2E730B482B0D3
:101C60000023019390F83C30012B00F0BB8001234E
:101C700080F83C300B68092B41D90468E2689BB2BC
:101C800003EB43031E3B4FF0070C0CFA03F322EA6D
:101C90000303E3600468E2680B8803EB43031E3B25
:101CA0008D6805FA03F31343E3604B68062B3DD8B8
:101CB0000468626B03EB8303053B4FF01F0C0CFAC7
:101CC00003F322EA030363630468626B4B6803EB6C
:101CD0008303053BB1F800C00CFA03F313436363BD
:101CE0000268414B9A4251D002683F4B9A4256D00B
:101CF000002380F83C30184602B030BC70470468BE
:101D000022699BB203EB43034FF0070C0CFA03F379
:101D100022EA03032361046822690B8803EB43036F
:101D20008D6805FA03F313432361BEE70C2B16D825
:101D300005682A6B03EB8303233B1F2404FA03F398
:101D400022EA03032B6305682A6B4B6803EB8303CA
:101D5000233B0C8804FA03F313432B63C0E70568A5
:101D6000EA6A03EB8303413B1F2404FA03F322EAEC
:101D70000303EB620568EA6A4B6803EB8303413BAC
:101D80000C8804FA03F31343EB62A9E70B68122BE8
:101D9000AAD1164A536843F480035360A4E70B6842
:101DA000103B012BA4D8114A536843F4000353603D
:101DB0000B68102B9CD10E4B1B6802F1467202F58A
:101DC0002E3202F28332A2FB03239B0C03EB83032C
:101DD0005B00019302E0019B013B0193019B002BFF
:101DE000F9D185E7022087E7002001400023014068
:101DF000C82B002008B5254B9B6803F00C03042B6F
:101E00003FD0082B3FD1214B5A6802F03F025B685C
:101E100013F4800F12D01D4B5968C1F388111C4870
:101E20000023A1FB0001FEF743FA184B5B68C3F3E4
:101E3000014301335B00B0FBF3F025E0134B59681D
:101E4000C1F3881C4FEA4C11B1EB0C006EEB0E0E87
:101E50004FEA8E1343EA90638101091A63EB0E0384
:101E6000DB0043EA5173C90011EB0C0C43F1000392
:101E7000990200234FEA8C2041EA9C51FEF718FAA0
:101E8000D3E7034800E0034808BD00BF0038024024
:101E9000002D31010024F400002800F09B8070B573
:101EA0000D4604464F4B1B6803F007038B4208D2D4
:101EB000CBB24C4A1370136803F007038B4240F017
:101EC0008B80236813F0020F17D013F0040F04D097
:101ED000454A936843F4E0539360236813F0080F76
:101EE00004D0414A936843F4604393603E4A936848
:101EF00023F0F003A1680B439360236813F0010FF4
:101F000032D06368012B21D09A1E012A25D9364A86
:101F1000126812F0020F61D033498A6822F003027E
:101F200013438B6000F032FE06462F4B9B6803F094
:101F30000C036268B3EB820F16D000F027FE801B03
:101F400041F288339842F0D9032042E0264A1268D1
:101F500012F4003FE0D101203BE0234A126812F066
:101F6000007FD9D1012034E01E4B1B6803F007032A
:101F7000AB4207D9EAB21B4B1A701B6803F0070388
:101F8000AB422DD1236813F0040F06D0164A936894
:101F900023F4E053E1680B439360236813F0080FC8
:101FA00007D0114A936823F46043216943EAC103CF
:101FB0009360FFF71FFF0C4B9B68C3F303130B4A9F
:101FC000D35CD8400A4B18600A4B186800F092FDA9
:101FD000002070BD012070470120FAE70120F8E7DA
:101FE0000120F6E7003C024000380240A44D000802
:101FF000C82B0020C42B0020014B1868704700BF7D
:10200000C82B002008B5FFF7F7FF044B9B68C3F30C
:102010008223034AD35CD84008BD00BF0038024089
:10202000B44D000808B5FFF7E7FF044B9B68C3F306
:102030004233034AD35CD84008BD00BF0038024099
:10204000B44D0008002800F0E98170B582B0044664
:10205000036813F0010F3BD09F4B9B6803F00C0308
:10206000042B2CD09C4B9B6803F00C03082B21D035
:102070006368B3F5803F4FD0B3F5A02F52D0964B95
:102080001A6822F480321A601A6822F480221A60D8
:102090006368002B50D000F079FD05468E4B1B681D
:1020A00013F4003F14D100F071FD401B6428F5D9F2
:1020B0000320BAE1884B5B6813F4800FD8D0864BBD
:1020C0001B6813F4003F03D06368002B00F0A88165
:1020D000236813F0020F54D07F4B9B6813F00C0F52
:1020E0003ED07D4B9B6803F00C03082B33D0E36894
:1020F000002B68D0794B01221A6000F047FD05469D
:10210000754B1B6813F0020F54D100F03FFD401BCC
:102110000228F5D9032088E16F4A136843F480331D
:102120001360B5E76C4B1A6842F480221A601A6893
:1021300042F480321A60ABE700F028FD0546664B9A
:102140001B6813F4003FC3D000F020FD401B64283F
:10215000F5D9032069E1604B5B6813F4800FC6D1A9
:102160005D4B1B6813F0020F03D0E368012B40F0B6
:102170005981594A136823F0F803216943EAC103DE
:102180001360236813F0080F42D063696BB3534B9D
:102190000122C3F8802E00F0F9FC05464E4B5B6F20
:1021A00013F0020F34D100F0F1FC401B0228F5D9E6
:1021B00003203AE1484A136823F0F803216943EA0F
:1021C000C1031360DDE7454B00221A6000F0DEFC1E
:1021D0000546414B1B6813F0020FD2D000F0D6FC2D
:1021E000401B0228F5D903201FE13C4B0022C3F815
:1021F000802E00F0CBFC0546374B5B6F13F0020FCF
:1022000006D000F0C3FC401B0228F5D903200CE1E6
:10221000236813F0040F77D02F4B1B6C13F0805FF3
:1022200033D1002301932C4B1A6C42F080521A6474
:102230001B6C03F080530193019B0125284B1B6805
:1022400013F4807F23D0A368012B34D0052B38D022
:10225000214B1A6F22F001021A671A6F22F0040252
:102260001A67A368002B3DD000F090FC06461A4B7D
:102270001B6F13F0020F46D100F088FC801B41F267
:1022800088339842F3D90320CFE00025D6E7144ADB
:10229000136843F48073136000F078FC0646104B1B
:1022A0001B6813F4807FCED100F070FC801B0228E5
:1022B000F5D90320B9E0084A136F43F0010313670F
:1022C000CFE7054B1A6F42F004021A671A6F42F00B
:1022D00001021A67C5E700BF00380240000047420C
:1022E0000070004000F052FC0646584B1B6F13F084
:1022F000020F08D000F04AFC801B41F2883398425C
:10230000F3D9032091E0EDB9A369002B00F08C8094
:102310004E4A926802F00C02082A54D0022B17D0C1
:102320004B4B00221A6600F031FC0446474B1B68F9
:1023300013F0007F45D000F029FC001B0228F5D9DE
:10234000032072E0414A136C23F080531364DBE7EF
:102350003F4B00221A6600F019FC05463B4B1B68F8
:1023600013F0007F06D000F011FC401B0228F5D9C5
:1023700003205AE0E369226A1343626A43EA821344
:10238000A26A5208013A43EA0243E26A43EA02635C
:10239000226B43EA02732D4A53602D4B01221A66C9
:1023A00000F0F4FB0446294B1B6813F0007F06D1B4
:1023B00000F0ECFB001B0228F5D9032035E00020DB
:1023C00033E0002031E0012B31D0204B5B6803F477
:1023D0008001E26991422CD103F03F02216A8A42D6
:1023E00029D1616A47F6C0721A40B2EB811F24D12D
:1023F00003F44031A26A5208013AB1EB024F1ED1F8
:1024000003F07062E16AB2EB016F1AD103F0E043AE
:10241000226BB3EB027F16D1002006E0012070474B
:10242000012002E0012000E0002002B070BD012088
:10243000FBE70120F9E70120F7E70120F5E701209C
:10244000F3E70120F1E70120EFE700BF0038024089
:102450000000474200230F2B00F2C68070B582B007
:1024600060E085685E000324B44025EA0405CC687A
:10247000B4402C438460456825EA02054C68C4F3E7
:1024800000129A402A4342605AE0DC08083450F8AF
:10249000246003F0070295000F22AA4026EA020EEC
:1024A0000A69AA4042EA0E0240F824205CE00222B7
:1024B00000E0002202FA0EF22A4302344B4D45F8A6
:1024C00024204B4A94686FEA0C0224EA0C054E68FB
:1024D00016F4801F01D04CEA0405454CA560E46861
:1024E00002EA04054E6816F4001F01D04CEA040508
:1024F0003F4CE560646802EA04054E6816F4003F4C
:1025000001D04CEA04053A4C6560246822404D68CD
:1025100015F4803F01D04CEA0402354C22600133AF
:102520000F2B5FD801229A400C6804EA020C32EAB1
:102530000404F4D14C6804F00304013C012C90D94C
:102540004A6802F00302032A09D0C4685D0003222E
:10255000AA4024EA02048A68AA402243C2604A6868
:1025600002F00302022A90D004684FEA430E0322CD
:1025700002FA0EF224EA02044A6802F0030202FAA6
:102580000EF2224302604A6812F4403FC7D0002294
:102590000192184A546C44F480445464526C02F41E
:1025A00080420192019A9C08A51C104A52F82550BD
:1025B00003F003024FEA820E0F2202FA0EF225EA1E
:1025C00002050D4A90423FF474AF02F580629042DA
:1025D00006D002F5806290423FF469AF072269E7B6
:1025E000012267E702B070BD704700BF00380140AC
:1025F000003C014000380240000002400AB1816105
:10260000704709048161704730B405682C6824F470
:1026100080242C60046863608368402B05D00368C5
:1026200099600368DA6030BC704703689A60036899
:10263000D960F8E710B40368D9B210390C4AA2FB8C
:10264000014212090B4CA25CC2655F2909D923F42F
:102650007F7323F0030304338365806D5DF8044BBF
:10266000704723F47F7323F003038365F5E700BF0E
:10267000ABAAAAAA9C4D0008836A826992B9012B71
:102680000AD0022B02D00BB100207047C36A13F0AE
:10269000807F28D100207047C36AB3F1C07F24D067
:1026A00000207047B2F5005F09D0022B25D9032B1B
:1026B00025D1C36A13F0807F23D100207047032BFC
:1026C00003D8DFE803F01404140A00207047C36A3B
:1026D00013F0807F0DD100207047C36AB3F1C07F33
:1026E00009D0002070470120704701207047012069
:1026F000704701207047012070470120704700207B
:10270000704701207047000070B5044600F03EFAA3
:10271000002C5BD00546022384F83530002384F872
:1027200034302268136823F00103136023681A68A9
:1027300012F0010F0AD000F029FA431B052BF5D93E
:1027400020236365032084F8350070BD1A68204893
:1027500010406168A2680A43E1680A4321690A439C
:1027600061690A43A1690A43E1690A43216A0A438C
:102770000243616A04291ED01A602668756925F033
:102780000705636A1D43042B07D1A36A1D43E36A4F
:102790001BB12046FFF770FF90B975612046FFF727
:1027A00049FFE26D3F239340836000206065012371
:1027B00084F83530C9E7E16A206B01430A43DBE75F
:1027C00040236365012084F83500BEE70120BCE7A3
:1027D0003F8010F038B50446856D90F8340001282C
:1027E0002BD0012084F8340094F83500C0B20128C1
:1027F00004D0002384F83430022038BD022084F84D
:102800003500002060652046FFF7FEFEE26D3F23A5
:102810009340AB602268136843F016031360236C87
:1028200023B12268136843F0080313602268136819
:1028300043F0010313600020DFE70220DDE7000022
:10284000F0B583B0044600230193724B1D68724BB0
:10285000A3FB0535AD0A876D3E68C26D0823934022
:10286000334210D003681A6812F0040F0BD01A68B4
:1028700022F004021A60C26D08239340BB60436DCE
:1028800043F001034365E26D01239340334209D0D5
:102890002268526912F0800F04D0BB60636D43F070
:1028A00002036365E26D04239340334209D022683A
:1028B000126812F0020F04D0BB60636D43F0040392
:1028C0006365E26D10239340334224D0226812687E
:1028D00012F0080F1FD0BB6023681A6812F4802F13
:1028E0000DD01B6813F4002F04D1236C9BB120463C
:1028F000984710E0A36C73B1204698470BE01A6824
:1029000012F4807F03D11A6822F008021A60236C47
:102910000BB120469847E26D20239340334255D0B7
:102920002268126812F0100F50D0BB6094F8353056
:10293000DBB2052B0ED023681A6812F4802F33D037
:102940001B6813F4002F2AD1636C002B3ED0204665
:1029500098473BE02268136823F01603136022684F
:10296000536923F080035361236CA3B12268136879
:1029700023F008031360E26D3F239340BB60012303
:1029800084F83530002384F83430236D002B3FD099
:10299000204698473CE0A36C002BE7D1EBE7E36BC4
:1029A000A3B12046984711E01A6812F4807F09D13C
:1029B0001A6822F010021A60012384F835300023CF
:1029C00084F83430E36B0BB120469847636DFBB15C
:1029D000636D13F0010F17D0052384F8353022689A
:1029E000136823F001031360019B01330193AB4291
:1029F00004D823681B6813F0010FF5D1012384F874
:102A00003530002384F83430E36C0BB1204698470E
:102A100003B0F0BDC82B0020B5814E1B074AD36818
:102A200023F4E0631B041B0C000200F4E06003438A
:102A300043F0BF6343F40033D360704700ED00E020
:102A400000B5194BDB68C3F30223C3F1070CBCF1DB
:102A5000040F28BF4FF0040C03F1040EBEF1060F63
:102A600018D9033B4FF0FF3E0EFA0CFC21EA0C0193
:102A700099400EFA03F322EA0303194300280BDB03
:102A80000901C9B200F1604000F5614080F800130F
:102A90005DF804FB0023E5E700F00F000901C9B26F
:102AA000024B1954F4E700BF00ED00E014ED00E024
:102AB000002807DB00F01F02400901239340024A6F
:102AC00042F82030704700BF00E100E00138B0F16B
:102AD000807F0BD24FF0E0235861054AF02182F845
:102AE00023100020986107221A6170470120704767
:102AF00000ED00E010B504460E4B18784FF47A73E1
:102B0000B3FBF0F30C4A1068B0FBF3F0FFF7DEFF05
:102B100068B90F2C01D901200AE0002221464FF0AC
:102B2000FF30FFF78DFF054B1C60002000E0012007
:102B300010BD00BFC02B0020C82B0020C42B0020DC
:102B400008B50B4B1A6842F400721A601A6842F416
:102B500080621A601A6842F480721A600320FFF7DC
:102B60005DFF0F20FFF7C6FFFEF798FE002008BDAF
:102B7000003C0240034A1168034B1B780B4413606E
:102B8000704700BF142F0020C02B0020014B186895
:102B9000704700BF142F002038B50446FFF7F6FF3A
:102BA0000546B4F1FF3F02D0044B1B781C44FFF7ED
:102BB000EDFF401BA042FAD338BD00BFC02B002060
:102BC0002DE9F04782B00546884617461E46FFF7B6
:102BD000DDFF0A9B1B1A03EB0609FFF7D7FF8246AE
:102BE0002B4B1B68C3F3CB3309FB03F301932B6817
:102BF0009C6838EA04030CBF4FF0010C4FF0000C46
:102C0000BC4540D0B6F1FF3FF1D0FFF7BFFFA0EBCE
:102C10000A0048450AD2B9F1000F07D0019A02B163
:102C20004A46019B013B01939146E0E72A685368BD
:102C300023F0E00353606B68B3F5827F0BD0AB6A7F
:102C4000B3F5005F14D0012385F85130002385F8D7
:102C50005030032018E0AB68B3F5004F02D0B3F555
:102C6000806FECD12A68136823F040031360E6E715
:102C70002A68136823F4005313602A68136843F426
:102C800000531360DFE7002002B0BDE8F08700BF0B
:102C9000C82B002010B584B00446164B1868164B9C
:102CA000A3FB0030400D4FF47A7303FB00F0039058
:102CB0006368B3F5827F0BD0039BBBB1039B013BE1
:102CC000039323689B6813F0800FF5D100200EE07A
:102CD00000920B46002280212046FFF771FF30B1A1
:102CE000636D43F020036365032000E0002004B01F
:102CF00010BD00BFC82B0020819F5E1610B582B0AA
:102D000004460B464168B1F5827F14D06168B1F585
:102D1000827F2AD1A168B1F5806F19D0009200227C
:102D200080212046FFF74CFF30B3636D43F0200352
:102D30006365032020E08168B1F5004F02D0B1F552
:102D4000806FE3D12068016821F040010160DDE778
:102D50000092002201212046FFF732FF60B1636D2F
:102D600043F020036365032006E000920022012166
:102D70002046FFF725FF08B902B010BD636D43F090
:102D8000200363650320F7E700285AD010B50446F6
:102D9000436A33B94368B3F5827F05D00023C3612A
:102DA00002E00023036143610023A36294F85130E1
:102DB000002B40D0022384F851302268136823F09E
:102DC00040031360636803F48273A26802F4044250
:102DD0001343E26802F400621343226902F0020224
:102DE0001343626902F001021343A26902F4007204
:102DF0001343E26902F038021343226A02F08002B0
:102E00001343A26A02F40052216813430B60638BE0
:102E100003F00403626A02F01002216813434B605E
:102E20002268D36923F40063D36100206065012325
:102E300084F8513010BD84F850302046FDF754FF1F
:102E4000B8E7012070472DE9F04383B01D4690F8A4
:102E50005030012B00F0D180044688469146012372
:102E600080F85030FFF792FE074694F85160F6B2B2
:102E7000012E40F0AF80B8F1000F00F0AC80B9F146
:102E8000000F00F0A880032384F85130002363650D
:102E9000C4F83080A4F83490A4F83690A363A387D4
:102EA000E38763642364A368B3F5004F1ED02368EF
:102EB0001A6812F0400F03D11A6842F040021A60FB
:102EC000E368B3F5006F1CD0636813B1B9F1010F6B
:102ED00052D1226B236812781A73236B0133236358
:102EE000E38E9BB2013B9BB2E38645E02268136808
:102EF00023F0400313602268136843F48043136097
:102F0000D5E7636813B1B9F1010F16D1226B2368BD
:102F10001288DA60236B02332363E38E9BB2013B9A
:102F20009BB2E38609E0FFF731FEC01BA84202D343
:102F3000B5F1FF3F59D1002D59D0E38E9BB2002B44
:102F400033D023689A6812F0020FECD0226B1288FB
:102F5000DA60236B02332363E38E9BB2013B9BB2A7
:102F6000E386EAE7FFF712FEC01BA84202D3B5F1E1
:102F7000FF3F3ED1002D3ED0E38E9BB2ABB1236824
:102F80009A6812F0020FEDD0226B12781A73236B3D
:102F900001332363B4F836C01FFA8CFC0CF1FF3CFC
:102FA0001FFA8CFCA4F836C0E6E73A4629462046CC
:102FB000FFF770FE08B120236365A36833B901935E
:102FC0002368DA6801929B680193019B636D13B9D2
:102FD000002600E00226012384F85130002384F803
:102FE0005030304603B0BDE8F0830326F3E70326F4
:102FF000F1E70326EFE70326EDE70226F1E72DE9E7
:10300000F04383B01F460A9D90F85030012B00F02A
:103010001081044688469146012380F85030FFF71E
:10302000B5FD064694F85130DBB26268012B0AD038
:10303000B2F5827F40F0E380A268002A40F0E98088
:10304000042B40F0E880B8F1000F00F0E680B9F101
:10305000000F00F0E480002F00F0E38094F851307E
:10306000DBB2042B02D0052384F8513000236365C2
:10307000C4F83890E787A787C4F83080E786A7862A
:103080002364636423681A6812F0400F03D11A683E
:1030900042F040021A60E368B3F5006F11D0636834
:1030A0000BB1012F0BD1226B236812781A73236B9B
:1030B00001332363E38E9BB2013B9BB2E38601277E
:1030C0006BE063680BB1012F0BD1226B2368128870
:1030D000DA60236B02332363E38E9BB2013B9BB226
:1030E000E38601271CE023689A6812F0010F0ED0D6
:1030F000E28F92B25AB1DA68A36B1A80A36B0233E3
:10310000A363E38F9BB2013B9BB2E3870127FFF7E9
:103110003DFD801BA84203D3B5F1FF3F40F0838003
:10312000E38E9BB21BB9E38F9BB2002B53D0236875
:103130009A6812F0020FD6D0E28E92B2002AD2D054
:10314000002FD0D0226B1288DA60236B0233236306
:10315000E38E9BB2013B9BB2E3860027C3E7236863
:103160009A6812F0010F0ED0E28F92B25AB1DA686B
:10317000A36B1A70A36B0133A363E38F9BB2013B74
:103180009BB2E3870127FFF701FD831BAB4202D30C
:10319000B5F1FF3F49D1002D49D0E38E9BB213B961
:1031A000E38F9BB2BBB123689A6812F0020FD6D0AE
:1031B000E28E92B2002AD2D0002FD0D0226B1278A9
:1031C0001A73236B01332363E38E9BB2013B9BB2E3
:1031D000E3860027C3E7324629462046FFF75AFD1B
:1031E00048B9A36863B901932368DA6801929B68C0
:1031F0000193019B04E020236365012000E002208D
:10320000012384F85130002384F8503003B0BDE826
:10321000F0830220F4E70220F2E70120F0E701202A
:10322000EEE70120ECE70320EAE70320E8E70320CC
:10323000E6E70220EAE72DE9F04383B0044688463A
:1032400091461D464068B0F5827F38D094F85030E2
:10325000012B00F0AE80012384F85030FFF796FC7C
:10326000074694F85160F6B2012E40F08F80B8F115
:10327000000F00F08C80B9F1000F00F0888004236B
:1032800084F8513000236365C4F83880A4F83C907A
:10329000A4F83E902363A386E38623646364A36853
:1032A000B3F5004F19D023681A6812F0400F03D10C
:1032B0001A6842F040021A60E3681BB341E0A36859
:1032C000002BC3D1042384F85130009513460A46DD
:1032D0002046FFF794FE06465FE02268136823F05D
:1032E000400313602268136823F480431360DAE715
:1032F000FFF74CFCC01BA84202D3B5F1FF3F50D1F1
:10330000002D50D0E38F9BB2002B33D023689A68F6
:1033100012F0010FECD0A26B1B7B1370A36B013377
:10332000A363E38F9BB2013B9BB2E387EAE7FFF71E
:103330002DFCC01BA84202D3B5F1FF3F35D1002DB3
:1033400035D0E38F9BB2ABB123689A6812F0010FBE
:10335000EDD0DA68A36B1A80A36B0233A363B4F8D1
:103360003EC01FFA8CFC0CF1FF3C1FFA8CFCA4F849
:103370003EC0E6E73A4629462046FFF7BFFC08B1C3
:1033800020236365636D13B9002600E00226012344
:1033900084F85130002384F85030304603B0BDE843
:1033A000F0830326F3E70326F1E70326EFE703267E
:1033B000EDE70226F1E7000030B4036A23F00103D1
:1033C0000362036A4268846924F073040D682C4325
:1033D00023F0020C8B6843EA0C03104DA84203D083
:1033E00005F58065A84205D123F00803CD682B437D
:1033F00023F00403094DA84203D005F58065A842D7
:1034000005D122F440724D692A438D692A434260F6
:1034100084614A684263036230BC70470000014027
:1034200030B4036A23F480730362036A4268C46998
:1034300024F0730C0C6844EA0C0523F400738C68C8
:1034400043EA0423114CA04203D004F58064A04257
:1034500006D123F40063CC6843EA042323F4806399
:103460000A4CA04203D004F58064A04207D122F4A4
:1034700040524C6942EA04128C6942EA04124260EA
:10348000C5614A68C263036230BC704700000140F6
:1034900030B4036A23F480530362036A4468C26948
:1034A00022F4E6420D6842EA052223F400538D68B7
:1034B00043EA0533094DA84203D005F58065A842CB
:1034C00004D124F480444D6944EA85144460C26107
:1034D0004A680264036230BC704700BF00000140CC
:1034E00090F83D30DBB2012B37D1022380F83D301C
:1034F0000268D36843F00103D3600368194A93421A
:1035000020D0B3F1804F1DD0A2F57C42934219D058
:1035100002F58062934215D002F58062934211D089
:1035200002F5784293420DD002F57052934209D0D1
:10353000A2F59432934205D01A6842F001021A6053
:10354000002070479A6802F00702062A07D01A681E
:1035500042F001021A6000207047012070470020ED
:10356000704700BF000001400268D36823F00103E8
:10357000D3600368196A41F21112114208D1196A25
:1035800040F24442114203D11A6822F001021A604B
:10359000012380F83D300020704770477047704726
:1035A000704710B5044603681A6912F0020F11D073
:1035B000DA6812F0020F0DD06FF002021A610123D7
:1035C000037703689B6913F0030F70D0FFF7E6FFE2
:1035D0000023237723681A6912F0040F12D0DA68E7
:1035E00012F0040F0ED06FF004021A610223237749
:1035F00023689B6913F4407F5FD02046FFF7CEFF1E
:103600000023237723681A6912F0080F12D0DA68B2
:1036100012F0080F0ED06FF008021A61042323770E
:103620002368DB6913F0030F4ED02046FFF7B6FF87
:103630000023237723681A6912F0100F12D0DA687A
:1036400012F0100F0ED06FF010021A6108232377CA
:103650002368DB6913F4407F3DD02046FFF79EFFCF
:103660000023237723681A6912F0010F03D0DA6868
:1036700012F0010F36D123681A6912F0800F03D0BF
:10368000DA6812F0800F34D123681A6912F0400F03
:1036900003D0DA6812F0400F32D123681A6912F0B1
:1036A000200F03D0DA6812F0200F30D110BDFFF7E1
:1036B00074FF2046FFF773FF8AE72046FFF76DFF90
:1036C0002046FFF76CFF9BE72046FFF766FF20468A
:1036D000FFF765FFACE72046FFF75FFF2046FFF7E7
:1036E0005EFFBDE76FF001021A612046FDF72AF880
:1036F000C1E76FF080021A61204600F0E1F9C3E7EC
:103700006FF040021A612046FFF74AFFC5E76FF0ED
:1037100020021A61204600F0D2F9C7E70368304A58
:10372000904212D0B0F1804F0FD0A2F57C4290426F
:103730000BD002F58062904207D002F58062904281
:1037400003D002F57842904203D123F070034A6817
:103750001343234A90422AD0B0F1804F27D0A2F5DC
:103760007C42904223D002F5806290421FD002F545
:10377000806290421BD002F57842904217D002F549
:103780007052904213D002F5806290420FD002F541
:10379000806290420BD0A2F59832904207D002F599
:1037A0008062904203D002F58062904203D123F4FC
:1037B0004073CA68134323F080034A6913430360CC
:1037C0008B68C3620B688362054B984203D003F594
:1037D0008063984201D10B69036301234361704701
:1037E0000000014040B310B5044690F83D30F3B1FD
:1037F000022384F83D30214651F8040BFFF78EFF79
:10380000012384F8463084F83E3084F83F3084F851
:10381000403084F8413084F8423084F8433084F8F2
:10382000443084F8453084F83D30002010BD80F8E5
:103830003C30FDF70DFBDBE70120704740B310B5CE
:10384000044690F83D30F3B1022384F83D30214620
:1038500051F8040BFFF762FF012384F8463084F827
:103860003E3084F83F3084F8403084F8413084F8AA
:10387000423084F8433084F8443084F8453084F88A
:103880003D30002010BD80F83C30FDF7B9FADBE791
:103890000120704730B4036A23F010030362036A07
:1038A0004468826922F4E6420D6842EA052223F068
:1038B00020038D6843EA0513114DA84203D005F596
:1038C0008065A84206D123F08003CD6843EA051342
:1038D00023F040030A4DA84203D005F58065A842B5
:1038E00007D124F440644D6944EA85048D6944EAB3
:1038F0008504446082614A688263036230BC704719
:103900000000014038B590F83C30012B66D00446E9
:103910000D46012380F83C300C2A5AD8DFE802F02B
:10392000075959591B595959305959594400006878
:10393000FFF742FD2268936943F008039361226810
:10394000936923F0040393612268936929690B4307
:10395000936100203EE00068FFF79CFF22689369B6
:1039600043F4006393612268936923F48063936155
:1039700022689369296943EA01239361002029E0C1
:103980000068FFF74DFD2268D36943F00803D36157
:103990002268D36923F00403D3612268D3692969BB
:1039A0000B43D361002015E00068FFF771FD22682A
:1039B000D36943F40063D3612268D36923F480633D
:1039C000D3612268D369296943EA0123D3610020C6
:1039D00000E00120002384F83C3038BD0220FCE7E1
:1039E00090F83C30012B3DD010B4012380F83C30DE
:1039F000022380F83D3003685A689C6822F0700CFE
:103A00000A6842EA0C025A600368174A93421AD0C5
:103A1000B3F1804F17D0A2F57C42934213D002F548
:103A2000806293420FD002F5806293420BD002F580
:103A30007842934207D002F57052934203D0A2F528
:103A40009432934204D124F080044A6814439C6069
:103A5000012380F83D30002380F83C3018465DF8A3
:103A6000044B7047022070470000014090F83C3042
:103A7000012B22D0012380F83C30CB6823F4407323
:103A80008A68134323F480634A68134323F4006372
:103A90000A68134323F480530A69134323F4005341
:103AA0004A69134323F48043CA6913430268536489
:103AB000002380F83C30184670470220704770475A
:103AC0007047000038B504460268136923F4405378
:103AD000C1680B431361836802691343426913434E
:103AE000C2691A430168CB6823F4164323F00C0320
:103AF0001343CB600268536923F4407381690B431D
:103B000053610368314A934206D002F580629342C2
:103B100002D0FEF777FA01E0FEF784FAE369B3F525
:103B2000004F29D00021031849411B1841F1000121
:103B3000C90041EA5371DB00181863684FEA830239
:103B40004FEA937341F10001FCF7B2FB204DA5FB56
:103B500000325109642303FB11031B013233A5FB1F
:103B600003235B0903F0F00202EB011203F00F03E1
:103B7000216813448B6038BD0023021843EB030116
:103B8000121841F10001C90041EA5271D200101827
:103B900041F10001626892185B41FCF789FB0C4D12
:103BA000A5FB00325109642303FB1103DB00323310
:103BB000A5FB03235B095A0002F4F87202EB011221
:103BC00003F00703216813448B60D4E70010014021
:103BD0001F85EB5158B310B5044690F83D300BB338
:103BE000242384F83D302268D36823F40053D36043
:103BF0002046FFF767FF2268136923F4904313619F
:103C00002268536923F02A0353612268D36843F47E
:103C10000053D36000202064202384F83D3084F8D2
:103C20003E3010BD80F83C30FDF7E4FDD8E70120C0
:103C300070470000034AD2F8883043F47003C2F89A
:103C40008830704700ED00E0DFF834D00D480E49B1
:103C50000E4A002302E0D458C4500433C4188C42E6
:103C6000F9D30B4A0B4C002301E013600432A2424B
:103C7000FBD3FFF7DFFF00F011F8FCF769FE704798
:103C80000000042000000020302C0020644E0008BA
:103C9000302C00202C2F0020FEE7000070B50D4DC9
:103CA0000D4C641BA4100026A64209D10B4D0C4CF0
:103CB00001F05AF8641BA4100026A64205D170BD7D
:103CC00055F8043B98470136EEE755F8043B984712
:103CD0000136F2E75C4E00085C4E00085C4E0008BE
:103CE000604E000802440346934200D1704703F837
:103CF000011BF9E70FB40A4B13B51C6824B1A36983
:103D000013B9204600F05EFA05AB049AA16801934E
:103D1000204600F067FC02B0BDE8104004B07047D8
:103D2000CC2B002070B50E46054618B183690BB93F
:103D300000F048FAAB69AC6813B9284600F042FAC3
:103D40002C4B9C4220D16C68636EDB0705D4A389A1
:103D5000980502D4A06D00F0D3FAA38919071DD5E8
:103D60002369DBB1013EA36816F8011F013BA36084
:103D700039BB002B38DA22460A21284600F048F8E1
:103D8000013011D00A2511E01B4B9C4201D1AC68D7
:103D9000DAE71A4B9C4208BFEC68D5E72146284673
:103DA00000F088F80028DDD04FF0FF35636EDA07A9
:103DB00005D4A3899B0502D4A06D00F0A2FA284681
:103DC00070BD002B04DAA2699A4206DC0A2904D0ED
:103DD00023685A1C22601970C5E72246284600F065
:103DE00017F80130BFD1DFE723680A255A1C22608B
:103DF0001D70DBE7E04D0008004E0008C04D0008D4
:103E0000024B01461868FFF78DBF00BFCC2B002086
:103E1000F8B50E461446054618B183690BB900F093
:103E2000D1F9214B9C422BD16C68A369A360A38973
:103E30001A072FD523696BB323692068C01A6369F9
:103E4000F6B28342374604DC2146284600F026F9C4
:103E500030BBA368013BA36023685A1C22601E701C
:103E600063690130834204D0A389DB0706D50A2E9B
:103E700004D12146284600F011F988B93846F8BD2A
:103E80000A4B9C4201D1AC68CFE7094B9C4208BF6A
:103E9000EC68CAE72146284600F00CF80028CBD091
:103EA0004FF0FF37EAE700BFE04D0008004E000882
:103EB000C04D0008324B70B51D6806460C4625B152
:103EC000AB6913B9284600F07DF92E4B9C420FD107
:103ED0006C68A389B4F90C2019072CD4DD0611D421
:103EE0000923336042F04003A3814FF0FF303EE0EE
:103EF000254B9C4201D1AC68EBE7244B9C4208BFA8
:103F0000EC68E6E7580712D5616B41B104F1440350
:103F1000994202D0304600F05BFA00236363A38924
:103F200023F02403A3810023636023692360A38912
:103F300043F00803A38123694BB9A38903F42073D9
:103F4000B3F5007F03D02146304600F001FAA08986
:103F5000B4F90C2010F001030AD00023A3606369B8
:103F60005B42A361236943B910F08000BAD170BDF0
:103F7000810758BF6369A360F4E70020F7E700BF3B
:103F8000CC2B0020E04D0008004E0008C04D00087A
:103F90008A892DE9F041054610070C4658D44B6834
:103FA000002B05DC0B6C002B02DC0020BDE8F0814F
:103FB000E66A002EF9D0002312F480522F682B609D
:103FC00032D0606DA3895A0705D56368C01A636B48
:103FD0000BB1236CC01A00230246E66A216A284608
:103FE000B047431CA38906D129681D292CD82A4A29
:103FF000CA40D60728D500226260D904226922600F
:1040000004D5421C01D12B6803B96065616B2F6038
:104010000029CAD004F14403994202D0284600F096
:10402000D7F900206063C1E7216A01232846B04721
:10403000411CC7D12B68002BC4D01D2B01D0162BDF
:1040400001D12F60B1E7A38943F04003A381ADE71D
:104050000F69002FA9D093070E6808BF4B690F6046
:1040600018BF0023A6EB07088B60B8F1000F9CDD9A
:10407000216AA66A43463A462846B047002806DC2D
:10408000A38943F04003A3814FF0FF308EE707443C
:10409000A8EB0008E9E700BF0100402038B50B6934
:1040A00005460C4613B90025284638BD18B183696A
:1040B0000BB900F087F8144B9C421BD16C68B4F923
:1040C0000C30002BEFD0626ED00704D4990502D4D7
:1040D000A06D00F015F928462146FFF759FF636EE1
:1040E000DA070546E0D4A3899B05DDD4A06D00F076
:1040F00008F9D9E7054B9C4201D1AC68DFE7044BD6
:104100009C4208BFEC68DAE7E04D0008004E00086A
:10411000C04D0008002310B50446C0E90033C0E9D3
:104120000433836081814366C2818361194608221A
:104130005C30FFF7D7FD054B6362054BA362054B6F
:10414000E362054B2462236310BD00BF8D4B000862
:10415000AF4B0008E74B00080B4C0008014900F08A
:10416000AFB800BF9D40000870B568224D1E554392
:104170000E4605F1740100F097F9044640B10021A4
:10418000C0E900160C30A06005F16802FFF7AAFD37
:10419000204670BD014800F0B3B800BF192F0020C1
:1041A000014800F0AEB800BF192F0020014800F010
:1041B000A7B800BF1A2F0020014800F0A2B800BF26
:1041C0001A2F002010B50446FFF7F0FFA3691BB1BA
:1041D000BDE81040FFF7F0BFC4E912332365134B6D
:1041E000134A1B68A262A34204BF0123A3612046B5
:1041F00000F020F86060204600F01CF8A060204627
:1042000000F018F80022E06004216068FFF782FFE8
:10421000A06801220921FFF77DFFE0680222122138
:10422000FFF778FF0123A361D2E700BFBC4D000870
:104230005D410008F8B50746FFF7ACFF1E4B1E684E
:10424000B36913B93046FFF7BDFF4836D6E90134EC
:10425000013B03D533680BB33668F7E7B4F90C506C
:10426000D5B9164BE36004F15800656600F047F8D5
:10427000FFF796FFC4E90155C4E904552560A5611F
:104280000822294604F15C00FFF72CFDC4E90D5516
:10429000C4E912552046F8BD6834D9E704213846F0
:1042A000FFF762FF044630600028D5D1FFF778FFA2
:1042B0000C233B60EEE700BFBC4D00080100FFFF90
:1042C0002DE9F8430646884600F148040027D4E962
:1042D0000195B9F1010905D52468002CF7D13846BC
:1042E000BDE8F883AB89012B07D9B5F90E3001334E
:1042F00003D029463046C04707436835E9E7704791
:104300007047704770B50E46B1F90E10002996B08F
:1043100014461D4608DAB6F90C3000222A601A0647
:1043200010D44FF480630EE06A4600F095FC00283C
:10433000F1DB019A02F47042A2F500535A425A414D
:104340002A60EEE740230020236016B070BD000015
:104350008B8973B59D0706460C4607D504F14703C4
:10436000236023610123636102B070BD01AB6A4623
:10437000FFF7C8FF00990546304600F095F848B9A8
:10438000B4F90C309A05EFD423F0030343F0020391
:10439000A381E3E70D4BB362A389206043F0800360
:1043A000A381009B6361019B20615BB1B4F90E1096
:1043B000304600F063FC28B1A38923F0030343F0E7
:1043C0000103A381A0890543A581CDE75D410008D4
:1043D00037B5002944D051F8043C0190002BA1F1DD
:1043E0000404B8BFE41800F06BFC1E4A019813687F
:1043F00033B96360146003B0BDE8304000F066BCC0
:10440000A34208D9256861198B4201BF19685B680E
:1044100049192160EDE71A465B680BB1A342FAD94E
:1044200011685518A5420BD1246821445418A342A1
:104430001160E0D11C685B68536021441160DAE7C9
:1044400002D90C230360D6E7256861198B4204BFAB
:1044500019685B68636004BF491921605460CAE74A
:1044600003B030BD1C2F002070B50E4E0C463168D5
:10447000054611B900F07AFB30602146284600F06D
:1044800075FB431C0AD0C41C24F00304A04207D0CF
:10449000211A284600F06AFB013001D14FF0FF34A9
:1044A000204670BD202F00202DE9F041CD1C25F0C5
:1044B000030508350C2D38BF0C25002D074601DB00
:1044C000A94205D90C233B6000263046BDE8F081A7
:1044D0002E4E00F0F5FB33681C4634BB29463846A7
:1044E000FFF7C2FF431C04464DD134682646002E18
:1044F00040D123683146384604EB030800F036FB10
:1045000080453AD1216803356D1A25F00305083539
:104510000C2D38BF0C2529463846FFF7A5FF013082
:104520002BD023682B4423600EE02268521B1ED43C
:104530000B2A16D96119A342256018BF5960636818
:1045400008BF316062514B60384604F10B0600F041
:10455000BDFB26F00706231DF21AB6D09B1BA35005
:10456000B3E76268A3420CBF32605A60ECE72346AF
:104570006468B2E734467668B9E70C233B60384696
:1045800000F0A4FBA1E72560DEE700BF1C2F0020A0
:104590009368013B002B10B4936008DA9469A3423E
:1045A00001DB0A2903D15DF8044BFFF731BC136826
:1045B000581C1060197008465DF8044B7047F8B538
:1045C00006460F461446D518AC4201D1002007E03C
:1045D00014F8011B3A463046FFF7DAFF431CF3D1CB
:1045E000F8BD00002DE9F04F0D469DB014469846E9
:1045F000064618B183690BB9FFF7E4FD894B9D426C
:104600001BD175686B6ED90705D4AB899A0502D4A6
:10461000A86DFFF775FEAB891B0701D52B69EBB9B8
:1046200029463046FFF746FCC0B16B6EDC070ED55D
:104630004FF0FF301DB0BDE8F08F7B4B9D4201D1A4
:10464000B568DFE7794B9D4208BFF568DAE7AB89CB
:104650009805EDD4A86DFFF754FEE9E70023099310
:1046600020238DF82930CDF80C803023DFF8C0816D
:104670008DF82A304FF0010923469A4613F8012B92
:104680000AB1252AF9D1BAEB040B0BD05B462246BE
:1046900029463046FFF793FF013000F0AA80099ABF
:1046A0005A4409929AF80030002B00F0A2800023AF
:1046B0004FF0FF32CDE905230AF1010A0493079375
:1046C0008DF853301A935446052214F8011B5848AC
:1046D000FBF79EFD049AD8B9D10644BF20238DF87C
:1046E0005330130744BF2B238DF853309AF8003012
:1046F0002A2B15D0079A544600204FF00A0C214669
:1047000011F8013B303B092B4ED9B0B1079214E0B0
:10471000A0EB080309FA03F313430493A246D2E77C
:10472000039B191D1B680391002BBBBF5B4242F02A
:10473000020207930793B8BF049223782E2B0CD163
:1047400063782A2B35D1039B1A1D1B680392002B1B
:10475000B8BF4FF0FF3302340593DFF8E4A02178AF
:1047600003225046FBF754FD40B14023A0EB0A0062
:1047700003FA00F0049B03430134049314F8011B73
:104780002C488DF828100622FBF742FD00283FD068
:10479000294B1BBB039B073323F007030833039309
:1047A000099B3B44099367E70CFB02320C4601204E
:1047B000A5E700230134059319464FF00A0C204663
:1047C00010F8012B303A092A03D9002BC5D00591E6
:1047D000C3E70CFB012104460123F0E703AB009380
:1047E0002A46164B04A93046AFF300800746781CD2
:1047F000D6D16B6ED90705D4AB899A0502D4A86DC2
:10480000FFF77FFDAB895B063FF512AF099811E713
:1048100003AB00932A46094B04A9304600F080F808
:10482000E4E700BFE04D0008004E0008C04D00085E
:10483000204E00082A4E000800000000BF45000876
:10484000264E00082DE9F047164699468A680B69FE
:10485000DDF820809342B8BF1346336091F84320BF
:1048600007460C460AB1013333602368990642BFFC
:10487000336802333360256815F0060506D104F16C
:10488000190AE36832689B1AAB4226DC94F843208D
:10489000131E226818BF012392062BD404F1430291
:1048A00049463846C04701301ED02368E568326863
:1048B00003F00603042B08BFAD1AA36822690CBFDE
:1048C00025EAE57500259342C4BF9B1AED18002622
:1048D0001A34B5421AD1002008E001235246494655
:1048E0003846C047013003D14FF0FF30BDE8F087B4
:1048F0000135C6E7E1185A1C302081F843002244F4
:1049000094F8451082F843100233C7E7012322468A
:1049100049463846C0470130E6D00136D9E70000A5
:104920002DE9FF470F7E0C9D782F914680460C465F
:104930009A4601F1430207D8622F0AD8002F00F0EF
:10494000D880582F00F0A38004F1420584F842700B
:104950003AE0A7F16303152BF6D801A151F823F033
:10496000B9490008CD4900084949000849490008EB
:104970004949000849490008CD490008494900084B
:10498000494900084949000849490008D94A00082E
:10499000FD490008BB4A0008494900084949000888
:1049A000FB4A000849490008FD4900084949000838
:1049B00049490008C34A00082B681A1D1B682A6071
:1049C00004F1420584F842300123A3E020682968FD
:1049D000060601F104030AD50E682B60002E03DAE7
:1049E0002D23764284F843305E480A2319E00E688E
:1049F0002B6010F0400F18BF36B2EFE72B6820682D
:104A0000191D2960010601D51E6802E04606FBD586
:104A10001E8854486F2F0CBF08230A23002184F8F6
:104A200043106568A560002DA2BF216821F0040134
:104A300021600EB9002D4DD01546B6FBF3F103FBF6
:104A40001167C75D05F8017D3746BB420E46F4D9B4
:104A5000082B0BD12368DE0708D5236961689942CA
:104A6000DEBF302305F8013C05F1FF35521B226102
:104A7000CDF800A04B4603AA21464046FFF7E2FED0
:104A800001304CD14FF0FF3004B0BDE8F08735481D
:104A900081F845702968236851F8046B29601D0668
:104AA00014D5DF0744BF43F0200323601EB92368F9
:104AB00023F0200323601023B0E7236843F0200392
:104AC00023607823284884F84530E3E7590648BF37
:104AD000B6B2E6E71546BBE72B6826686169181D84
:104AE000286035061B6801D5196002E07006FBD509
:104AF0001980002323611546BAE72B681A1D2A6026
:104B00001D68626800212846FBF782FB08B1401B44
:104B1000606063682361002384F84330A8E7236959
:104B20002A4649464046D0470130ABD023689B0710
:104B300013D4E068039B9842B8BF1846A4E701234A
:104B4000324649464046D04701309BD00135E368A4
:104B500003995B1AAB42F2DCEBE7002504F119067E
:104B6000F5E700BF314E0008424E000838B5064D4B
:104B70000023044608462B6000F0E8F8431C02D1ED
:104B80002B6803B1236038BD242F002010B50C46DC
:104B9000B1F90E1000F0A0F80028ABBF636DA38937
:104BA0001B1823F48053ACBF6365A38110BD2DE9AE
:104BB000F0411F468B89DB0505460C46164605D598
:104BC000B1F90E100223002200F068F8A389B4F9AD
:104BD0000E1023F48053A38132463B462846BDE89D
:104BE000F04100F017B810B50C46B1F90E1000F006
:104BF00055F8431CA38915BF606523F4805343F423
:104C00008053A38118BFA38110BDB1F90E1000F02D
:104C100013B8000038B5074D044608461146002277
:104C20002A601A46FBF71CFE431C02D12B6803B115
:104C3000236038BD242F002038B5064D00230446DC
:104C400008462B6000F05AF8431C02D12B6803B1D0
:104C5000236038BD242F002038B5074D00230446BB
:104C6000084611462B6000F051F8431C02D12B6816
:104C700003B1236038BD00BF242F002038B5064D96
:104C80000023044608462B6000F048F8431C02D17C
:104C90002B6803B1236038BD242F002038B5074DA1
:104CA00004460846114600222A601A4600F03EF8E3
:104CB000431C02D12B6803B1236038BD242F002090
:104CC0000148FFF71DBB00BF182F00200148FFF768
:104CD00018BB00BF182F002038B5074D0446084602
:104CE000114600222A601A4600F028F8431C02D11F
:104CF0002B6803B1236038BD242F0020024B5822BB
:104D00001A604FF0FF307047242F0020024B5822CA
:104D10001A604FF0FF307047242F0020024B5822BA
:104D20001A600020704700BF242F0020024B582239
:104D30001A604FF0FF307047242F0020024B58229A
:104D40001A604FF0FF307047242F0020044A0549B5
:104D50001368002B08BF0B461844106018467047B4
:104D6000282F0020302F0020F8B500BFF8BC08BC69
:104D70009E467047F8B500BFF8BC08BC9E46704719
:104D8000536F69796121210D0000000025642C25F5
:104D9000640D0A0025780D0A0000000000061016B8
:104DA00000061016000000000000000001020304CD
:104DB000060708090000000001020304D02B0020B0
:104DC00000000000000000000000000000000000E3
:104DD00000000000000000000000000000000000D3
:104DE00000000000000000000000000000000000C3
:104DF00000000000000000000000000000000000B3
:104E000000000000000000000000000000000000A2
:104E10000000000000000000000000000000000092
:104E2000232D302B2000686C4C0065666745464793
:104E30000030313233343536373839414243444516
:104E40004600303132333435363738396162636485
:044E50006566000093
:084E54008CB4FF7F0100000097
:044E5C00F501000854
:044E6000D101000874
:104E64004E6F206572726F722070656E64696E6732
:104E7400000000000000000000000000000000002E
:104E8400000000000000000000000000000000001E
:104E9400000000000000000000000000000000000E
:104EA40000000000000000000000000000000000FE
:104EB4004C6F77206C6576656C2053504920616394
:104EC400636573732072657475726E6564206572B0
:104ED400726F72000000000000000000000000007B
:104EE40000000000000000000000000000000000BE
:104EF40000000000000000000000000000000000AE
:104F04004672616D696E67206572726F72206F639D
:104F140063757272656420696E206C6173742054C9
:104F240078206672616D65000000000000000000DA
:104F3400000000000000000000000000000000006D
:104F4400000000000000000000000000000000005D
:104F540050617269747920626974206572726F722B
:104F6400206F6363757272656420696E20527820C5
:104F74006672616D65000000000000000000000022
:104F8400000000000000000000000000000000001D
:104F9400000000000000000000000000000000000D
:104FA40000000000000000000000000000000000FD
:104FB40000000000000000000000000000000000ED
:104FC40000000000000000000000000000000000DD
:104FD40000000000000000000000000000000000CD
:104FE40000000000000000000000000000000000BD
:104FF40000000000000000000000000000000000AD
:10500400000000000000000000000000000000009C
:10501400000000000000000000000000000000008C
:10502400000000000000000000000000000000007C
:10503400000000000000000000000000000000006C
:10504400000000000000000000000000000000005C
:10505400000000000000000000000000000000004C
:10506400000000000000000000000000000000003C
:10507400000000000000000000000000000000002C
:10508400000000000000000000000000000000001C
:10509400000000000000000000000000000000000C
:1050A40000000000000000000000000000000000FC
:1050B40000000000000000000000000000000000EC
:1050C40000000000000000000000000000000000DC
:1050D40000000000000000000000000000000000CC
:1050E40000000000000000000000000000000000BC
:1050F40000000000000000000000000000000000AC
:10510400000000000000000000000000000000009B
:10511400000000000000000000000000000000008B
:10512400000000000000000000000000000000007B
:10513400000000000000000000000000000000006B
:10514400000000000000000000000000000000005B
:10515400000000000000000000000000000000004B
:10516400000000000000000000000000000000003B
:10517400000000000000000000000000000000002B
:105184005265676973746572207769746820612059
:10519400676976656E206164647265737320646FF9
:1051A40065736E27742065786973740000000000CD
:1051B40000000000000000000000000000000000EB
:1051C40000000000000000000000000000000000DB
:1051D400446576696365206E6F74206163636573EB
:1051E4007369626C65206F6E20535049206C696E40
:1051F4006500000000000000000000000000000046
:10520400000000000000000000000000000000009A
:10521400000000000000000000000000000000008A
:10522400000000000000000000000000000000007A
:10523400000000000000000000000000000000006A
:1054A4005265676973746572207769746820612036
:1054B400676976656E206164647265737320646FD6
:1054C40065736E27742068617665207772697465E8
:1054D40020616363657373206F7220646F65736EFC
:1054E40027742065786973740000000000000000D0
:1054F400526567697374657220636F6E74656E7448
:1055040020766572696669636174696F6E2066618D
:10551400696C65642061667465722077726974656C
:10552400206F7065726174696F6E00000000000086
:105534000000000000000000000000000000000067
:10554400446576696365206E6F7420616363657377
:105554007369626C65206F6E20535049206C696ECC
:1055640065000000000000000000000000000000D2
:105574000000000000000000000000000000000027
:105584000000000000000000000000000000000017
:105594000000000000000000000000000000000007
:1055A40000000000000000000000000000000000F7
:1057C4004C6F77206C6576656C20686172647761D4
:1057D400726520285350492920696E6974206661D6
:1057E400696C656400000000000000000000000017
:1057F40000000000000000000000000000000000A5
:105804000000000000000000000000000000000094
:1058140043616E742061636B6E6F776C656467655A
:1058240020746865206572726F7220696E2045521B
:1058340052464C20726567697374657220696E20E4
:10584400696E697420726F7574696E65000000007A
:105854000000000000000000000000000000000044
:105864000000000000000000000000000000000034
:105874000000000000000000000000000000000024
:105884000000000000000000000000000000000014
:105AE400456E636F646572206E6F7420696E6974AD
:105AF40069616C697A6564207768696C652073658F
:105B04007474696E6720666163746F72792073655B
:105B14007474696E677320617474656D70740000C9
:105B24000000000000000000000000000000000071
:105B34000000000000000000000000000000000061
:105B44000000000000000000000000000000000051
:105B54000000000000000000000000000000000041
:105E040043616E742061636B6E6F776C6564676564
:105E140020746865206572726F7220696E20455225
:105E240052464C20726567697374657220696E20EE
:105E3400726573657420726F7574696E6500000015
:105E4400000000000000000000000000000000004E
:105E5400456E636F646572206E6F7420696E697439
:105E640069616C697A6564207768696C652072651C
:105E740073657420617474656D70740000000000B3
:105E8400000000000000000000000000000000000E
:105E940000000000000000000000000000000000FE
:105EA40000000000000000000000000000000000EE
:105EB40000000000000000000000000000000000DE
:10612400456E636F646572206E6F7420696E697466
:1061340069616C697A6564207768696C6520736548
:1061440074206669656C6420696E20726567697382
:1061540074657220617474656D70740000000000D1
:10616400000000000000000000000000000000002B
:10617400000000000000000000000000000000001B
:10618400000000000000000000000000000000000B
:1061940000000000000000000000000000000000FB
:10644400446576696365206E6F7420616363657368
:106454007369626C65206F6E20535049206C696EBD
:1064640065000000000000000000000000000000C3
:106474000000000000000000000000000000000018
:106484000000000000000000000000000000000008
:106494004D61676E65746963206669656C64207319
:1064A4007472656E67746820746F6F206C6F770008
:1064B40000000000000000000000000000000000D8
:1064C40000000000000000000000000000000000C8
:1064D40000000000000000000000000000000000B8
:1064E4004D61676E65746963206669656C642073C9
:1064F4007472656E67746820746F6F20686967686A
:106504000000000000000000000000000000000087
:106514000000000000000000000000000000000077
:106524000000000000000000000000000000000067
:10653400434F52444943206F766572666C6F77000F
:106544000000000000000000000000000000000047
:106554000000000000000000000000000000000037
:106564000000000000000000000000000000000027
:106574000000000000000000000000000000000017
:106584004D61676E6574206F666673657420636F12
:106594006D70656E736174696F6E206572726F726F
:1065A40000000000000000000000000000000000E7
:1065B40000000000000000000000000000000000D7
:1065C40000000000000000000000000000000000C7
:1065D400456E636F646572206E6F7420696E6974B2
:1065E40069616C697A6564207768696C6520706F8D
:1065F400736974696F6E2072656164206174746577
:106604006D70740000000000000000000000000035
:106614000000000000000000000000000000000076
:10662400456E636F646572206E6F742063616C697C
:1066340062726174656420287A65726F20706F736A
:10664400206E6F742073657429207768696C6520E7
:10665400706F736974696F6E207265616420617410
:1066640074656D70740000000000000000000000FC
:106674000000000000000000000000000000000016
:106684000000000000000000000000000000000006
:1066940000000000000000000000000000000000F6
:1066A40000000000000000000000000000000000E6
:1066B40000000000000000000000000000000000D6
:1066C40000000000000000000000000000000000C6
:1066D40000000000000000000000000000000000B6
:1066E40000000000000000000000000000000000A6
:1066F4000000000000000000000000000000000096
:106704000000000000000000000000000000000085
:106714000000000000000000000000000000000075
:106724000000000000000000000000000000000065
:106734000000000000000000000000000000000055
:106744000000000000000000000000000000000045
:106754000000000000000000000000000000000035
:10676400456E636F646572206E6F7420696E697420
:1067740069616C697A6564207768696C65207A65FB
:10678400726F20706F736974696F6E207365742003
:10679400617474656D7074000000000000000000F6
:1067A40000000000000000000000000000000000E5
:1067B40000000000000000000000000000000000D5
:1067C40000000000000000000000000000000000C5
:1067D40000000000000000000000000000000000B5
:106A840043686F73656E20414249207265736F6C71
:106A94007574696F6E206973206E6F7420636F72F2
:106AA4007265637400000000000000000000000034
:106AB40000000000000000000000000000000000D2
:106AC40000000000000000000000000000000000C2
:106AD400456E636F646572206E6F7420696E6974AD
:106AE40069616C697A6564207768696C65204142E4
:106AF40049207265736F6C7574696F6E2073657469
:106B040020617474656D7074000000000000000062
:106B14000000000000000000000000000000000071
:106B24000000000000000000000000000000000061
:106B34000000000000000000000000000000000051
:106B44000000000000000000000000000000000041
:106DA40054696D656F7574206669726564207768CF
:106DB400696C652077616974696E6720666F7220FB
:106DC4004F5450206275726E2066696E6973680054
:106DD40000000000000000000000000000000000AF
:106DE400000000000000000000000000000000009F
:106DF400477561726462616E6420746573742066A1
:106E040061696C6564207768696C65204F54502013
:106E14006275726E2E20526570726F6772616D6D4D
