:020000040800F2
:1000000000000420B54D0008AD280008AF28000806
:10001000B1280008B3280008B52800080000000037
:10002000000000000000000000000000B7280008E9
:10003000B928000800000000BB280008BD280008FF
:10004000054E0008054E0008054E0008054E000844
:10005000054E0008054E0008054E0008054E000834
:10006000054E0008054E0008054E0008054E000824
:10007000054E0008054E0008054E0008054E000814
:10008000054E0008054E0008054E0008054E000804
:10009000054E0008054E0008054E0008054E0008F4
:1000A000054E0008054E0008054E0008054E0008E4
:1000B000054E0008054E0008054E0008054E0008D4
:1000C000054E0008054E0008054E0008054E0008C4
:1000D000054E0008054E0008054E0008054E0008B4
:1000E000054E0008054E0008054E0008054E0008A4
:1000F000054E0008054E0008054E0008054E000894
:1001000000000000054E0008054E0008054E0008DE
:100110000000000000000000C5280008054E00088F
:10012000D5280008054E0008054E0008054E0008B9
:10013000054E0008054E0008054E0008054E000853
:10014000054E0008054E0008054E0008054E000843
:10015000054E0008054E0008054E0008054E000833
:10016000054E0008054E00080000000000000000D9
:10017000000000000000000000000000000000007F
:10018000054E0008054E00080000000000000000B9
:10019000054E0008054E00080000000000000000A9
:1001A000000000000000000000000000000000004F
:1001B000000000000000000000000000054E0008E4
:0401C000054E0008E0
:1001D00010B5054C237833B9044B13B10448AFF381
:1001E00000800123237010BD9C2D00200000000022
:1001F000387A000808B5034B1BB103490348AFF335
:10020000008008BD00000000A02D0020387A000802
:10021000034613F8012B002AFBD1181A0138704746
:1002200001F0FF01102A2BDB10F0070F08D010F8A7
:10023000013B013A8B422DD010F0070F42B3F6D1AB
:10024000F0B441EA012141EA014122F007047FF0C4
:1002500000070023F0E80256083C85EA010586EA1B
:10026000010685FA47F5A3FA87F586FA47F6A5FA57
:1002700087F68EB9EED1F0BC01F0FF0102F0070263
:1002800032B110F8013B013A83EA010313B1F8D10E
:100290000020704701387047002D06BF35460338EF
:1002A000073815F0010F07D1013015F4807F02BF28
:1002B000013015F4C03F0130F0BC0138704700BF79
:1002C00081F0004102E000BF83F0004330B54FEA07
:1002D00041044FEA430594EA050F08BF90EA020F74
:1002E0001FBF54EA000C55EA020C7FEA645C7FEA07
:1002F000655C00F0E2804FEA5454D4EB5555B8BF2A
:100300006D420CDD2C4480EA020281EA030382EA9A
:10031000000083EA010180EA020281EA0303362D2C
:1003200088BF30BD11F0004F4FEA01314FF4801CFF
:100330004CEA113102D0404261EB410113F0004F11
:100340004FEA03334CEA133302D0524263EB4303C8
:1003500094EA050F00F0A780A4F10104D5F1200E66
:100360000DDB02FA0EFC22FA05F2801841F10001C1
:1003700003FA0EF2801843FA05F359410EE0A5F195
:1003800020050EF1200E012A03FA0EFC28BF4CF0C6
:10039000020C43FA05F3C01851EBE37101F000457C
:1003A00007D54FF0000EDCF1000C7EEB00006EEB89
:1003B0000101B1F5801F1BD3B1F5001F0CD3490813
:1003C0005FEA30004FEA3C0C04F101044FEA44526A
:1003D00012F5800F80F09A80BCF1004F08BF5FEAF1
:1003E000500C50F1000041EB045141EA050130BDD1
:1003F0005FEA4C0C404141EB0101013C28BFB1F5E3
:10040000801FE9D291F0000F04BF01460020B1FA2D
:1004100081F308BF2033A3F10B03B3F120020CDA00
:100420000C3208DD02F1140CC2F10C0201FA0CF0DE
:1004300021FA02F10CE002F11402D8BFC2F1200C43
:1004400001FA02F120FA0CFCDCBF41EA0C019040F9
:10045000E41AA2BF01EB0451294330BD6FEA040442
:100460001F3C1CDA0C340EDC04F11404C4F120022D
:1004700020FA04F001FA02F340EA030021FA04F33F
:1004800045EA030130BDC4F10C04C4F1200220FA96
:1004900002F001FA04F340EA0300294630BD21FAD4
:1004A00004F0294630BD94F0000F83F4801306BF9A
:1004B00081F480110134013D4EE77FEA645C18BF8E
:1004C0007FEA655C29D094EA050F08BF90EA020F25
:1004D00005D054EA000C04BF1946104630BD91EA1D
:1004E000030F1EBF0021002030BD5FEA545C05D120
:1004F0004000494128BF41F0004130BD14F580045F
:100500003CBF01F5801130BD01F0004545F0FE41D2
:1005100041F470014FF0000030BD7FEA645C1ABF07
:10052000194610467FEA655C1CBF0B46024650EA3E
:10053000013406BF52EA033591EA030F41F400216A
:1005400030BD00BF90F0000F04BF0021704730B5F0
:100550004FF4806404F132044FF000054FF00001C5
:1005600050E700BF90F0000F04BF0021704730B586
:100570004FF4806404F1320410F0004548BF40425B
:100580004FF000013EE700BF42004FEAE2014FEAB0
:1005900031014FEA02701FBF12F07F4393F07F4F8B
:1005A00081F06051704732F07F4208BF704793F08E
:1005B0007F4F04BF41F40021704730B54FF46074A1
:1005C00001F0004521F000411CE700BF50EA0102A4
:1005D00008BF704730B54FF000050AE050EA01024D
:1005E00008BF704730B511F0004502D5404261EBBD
:1005F00041014FF4806404F132045FEA915C3FF4FE
:10060000D8AE4FF003025FEADC0C18BF03325FEA9A
:10061000DC0C18BF033202EBDC02C2F1200300FA4B
:1006200003FC20FA02F001FA03FE40EA0E0021FA70
:1006300002F11444BDE600BF70B54FF0FF0C4CF45E
:10064000E06C1CEA11541DBF1CEA135594EA0C0F10
:1006500095EA0C0F00F0DEF82C4481EA030621EA4B
:100660004C5123EA4C5350EA013518BF52EA033586
:1006700041F4801143F4801338D0A0FB02CE4FF038
:100680000005E1FB02E506F00042E0FB03E54FF068
:100690000006E1FB03569CF0000F18BF4EF0010E60
:1006A000A4F1FF04B6F5007F64F5407404D25FEA5C
:1006B0004E0E6D4146EB060642EAC62141EA55510F
:1006C0004FEAC52040EA5E504FEACE2EB4F1FD0C51
:1006D00088BFBCF5E06F1ED8BEF1004F08BF5FEACF
:1006E000500E50F1000041EB045170BD06F0004681
:1006F00046EA010140EA020081EA0301B4EB5C042E
:10070000C2BFD4EB0C0541EA045170BD41F4801125
:100710004FF0000E013C00F3AB8014F1360FDEBF4A
:10072000002001F0004170BDC4F10004203C35DA26
:100730000C341BDC04F11404C4F1200500FA05F3A9
:1007400020FA04F001FA05F240EA020001F000424A
:1007500021F0004110EBD37021FA04F642EB0601C0
:100760005EEA430E08BF20EAD37070BDC4F10C04EA
:10077000C4F1200500FA04F320FA05F001FA04F2AE
:1007800040EA020001F0004110EBD37041F100019A
:100790005EEA430E08BF20EAD37070BDC4F12005A5
:1007A00000FA05F24EEA020E20FA04F301FA05F20D
:1007B00043EA020321FA04F001F0004121FA04F2B5
:1007C00020EA020000EBD3705EEA430E08BF20EA85
:1007D000D37070BD94F0000F0FD101F000464000BF
:1007E00041EB010111F4801F08BF013CF7D041EA41
:1007F000060195F0000F18BF704703F00046520045
:1008000043EB030313F4801F08BF013DF7D043EA15
:100810000603704794EA0C0F0CEA135518BF95EACB
:100820000C0F0CD050EA410618BF52EA4306D1D152
:1008300081EA030101F000414FF0000070BD50EA71
:10084000410606BF1046194652EA430619D094EAFB
:100850000C0F02D150EA013613D195EA0C0F05D1E5
:1008600052EA03361CBF104619460AD181EA030139
:1008700001F0004141F0FE4141F470014FF00000F1
:1008800070BD41F0FE4141F4780170BD70B54FF08C
:10089000FF0C4CF4E06C1CEA11541DBF1CEA13550C
:1008A00094EA0C0F95EA0C0F00F0A7F8A4EB0504EE
:1008B00081EA030E52EA03354FEA013100F08880E5
:1008C0004FEA03334FF0805545EA131343EA1263AE
:1008D0004FEA022245EA111545EA10654FEA002663
:1008E0000EF000419D4208BF964244F1FD0404F51C
:1008F000407402D25B084FEA3202B61A65EB030578
:100900005B084FEA32024FF480104FF4002CB6EB34
:10091000020E75EB030E22BFB61A754640EA0C00B4
:100920005B084FEA3202B6EB020E75EB030E22BFF4
:10093000B61A754640EA5C005B084FEA3202B6EB35
:10094000020E75EB030E22BFB61A754640EA9C00F4
:100950005B084FEA3202B6EB020E75EB030E22BFC4
:10096000B61A754640EADC0055EA060E18D04FEA82
:10097000051545EA16754FEA06164FEAC30343EA22
:1009800052734FEAC2025FEA1C1CC0D111F4801FEF
:100990000BD141EA00014FF000004FF0004CB6E7E8
:1009A00011F4801F04BF01430020B4F1FD0C88BF87
:1009B000BCF5E06F3FF6AFAEB5EB030C04BFB6EB92
:1009C000020C5FEA500C50F1000041EB045170BD85
:1009D0000EF0004E4EEA113114EB5C04C2BFD4EBB2
:1009E0000C0541EA045170BD41F480114FF0000E36
:1009F000013C90E645EA060E8DE60CEA135594EAB2
:100A00000C0F08BF95EA0C0F3FF43BAF94EA0C0FB4
:100A10000AD150EA01347FF434AF95EA0C0F7FF429
:100A200025AF104619462CE795EA0C0F06D152EA7D
:100A300003353FF4FDAE1046194622E750EA410661
:100A400018BF52EA43067FF4C5AE50EA41047FF472
:100A50000DAF52EA43057FF4EBAE12E74FF0FF3CD7
:100A600006E000BF4FF0010C02E000BF4FF0010CA8
:100A70004DF804CD4FEA410C7FEA6C5C4FEA430C21
:100A800018BF7FEA6C5C1BD001B050EA410C0CBF70
:100A900052EA430C91EA030F02BF90EA020F0020D2
:100AA000704710F1000F91EA030F58BF994208BF39
:100AB00090422CBFD8176FEAE37040F001007047F6
:100AC0004FEA410C7FEA6C5C02D150EA013C07D14D
:100AD0004FEA430C7FEA6C5CD6D152EA033CD3D098
:100AE0005DF8040B704700BF8446104662468C4692
:100AF0001946634600E000BF01B5FFF7B7FF0028C5
:100B000048BF10F1000F01BD4DF808EDFFF7F4FFED
:100B10000CBF012000205DF808FB00BF4DF808ED78
:100B2000FFF7EAFF34BF012000205DF808FB00BF9B
:100B30004DF808EDFFF7E0FF94BF012000205DF8BD
:100B400008FB00BF4DF808EDFFF7CEFF94BF012072
:100B500000205DF808FB00BF4DF808EDFFF7C4FF6B
:100B600034BF012000205DF808FB00BF4FEA410CB4
:100B70007FEA6C5C02D150EA013C0AD14FEA430C97
:100B80007FEA6C5C02D152EA033C02D14FF00000D4
:100B900070474FF0010070474FEA410212F5001212
:100BA00015D211D56FF47873B3EB625212D94FEAB4
:100BB000C12343F0004343EA505311F0004F23FA9E
:100BC00002F018BF404270474FF00000704750EAF3
:100BD000013005D111F0004008BF6FF000407047B0
:100BE0004FF00000704700BF4FEA4102B2F1E0430E
:100BF00024BFB3F5001CDCF1FE5C0DD901F0004C04
:100C00004FEAC0024CEA5070B2F1004F40EB830053
:100C100008BF20F00100704711F0804F21D113F17F
:100C20003872BCBF01F00040704741F480114FEAB8
:100C30005252C2F11802C2F1200C10FA0CF320FA41
:100C400002F018BF40F001004FEAC1234FEAD3235E
:100C500003FA0CFC40EA0C0023FA02F34FEA4303C8
:100C6000CCE77FEA625307D150EA01331EBF4FF051
:100C7000FE4040F44000704701F0004040F0FE406C
:100C800040F40000704700BF53B94AB9002908BFBB
:100C900000281CBF4FF0FF314FF0FF3000F074B957
:100CA000ADF1080C6DE904CE00F006F8DDF804E0C3
:100CB000DDE9022304B070472DE9F047089D0446A2
:100CC0008E46002B4DD18A42944669D9B2FA82F2FF
:100CD00052B101FA02F3C2F1200120FA01F10CFA3B
:100CE00002FC41EA030E94404FEA1C48210CBEFB73
:100CF000F8F61FFA8CF708FB16E341EA034306FBFC
:100D000007F199420AD91CEB030306F1FF3080F08A
:100D10001F81994240F21C81023E63445B1AA4B2D7
:100D2000B3FBF8F008FB103344EA034400FB07F779
:100D3000A7420AD91CEB040400F1FF3380F00A81BA
:100D4000A74240F207816444023840EA0640E41BAF
:100D500000261DB1D4400023C5E900433146BDE85B
:100D6000F0878B4209D9002D00F0EF800026C5E9FD
:100D7000000130463146BDE8F087B3FA83F6002E15
:100D80004AD18B4202D3824200F2F980841A61EB8D
:100D9000030301209E46002DE0D0C5E9004EDDE7AB
:100DA00002B9FFDEB2FA82F2002A40F09280A1EB93
:100DB0000C014FEA1C471FFA8CFE0126200CB1FBE8
:100DC000F7F307FB131140EA01410EFB03F08842E1
:100DD00008D91CEB010103F1FF3802D2884200F26E
:100DE000CB804346091AA4B2B1FBF7F007FB101100
:100DF00044EA01440EFB00FEA64508D91CEB04049E
:100E000000F1FF3102D2A64500F2BB800846A4EBF8
:100E10000E0440EA03409CE7C6F12007B34022FAE3
:100E200007FC4CEA030C20FA07F401FA06F31C4312
:100E3000F9404FEA1C4900FA06F3B1FBF9F8200C1F
:100E40001FFA8CFE09FB181140EA014108FB0EF065
:100E5000884202FA06F20BD91CEB010108F1FF3AB5
:100E600080F08880884240F28580A8F102086144C1
:100E7000091AA4B2B1FBF9F009FB101144EA0141CF
:100E800000FB0EFE8E4508D91CEB010100F1FF347A
:100E90006CD28E456AD90238614440EA0840A0FB12
:100EA0000294A1EB0E01A142C846A64656D353D0E8
:100EB0005DB1B3EB080261EB0E0101FA07F722FA0C
:100EC00006F3F1401F43C5E9007100263146BDE835
:100ED000F087C2F12003D8400CFA02FC21FA03F398
:100EE000914001434FEA1C471FFA8CFEB3FBF7F019
:100EF00007FB10360B0C43EA064300FB0EF69E423E
:100F000004FA02F408D91CEB030300F1FF382FD2D6
:100F10009E422DD9023863449B1B89B2B3FBF7F67E
:100F200007FB163341EA034106FB0EF38B4208D957
:100F30001CEB010106F1FF3816D28B4214D9023E98
:100F40006144C91A46EA004638E72E46284605E7B6
:100F50000646E3E61846F8E64B45A9D2B9EB020887
:100F600064EB0C0E0138A3E74646EAE7204694E717
:100F70004046D1E7D0467BE7023B614432E730464A
:100F800009E76444023842E7704700BF38B50446B9
:100F900080F001020E4D02F001024FF4005128468C
:100FA00002F050FB620882F0010202F001024FF4ED
:100FB0008041284602F046FBA20882F0010202F0BE
:100FC00001024FF40041284602F03CFB38BD00BF4F
:100FD00000080240234B1B78002B41D010B400289E
:100FE00022DDB0F5FA6F01DD4FF4FA601E4B1B688D
:100FF00000249C63D863002923DDB1F5FA6F01DD7D
:101000004FF4FA61184B1B685963184B1B68002199
:10101000D963B2F5FA6F01DD4FF4FA62134B1B6826
:101020005A635DF8044B7047404200B2B0F5FA6F66
:1010300001DD4FF4FA600C4B1B6898630020D86305
:10104000D9E7494209B2B1F5FA6F01DD4FF4FA610F
:10105000054B1B6800205863044B1B68D963D8E715
:10106000704700BFFC2D00208C2F0020D42F0020C3
:101070002DE9F84F2DED028B754E0121304601F020
:101080002CFA05460121734801F027FA0446304640
:1010900001F0F2F9002840F0AE806E4801F0ECF962
:1010A000002840F0AC801FFA85F96B4BB3F9007053
:1010B000B9B2A9EB01031FFA83FC1AB2674BB3F96B
:1010C00000601FFA86F8A0B2A8EB00031FFA83FEA7
:1010D0001BB20CF5005A1FFA8AFABAF5804F40F29B
:1010E0009280B7F5005F40F38E800CF57F523F325F
:1010F00012B20EF5005189B2B1F5804F40F29280E4
:10110000B6F5005F40F38E80A0EB080303F57F5334
:101110003F331BB207EE902AF8EEE77ADFED506A14
:1011200067EEA67A9FED4F7A06EE103AB8EEC68AC1
:1011300028EE268A28EE078ADFF838A1DAF800B010
:10114000494BC3F800B0DFF83081D8F80090474B26
:10115000C3F8009067EE877A17EE900AFFF714FA4B
:1011600037A3D3E90023FFF767FA06460F46584630
:10117000FFF70AFA34A3D3E90023FFF75DFA02462A
:101180000B4630463946FFF7A1F8FFF72DFD08EE74
:10119000900ACAF8000018EE100AFFF7F5F928A324
:1011A000D3E90023FFF748FA06460F464846FFF703
:1011B000EBF925A3D3E90023FFF73EFA02460B46DD
:1011C00030463946FFF782F8FFF70EFD07EE900A2A
:1011D000C8F8000078EEA78AF6EE007A68EEA78AD3
:1011E000234BC3ED008A1C4B1D801C4B1C80BDECA7
:1011F000028BBDE8F88F304601F044F94DE7154801
:1012000001F040F94FE7BAF5804F7FF672AFB7F5BE
:10121000005F3FF76EAFA1EB090202F57F523F324C
:1012200012B266E7B1F5804F7FF674AFB6F5005F96
:101230003FF770AF0EF57F533F331BB26AE700BF35
:101240009A9999999999B93FCDCCCCCCCCCCEC3F1B
:10125000EC2D0020DC2D0020CE2D0020CC2D0020F8
:1012600063141D4200008038D42D0020D02D0020B2
:101270001C2E0020242E0020202E002010B5164BFE
:101280001B78B3B1154A1188154B198092889A8042
:10129000144C00221021204602F0D4F90122202112
:1012A000204602F0CFF90C4A1378C3F10103137002
:1012B00010BD0A4A51880A4B5980D288DA80094CFD
:1012C00001221021204602F0BDF9002220212046F3
:1012D00002F0B8F9E7E700BF102E0020B82D00207B
:1012E000142E00200004024010B5154B1889FFF79A
:1012F00039F90022134BFFF79FF90DA3D3E900231F
:10130000FFF79AF902460B46FEF7E0FFFFF76CFC89
:101310000D4C2060FFF738F907A3D3E90023FEF74F
:10132000D5FFFFF761FC206010BD00BFAFF3008068
:101330006666666666660A407B14AE47E17A943F4D
:10134000B82D00200000303F302E002000000000AB
:10135000F8B501F001FA3A4B1B881BB207EE903A40
:10136000F8EEE77A374B93ED007A77EEC77A364B93
:10137000C3ED007A354E3768354B1F6017EE900A83
:10138000FFF702F926A3D3E90023FFF755F9044636
:101390000D463846FFF7F8F823A3D3E90023FFF7FB
:1013A0004BF902460B4620462946FEF78FFFFFF712
:1013B0001BFC3060274E3268274B1A60FFF7E4F8B9
:1013C00004460D460022254BFFF736F918A3D3E952
:1013D0000023FFF75BFA18A3D3E90023FFF72CF9EA
:1013E00000221F4BFFF752FAFFF7FEFB3060224648
:1013F0002B4620462946FEF769FF0DA3D3E90023BB
:10140000FFF744FA04460D46164E3068FFF7BCF865
:1014100022462B46FEF75AFFFFF7E6FB3060F8BD89
:101420007B14AE47E17A843FAE47E17A14AEEF3FDA
:1014300000000000C0FFDF4000000060FB21094009
:101440007A3000200C2E0020082E0020042E0020D0
:10145000002E0020C42D0020C82D002000409F40F9
:1014600000806640D82D0020F8B52DED028B284B6A
:1014700093ED007A274BD3ED007A77EE677A17EE7B
:10148000900AFFF781F804460D46234B93ED007A4E
:10149000224BD3ED007A77EE677A17EE900AFFF7CA
:1014A00073F819A3D3E90023FFF7C6F806460F46E1
:1014B00002460B4620462946FEF708FFFFF794FB3D
:1014C00008EE100A32463B4620462946FEF7FCFE4F
:1014D000FFF78AFB07EE900A9FED117A28EE078A44
:1014E00067EE877AFDEEE77ABDEEC88A002217EE36
:1014F000903A19B218EE103A18B2FFF76BFDBDEC36
:10150000028BF8BDAFF300807B14AE47E17A843FD5
:101510002C2E00201C2E0020282E0020D82D00204C
:101520000000FA4408B5074B834200D008BDFFF71E
:10153000A5FEFFF79DFDFFF70BFFFFF7D5FEFFF7B9
:1015400093FFF3E71C30002070B506460024072502
:1015500009E0ED43EDB22846FFF718FD322002F016
:101560003FFB0134A4B2B442F3D370BD08B50022EE
:1015700011461046FFF72EFD00240B4B1C700B4844
:1015800003F016F80A4D22461021284602F05AF8B8
:1015900022462021284602F055F8064804F05EF95C
:1015A0006420FFF7D1FFFBE7FC2D00201C3000205A
:1015B00000040240507A000838B54FF4FA7002F087
:1015C0000FFB05223E493F4801F06EFA00213E48DC
:1015D00000F020FF01213D4800F01CFF00240EE038
:1015E0000134E4B2092C27D80021374800F012FF5B
:1015F0000121364800F00EFF642002F0F1FA334872
:1016000000F03AFF0028EBD12F4800F035FF00280A
:10161000E6D12D4800F0CAFF2C4800F0C7FF002497
:1016200001F070F850B9642002F0DAFA0134E4B243
:10163000092CF5D9FFF79AFFFFF798FF244B0022FA
:101640001A60002425460AE001F086F8214B1B8829
:1016500005FA83F5012002F0C3FA0134A4B240F286
:10166000DB539C42F0D91C4B83FB0523ED17C5EBE4
:10167000631507EE905AF8EEE77A154BC3ED007A42
:10168000164C0421204603F0DFF90821204603F020
:10169000DBF90021204603F0D7F90821104803F0B8
:1016A000D3F9002211461046FFF794FC00200D4BA1
:1016B0001870FFF76BFC0C4802F036FF38BD00BF16
:1016C000B82D0020342E0020DC2D0020EC2D002031
:1016D0000C2E00207A300020F11976058C2F002086
:1016E000D42F0020FC2D00201C30002010464FF08D
:1016F000000C0AE000BF4FF060431B68002BF9D0DC
:101700004FF060431A700CF1010C844510DA11F8A7
:10171000012B4FF06043D3F8803E13F0010FF2D05D
:101720004FF06043D3F8003E13F0010FE3D1EAE736
:10173000704772B6FEE7000000B595B03422002174
:1017400007A803F093FB00230293039304930593EC
:10175000069300931F4A116C41F080511164126C82
:1017600002F080520092009A01931B4B1A6842F4D7
:1017700040421A601B6803F440430193019B01231C
:1017800007934FF4A023089302230D934FF4800294
:101790000E920A220F9264221092119312931393C5
:1017A00007A801F073FC88B90F2302930223039367
:1017B000002304934FF4805205920693032102A85C
:1017C00001F08EFB20B915B05DF804FBFFF7B1FF07
:1017D000FFF7AFFF0038024000700040000000003B
:1017E00070B52DED028B84B002F0CEF9FFF7A4FFA7
:1017F00000F0FEF800F03AFA00F076FA00F066F930
:1018000000F04EFA01F000F800F0C6FB00F034FCE6
:1018100000F0F2FAFFF7D0FE022607E00136F6B23A
:101820000520FFF791FE3046FFF7B0FB5C4B1868D0
:10183000FEF7AAFE04460D4655A3D3E90023FFF7A1
:101840008BF90028EAD154A3D3E900232046294686
:10185000FFF764F980B9534A1388D288134441F2E0
:101860006F729342DFDD731E052B00F28E80DFE87E
:1018700003F009243F485A7F013EF6B20520FFF7E6
:1018800063FED0E7464B1868FEF77EFE04460D4621
:10189000454B1868FEF778FECDE90201434B186806
:1018A000FEF772FECDE9000122462B46404803F0C8
:1018B0004FFF642002F094F9E4E70020FFF766FB95
:1018C0004FF4FA7002F08CF93A4B01221A703A4C3C
:1018D0003A4B2360344B1A68394B1A60C82002F027
:1018E0007FF9002323604FF47A7002F079F99AE7C8
:1018F000304B01221A700023314A13602E4A1360C4
:10190000FEE700F055FF2F4B19882F4B1A882F4BFD
:101910001B881BB212B209B22D4803F019FF0A202E
:1019200002F05EF97FE70020FFF730FB00249FED17
:10193000298A08E0284BD3ED007A38EE278A012067
:1019400002F04EF90134632CF4DDDFED247AC8EEA9
:10195000277A17EE900AFEF717FE02460B4620483C
:1019600003F0F6FE1F4B19891F4803F0F1FE5AE7FA
:101970000D4B1868FEF708FE02460B461B4803F0A5
:10198000E7FE642002F02CF9F2E7FFF7EFFD00BF5D
:101990009A9999999999B93F9A9999999999B9BFA9
:1019A0001C2E0020142E0020D82D0020C42D002035
:1019B0005C7A0008FC2D00202C2E00209A99993E7C
:1019C000282E002070300020743000207830002055
:1019D000747A000800000000302E00200000C84289
:1019E000807A0008B82D0020887A0008907A0008D4
:1019F0002DE9F0418AB000240594069407940894D8
:101A0000099401942D4B1A6B42F004021A631A6B6D
:101A100002F004020192019A02941A6B42F08002D1
:101A20001A631A6B02F080020292029A03941A6BF4
:101A300042F001021A631A6B02F001020392039A48
:101A400004941A6B42F002021A631B6B03F0020348
:101A50000493049BDFF8708022464FF460414046B7
:101A600001F0F0FD164F22460121384601F0EAFD53
:101A7000144E22463521304601F0E4FD4FF4604318
:101A80000593012506950794089405A9404601F0A1
:101A900005FD059506950794089405A9384601F0BB
:101AA000FDFC3523059306950794089405A9304657
:101AB00001F0F4FC0AB0BDE8F08100BF003802403C
:101AC00000000240000402400008024000B585B05A
:101AD000002300930193029303932C482C4A026045
:101AE0004FF440324260836001220261027680F846
:101AF0002030C36227498162C3600521C16180F83B
:101B00003020436100F0A4FF68BB012300930193E0
:101B10000223029369461D4801F0C4F830BB02233A
:101B2000009301936946194801F0BCF808BB0323F0
:101B3000009301936946154801F0B4F8E0B9042315
:101B4000009301936946114801F0ACF8B8B9092334
:101B500000930523019369460C4801F0A3F888B966
:101B600005B05DF804FBFFF7E4FDCEE7FFF7E1FD0C
:101B7000D5E7FFF7DEFDDAE7FFF7DBFDDFE7FFF78D
:101B8000D8FDE4E7FFF7D5FDEAE700BF342E0020DB
:101B9000002001400100000F70B588B000230393BE
:101BA0000493059306930793026803F1804303F5BA
:101BB00090339A4201D008B070BD044600250095CC
:101BC00003F58C335A6C42F480725A645A6C02F4F6
:101BD00080720092009A01951A6B42F001021A631A
:101BE0001A6B02F001020192019A02951A6B42F0FF
:101BF00002021A631B6B03F002030293029B1E2373
:101C000003930326049603A9144801F047FC02231A
:101C100003930496059503A9114801F03FFC114870
:101C2000114B036045608560C5604FF480630361BC
:101C30004FF4006343614FF4005383614FF48073AA
:101C4000C3610562456201F083FD18B9054BA363CA
:101C50009C63B0E7FFF76DFDF8E700BF00000240AE
:101C6000000402407C2E00201064024000B583B0C6
:101C700000210191094B1A6B42F480021A631B6B1D
:101C800003F480030193019B0A46382001F0FCFE17
:101C9000382001F031FF03B05DF804FB003802404A
:101CA00008B50F480F4B03604FF482734360002365
:101CB00083604FF40062C2600361012242614FF40D
:101CC000007282611822C2610362436283620A2346
:101CD000C36202F07DF800B908BDFFF72AFDFBE7FB
:101CE000DC2E00200030014008B50F480F4B036088
:101CF0004FF48273436000238360C3600222026159
:101D0000012242614FF4007282611022C2610362BB
:101D1000436283620A23C36202F05AF800B908BD25
:101D2000FFF707FDFBE700BF342F0020003800401D
:101D300000B58BB00023059306930793089309938E
:101D40000368284A934205D0274A934225D00BB016
:101D50005DF804FB00210191244B5A6C42F480523F
:101D60005A645A6C02F480520192019A02911A6BE1
:101D700042F001021A631B6B03F001030293029B02
:101D8000E023059302230693032308930523099375
:101D900005A9174801F082FBD9E700210391134BF5
:101DA0001A6C42F480421A641A6C02F48042039264
:101DB000039A04911A6B42F002021A631B6B03F040
:101DC00002030493049B4FF460430593022306939C
:101DD000032308930523099305A9064801F05EFB38
:101DE000B5E700BF00300140003800400038024035
:101DF000000002400004024000B583B000230093BD
:101E000001930F480F4A026063224260836040F2F0
:101E1000E732C260836102F009FD50B900230093EC
:101E200001936946064802F091FE28B903B05DF8B7
:101E300004FBFFF77EFCF1E7FFF77BFCF6E700BF52
:101E40001C3000200010004082B00368104A93420A
:101E500004D0B3F1804F0ED002B07047002300933E
:101E60000C4B5A6C42F001025A645B6C03F00103A4
:101E70000093009BF0E700230193064B1A6C42F09D
:101E800001021A641B6C03F001030193019BE3E759
:101E9000000001400038024002680E4B9A4200D018
:101EA000704700B583B00021019103F50A331A6C25
:101EB00042F010021A641B6C03F010030193019BA3
:101EC0000A46362001F0E0FD362001F015FE03B091
:101ED0005DF804FB0010004070B588B00023039348
:101EE00004930593069307930368274A934204D00B
:101EF000B3F1804F19D008B070BD00230093234B7D
:101F00001A6B42F001021A631B6B03F0010300938A
:101F1000009B4FF4E0630393022304930123079390
:101F200003A91B4801F0BAFAE5E70024019403F580
:101F30000E331A6B42F002021A631A6B02F00202AD
:101F40000192019A02941A6B42F001021A631B6B10
:101F500003F001030293029B4FF480630393022674
:101F600004960125079503A90A4801F097FA4FF452
:101F700000430393049605940694079503A9044827
:101F800001F08CFAB7E700BF0000014000380240C2
:101F9000000002400004024010B592B000241094EA
:101FA000119409940A940B940C940D940E940F942C
:101FB0002022214601A802F059FF2D482D4B036035
:101FC00040F2F3134360846040F2CF73C360046156
:101FD0004461846102F056FC002836D1002310933E
:101FE000119310A9224802F0B1FD002830D16023DE
:101FF000099300220A920B920C920D920E920F926C
:1020000009A91B4802F0A2FC28BB042209A9184810
:1020100002F09CFC10BB082209A9154802F096FCAE
:10202000F8B90023019302930393049305934FF4AB
:1020300000520692089301A90D4802F0CDFD98B90F
:102040000B48FFF749FF12B010BDFFF772FBC5E761
:10205000FFF76FFBCBE7FFF76CFBD6E7FFF769FBFA
:10206000D9E7FFF766FBDCE7FFF763FBE8E700BFB4
:102070008C2F00200000014000B58BB00023089396
:102080000993019302930393049305930693079393
:102090001D484FF08042026040F2F31242608360BC
:1020A00040F2CF72C2600361836102F0EBFBF0B9D2
:1020B00000230893099308A9134802F047FDC8B903
:1020C00060230193002202920392059201A90E4817
:1020D00002F03CFC88B9082201A90B4802F036FC4A
:1020E00070B90948FFF7F8FE0BB05DF804FBFFF785
:1020F00020FBDDE7FFF71DFBE2E7FFF71AFBEAE74E
:10210000FFF717FBEDE700BFD42F002018B101281F
:102110000CD0FF2070470B4B0B4A1A600B4B01226F
:102120001A800B4B0B4A1A6000207047054B0A4A75
:102130001A60064B04221A80054B064A1A600020DA
:10214000704700BF6830002000000240643000206B
:102150006C300020DC2E00200004024008B502464E
:10216000034B1988034B186801F06CFA08BD00BFD7
:10217000643000206830002008B5FFF7C7FF012059
:10218000FFF7ECFF002008BD08B5FFF7BFFF0020F8
:10219000FFF7E4FF002008BD00B583B00A464FF00A
:1021A000FF330093012301460448006801F04BFF10
:1021B00010B903B05DF804FBFF20FAE76C30002093
:1021C00008B501F00DFD08BD08B5FFF7D5FF0020EB
:1021D00008BD70B505460E4614461046FFF7D4FFFD
:1021E00031462846FFF7D8FF2046FFF7C5FF0020FD
:1021F00070BD80EA500080EA900000F011304FF08E
:10220000113303FB00F0C0F30070704710B5C40B2E
:10221000C0F30E00FFF7EDFF80B2844201D0002032
:1022200010BD0120FCE70000B0F9083063B959B1D6
:1022300001818B2906DC01EB8101044B03EB0111C9
:10224000C16070470023C360704700BF00000020DA
:1022500000230381014BC360704700BF00000020D2
:1022600038B50546C1F30D0141EA82310CB2204672
:10227000FFF7BFFF44EAC034AC80294631F8022B97
:10228000281DFFF7A6FF50B96C8814F4804F0DD1BC
:102290002046FFF7BBFF80B1C4F30D0038BD01211C
:1022A0002846FFF7C1FF4FF0FF30F7E7022128462D
:1022B000FFF7BAFF4FF0FF30F0E703212846FFF7A2
:1022C000B3FF4FF0FF30E9E770B504461646012929
:1022D00019D9032917D043F6FC73994213D043F65A
:1022E000FD7399420FD043F6FE7399420BD043F62B
:1022F000FF73994207D0172905D0162903D0182952
:1023000001D019290FD1012209B22046FFF7A8FFF9
:10231000012243F6FC712046FFF7A2FF051E18DBE1
:102320003EB9284670BD0A21FFF77EFF4FF0FF350A
:10233000F7E7012200212046FFF792FF00280BDB80
:102340000028EED10B212046FFF76EFF4FF0FF353E
:10235000E7E74FF0FF35E4E74FF0FF35E1E72DE920
:10236000F04107460C4615461E469DF81880032985
:1023700007D0172905D0162903D0182901D019290B
:1023800012D1002221B23846FFF76AFF0022294607
:102390003846FFF765FF002833DB5EB9B8F1000F60
:1023A0001ED10020BDE8F0811421FFF73DFF4FF062
:1023B000FF30F7E7012243F6FC713846FFF750FF84
:1023C000002821DB182C08D08542E7D0152138469B
:1023D000FFF72AFF4FF0FF30E4E745F00105F3E790
:1023E000012200213846FFF73BFF00280FDB08B130
:1023F0000020D7E716213846FFF716FF4FF0FF30D1
:10240000D0E74FF0FF30CDE74FF0FF30CAE74FF095
:10241000FF30C7E738B504460D460023837101231A
:10242000C37101800A20FFF7CBFE2846FFF7CCFEE0
:1024300088B9012211462046FFF746FF01221146C6
:102440002046FFF741FF002813DB0BDC2046FFF797
:10245000FFFE002038BD1E212046FFF7E5FE4FF0AD
:10246000FF30F7E71F212046FFF7DEFE4FF0FF3079
:10247000F0E74FF0FF30EDE7B0F90800003818BF83
:102480000120704710B50446C379EBB1FFF7F4FFA4
:1024900008B9002010BD012211462046FFF714FFA5
:1024A000012211462046FFF70FFF002812DB04DC53
:1024B0002046FFF7CDFE0020ECE732212046FFF753
:1024C000B3FE4FF0FF30E5E73321FFF7ADFE4FF0ED
:1024D000FF30DFE74FF0FF30DCE770B50446C3792B
:1024E00013B10D46827932B9002B4BD0A379002B62
:1024F0004FD0304670BD012243F6FF71FFF7B0FEAA
:10250000012243F6FC712046FFF7AAFE061E47DBB8
:10251000002DEED0012200212046FFF7A1FE002869
:1025200041DB98B183B210F4006F16D113F4806FC1
:102530001AD113F4007F1ED113F4807FD9D14A2120
:102540002046FFF771FE4FF0FF36D2E746212046C6
:10255000FFF76AFE4FF0FF36CBE747212046FFF733
:1025600063FE4FF0FF36C4E748212046FFF75CFECC
:102570004FF0FF36BDE749212046FFF755FE4FF0EB
:10258000FF36B6E74B212046FFF74EFE4FF0FF36F1
:10259000AFE74C212046FFF747FE4FF0FF36A8E794
:1025A0004FF0FF36A5E74FF0FF36A2E7F0B583B056
:1025B0000446C379002B42D001221721FFF784FE85
:1025C000002842DB00F0C005012700973B462A4661
:1025D00017212046FFF7C3FE064600973B46002220
:1025E00016212046FFF7BBFE064336B286BB3846AF
:1025F000FFF7E6FD3A4643F6FF712046FFF764FE1B
:10260000002828DB00F03F02C0F3871600973B4606
:102610002A4317212046FFF7A2FE054600973B46B6
:10262000324616212046FFF79AFE05432DB2ADB97A
:102630003846A771FFF7C4FD284603B0F0BD50210E
:10264000FFF7F2FD4FF0FF35F6E74FF0FF35F3E708
:102650004FF0FF35F0E74FF0FF35EDE74FF0FF3576
:10266000EAE7000030B583B060F07F008DF8070026
:102670000E4C00220121204600F0E4FF0C4D6423A3
:1026800001220DF10701284601F001FC642301221B
:102690000DF10601284601F0F2FD01221146204607
:1026A00000F0D0FF9DF8060003B030BD00040240EA
:1026B000342F002030B585B08DF8071000F07F0072
:1026C0008DF80F000D4C00220121204600F0BAFFCA
:1026D0000B4D642301220DF10F01284601F0D7FBB9
:1026E000642301220DF10701284601F0D0FB0122ED
:1026F0001146204600F0A6FF05B030BD00040240A0
:10270000342F002010B50020FFF7ACFF044601462F
:10271000104803F01DF8E02C01D0002010BD01216D
:102720000620FFF7C7FF10210320FFF7C3FF20217A
:102730007F20FFF7BFFF06210120FFF7BBFF02212B
:102740001420FFF7B7FF00217F20FFF7B3FF012020
:10275000E4E700BF987A000810B53320FFF782FF46
:1027600004023420FFF77EFF00B2204300B20D4B7D
:1027700018803520FFF776FF04023620FFF772FF3E
:1027800000B2204300B2084B18803720FFF76AFFE1
:1027900004023820FFF766FF00B2204300B2034B6B
:1027A000188010BD72300020763000207A30002072
:1027B00010B52D20FFF756FF04022E20FFF752FF21
:1027C00000B2204300B20D4B18802F20FFF74AFFC4
:1027D00004023020FFF746FF00B2204300B2084B4E
:1027E00018803120FFF73EFF04023220FFF73AFF46
:1027F00000B2204300B2034B188010BD703000209F
:10280000743000207830002008B50A480A4B036075
:102810004FF4E133436000238360C36003610C2203
:1028200042618361C36102F08BFA00B908BDFEF713
:1028300080FFFBE77C3000200014014000B589B028
:102840000023039304930593069307930268154BA3
:102850009A4202D009B05DF804FB0021019103F512
:1028600092335A6C42F020025A645A6C02F02002F1
:102870000192019A02911A6B42F001021A631B6BDA
:1028800003F001030293029B4FF4C053039302230E
:102890000493032306930823079303A9024800F037
:1028A000FDFDD7E70014014000000240FEE7FEE70F
:1028B000FEE7FEE7FEE770477047704708B501F096
:1028C0007DF908BD08B5024801F08FFE08BD00BFC4
:1028D0001C30002008B5024800F0D6FF08BD00BF3C
:1028E0007C2E002082B0002100910B4B5A6C42F4E8
:1028F00080425A645A6C02F480420092009A01911C
:102900001A6C42F080521A641B6C03F080530193DE
:10291000019B02B0704700BF003802404A4B5A6822
:1029200022F440325A605A6841680A435A60026889
:10293000536823F48073536002685368016943EA63
:10294000012353600268536823F0407353600268A8
:10295000536881680B4353600268936823F40063F3
:10296000936002689368C1680B439360826A374B37
:102970009A4257D00268936823F0706393600268AC
:102980009368816A0B4393600268936823F0405315
:10299000936002689368C16A0B439360026893680E
:1029A00023F00203936002689368017E43EA4103C7
:1029B000936090F82030002B3FD00268536843F4B6
:1029C000006353600268536823F4604353600168F6
:1029D0004B68426A013A43EA42334B600268D36A69
:1029E00023F47003D3620168CB6AC269013A43EAF7
:1029F0000253CB620268936823F400739360026809
:102A0000936890F8301043EA41239360026893681A
:102A100023F48063936002689368416943EA8123E9
:102A2000936070470268936823F070639360026854
:102A3000936823F040539360B0E70268536823F42F
:102A400000635360CAE700BF002301400100000F8C
:102A500038B310B50446036C43B1236C13F0100F68
:102A60000BD00120002384F83C3010BDFFF794F810
:102A70000023636484F83C30EFE7236C23F488532D
:102A800023F0020343F0020323642046FFF746FFCE
:102A900000206064236C23F0030343F001032364EC
:102AA000E0E701207047000010B582B01346002215
:102AB000019290F83C20012A00F094800446012203
:102AC00080F83C200268906810F0010F13D19068E4
:102AD00040F001009060464A1068464AA2FB002080
:102AE000800C00EB4000019002E001980138019059
:102AF00001980028F9D12268906810F4807F03D0F3
:102B0000906820F4807090602268906810F0010F47
:102B10005DD0206C20F4E06020F0010040F4807073
:102B20002064526812F4806F05D0226C22F4405267
:102B300042F480522264226C12F4805F34D0626CC2
:102B400022F006026264002284F83C20A26B2A482C
:102B5000D063A26B29481064A26B2948D064226814
:102B60006FF0220010602068426842F0806242608C
:102B70002068826842F48072826020680A4600F110
:102B80004C01A06B00F04AFE1E4B5B6813F01F0F58
:102B90000DD123689A6812F0405F25D19A6842F0FF
:102BA00080429A6000201BE000226264CBE7236829
:102BB000154A934201D0002012E09A6812F0405F5B
:102BC00014D19A6842F080429A60002008E0236C99
:102BD00043F010032364636C43F00103636400203B
:102BE00002B010BD0220FBE70020F9E70020F7E764
:102BF000C82B002083DE1B43332C0008112C000857
:102C00001D2C000800230140002001407047704740
:102C100008B5806BFFF7FBFF08BD704708B5806BF8
:102C200040230364436C43F004034364FFF7F5FF60
:102C300008BD08B50346806B026C12F0500F25D119
:102C4000036C43F40073036403689A6812F0405FF6
:102C500019D1027EBAB9DA6A12F4700F03D09A68F9
:102C600012F4806F0FD15A6822F020025A60036C70
:102C700023F480730364036C13F4805F03D1036C4B
:102C800043F001030364FFF7C1FF08BD026C12F0BB
:102C9000100F04D1826BD26C18469047F5E7FFF70E
:102CA000BCFFF2E730B482B00023019390F83C30CF
:102CB000012B00F0BB80012380F83C300B68092B0E
:102CC00041D90468E2689BB203EB43031E3B4FF01B
:102CD000070C0CFA03F322EA0303E3600468E268DA
:102CE0000B8803EB43031E3B8D6805FA03F3134384
:102CF000E3604B68062B3DD80468626B03EB8303EB
:102D0000053B4FF01F0C0CFA03F322EA0303636345
:102D10000468626B4B6803EB8303053BB1F800C0AA
:102D20000CFA03F3134363630268414B9A4251D098
:102D300002683F4B9A4256D0002380F83C30184638
:102D400002B030BC7047046822699BB203EB4303B6
:102D50004FF0070C0CFA03F322EA03032361046823
:102D600022690B8803EB43038D6805FA03F31343D1
:102D70002361BEE70C2B16D805682A6B03EB83038F
:102D8000233B1F2404FA03F322EA03032B630568A1
:102D90002A6B4B6803EB8303233B0C8804FA03F391
:102DA00013432B63C0E70568EA6A03EB8303413BE7
:102DB0001F2404FA03F322EA0303EB620568EA6ABC
:102DC0004B6803EB8303413B0C8804FA03F3134382
:102DD000EB62A9E70B68122BAAD1164A536843F499
:102DE00080035360A4E70B68103B012BA4D8114A61
:102DF000536843F4000353600B68102B9CD10E4BB7
:102E00001B6802F1467202F52E3202F28332A2FBF7
:102E100003239B0C03EB83035B00019302E0019B04
:102E2000013B0193019B002BF9D185E7022087E745
:102E30000020014000230140C82B002008B5254B8D
:102E40009B6803F00C03042B3FD0082B3FD1214B90
:102E50005A6802F03F025B6813F4800F12D01D4BDA
:102E60005968C1F388111C480023A1FB0001FDF73C
:102E70000BFF184B5B68C3F3014301335B00B0FBEE
:102E8000F3F025E0134B5968C1F3881C4FEA4C114D
:102E9000B1EB0C006EEB0E0E4FEA8E1343EA90631B
:102EA0008101091A63EB0E03DB0043EA5173C90089
:102EB00011EB0C0C43F10003990200234FEA8C2024
:102EC00041EA9C51FDF7E0FED3E7034800E00348E8
:102ED00008BD00BF00380240002D31010024F4007D
:102EE000002800F09B8070B50D4604464F4B1B68D0
:102EF00003F007038B4208D2CBB24C4A137013681D
:102F000003F007038B4240F08B80236813F0020F1D
:102F100017D013F0040F04D0454A936843F4E053EC
:102F20009360236813F0080F04D0414A936843F478
:102F3000604393603E4A936823F0F003A1680B431B
:102F40009360236813F0010F32D06368012B21D006
:102F50009A1E012A25D9364A126812F0020F61D052
:102F600033498A6822F0030213438B6000F032FE7B
:102F700006462F4B9B6803F00C036268B3EB820F8D
:102F800016D000F027FE801B41F288339842F0D91A
:102F9000032042E0264A126812F4003FE0D10120EB
:102FA0003BE0234A126812F0007FD9D1012034E0BF
:102FB0001E4B1B6803F00703AB4207D9EAB21B4B59
:102FC0001A701B6803F00703AB422DD1236813F07E
:102FD000040F06D0164A936823F4E053E1680B43CC
:102FE0009360236813F0080F07D0114A936823F405
:102FF0006043216943EAC1039360FFF71FFF0C4B55
:103000009B68C3F303130B4AD35CD8400A4B186088
:103010000A4B186800F092FD002070BD0120704737
:103020000120FAE70120F8E70120F6E7003C024022
:1030300000380240A87A0008C82B0020C42B0020CA
:10304000014B1868704700BFC82B002008B5FFF778
:10305000F7FF044B9B68C3F38223034AD35CD84039
:1030600008BD00BF00380240B87A000808B5FFF775
:10307000E7FF044B9B68C3F34233034AD35CD84059
:1030800008BD00BF00380240B87A0008002800F0F0
:10309000E98170B582B00446036813F0010F3BD09C
:1030A0009F4B9B6803F00C03042B2CD09C4B9B681C
:1030B00003F00C03082B21D06368B3F5803F4FD099
:1030C000B3F5A02F52D0964B1A6822F480321A60C2
:1030D0001A6822F480221A606368002B50D000F036
:1030E00079FD05468E4B1B6813F4003F14D100F0A8
:1030F00071FD401B6428F5D90320BAE1884B5B6859
:1031000013F4800FD8D0864B1B6813F4003F03D014
:103110006368002B00F0A881236813F0020F54D0DD
:103120007F4B9B6813F00C0F3ED07D4B9B6803F0E8
:103130000C03082B33D0E368002B68D0794B0122B5
:103140001A6000F047FD0546754B1B6813F0020F2F
:1031500054D100F03FFD401B0228F5D9032088E13F
:103160006F4A136843F480331360B5E76C4B1A68F9
:1031700042F480221A601A6842F480321A60ABE787
:1031800000F028FD0546664B1B6813F4003FC3D0D2
:1031900000F020FD401B6428F5D9032069E1604B55
:1031A0005B6813F4800FC6D15D4B1B6813F0020FF0
:1031B00003D0E368012B40F05981594A136823F08A
:1031C000F803216943EAC1031360236813F0080F71
:1031D00042D063696BB3534B0122C3F8802E00F0D9
:1031E000F9FC05464E4B5B6F13F0020F34D100F033
:1031F000F1FC401B0228F5D903203AE1484A136844
:1032000023F0F803216943EAC1031360DDE7454B6E
:1032100000221A6000F0DEFC0546414B1B6813F0EB
:10322000020FD2D000F0D6FC401B0228F5D90320B3
:103230001FE13C4B0022C3F8802E00F0CBFC05467A
:10324000374B5B6F13F0020F06D000F0C3FC401B3E
:103250000228F5D903200CE1236813F0040F77D07E
:103260002F4B1B6C13F0805F33D1002301932C4B49
:103270001A6C42F080521A641B6C03F08053019365
:10328000019B0125284B1B6813F4807F23D0A36882
:10329000012B34D0052B38D0214B1A6F22F00102BC
:1032A0001A671A6F22F004021A67A368002B3DD038
:1032B00000F090FC06461A4B1B6F13F0020F46D12C
:1032C00000F088FC801B41F288339842F3D9032038
:1032D000CFE00025D6E7144A136843F480731360E7
:1032E00000F078FC0646104B1B6813F4807FCED1AB
:1032F00000F070FC801B0228F5D90320B9E0084AD1
:10330000136F43F001031367CFE7054B1A6F42F0C9
:1033100004021A671A6F42F001021A67C5E700BF7C
:1033200000380240000047420070004000F052FCAC
:103330000646584B1B6F13F0020F08D000F04AFCF2
:10334000801B41F288339842F3D9032091E0EDB914
:10335000A369002B00F08C804E4A926802F00C02A8
:10336000082A54D0022B17D04B4B00221A6600F0CB
:1033700031FC0446474B1B6813F0007F45D000F03A
:1033800029FC001B0228F5D9032072E0414A136C86
:1033900023F080531364DBE73F4B00221A6600F0F2
:1033A00019FC05463B4B1B6813F0007F06D000F06C
:1033B00011FC401B0228F5D903205AE0E369226A78
:1033C0001343626A43EA8213A26A5208013A43EA4B
:1033D0000243E26A43EA0263226B43EA02732D4A24
:1033E00053602D4B01221A6600F0F4FB0446294B72
:1033F0001B6813F0007F06D100F0ECFB001B0228D5
:10340000F5D9032035E0002033E0002031E0012B26
:1034100031D0204B5B6803F48001E26991422CD1EA
:1034200003F03F02216A8A4229D1616A47F6C072DD
:103430001A40B2EB811F24D103F44031A26A520832
:10344000013AB1EB024F1ED103F07062E16AB2EBB8
:10345000016F1AD103F0E043226BB3EB027F16D168
:10346000002006E001207047012002E0012000E07A
:10347000002002B070BD0120FBE70120F9E7012028
:10348000F7E70120F5E70120F3E70120F1E701204C
:10349000EFE700BF003802400000474200230F2B37
:1034A00000F2C68070B582B060E085685E000324DB
:1034B000B44025EA0405CC68B4402C4384604568D8
:1034C00025EA02054C68C4F300129A402A43426080
:1034D0005AE0DC08083450F8246003F00702950035
:1034E0000F22AA4026EA020E0A69AA4042EA0E0208
:1034F00040F824205CE0022200E0002202FA0EF2F2
:103500002A4302344B4D45F824204B4A94686FEA15
:103510000C0224EA0C054E6816F4801F01D04CEA18
:103520000405454CA560E46802EA04054E6816F4FB
:10353000001F01D04CEA04053F4CE560646802EAD4
:1035400004054E6816F4003F01D04CEA04053A4CDD
:103550006560246822404D6815F4803F01D04CEA34
:103560000402354C226001330F2B5FD801229A40B0
:103570000C6804EA020C32EA0404F4D14C6804F04A
:103580000304013C012C90D94A6802F00302032A8B
:1035900009D0C4685D000322AA4024EA02048A68B4
:1035A000AA402243C2604A6802F00302022A90D075
:1035B00004684FEA430E032202FA0EF224EA0204E0
:1035C0004A6802F0030202FA0EF2224302604A68DD
:1035D00012F4403FC7D000220192184A546C44F4C0
:1035E00080445464526C02F480420192019A9C0817
:1035F000A51C104A52F8255003F003024FEA820E30
:103600000F2202FA0EF225EA02050D4A90423FF41B
:1036100074AF02F58062904206D002F5806290425B
:103620003FF469AF072269E7012267E702B070BD86
:10363000704700BF00380140003C014000380240A4
:10364000000002400AB1816170470904816170473E
:1036500030B405682C6824F480242C60046863600E
:103660008368402B05D0036899600368DA6030BC3A
:10367000704703689A600368D960F8E710B403687C
:10368000D9B210390C4AA2FB014212090B4CA25CC0
:10369000C2655F2909D923F47F7323F00303043340
:1036A0008365806D5DF8044B704723F47F7323F0CE
:1036B00003038365F5E700BFABAAAAAAA07A0008B6
:1036C000836A826992B9012B0AD0022B02D00BB116
:1036D00000207047C36A13F0807F28D10020704714
:1036E000C36AB3F1C07F24D000207047B2F5005FF9
:1036F00009D0022B25D9032B25D1C36A13F0807F73
:1037000023D100207047032B03D8DFE803F0140413
:10371000140A00207047C36A13F0807F0DD1002087
:103720007047C36AB3F1C07F09D000207047012001
:103730007047012070470120704701207047012029
:10374000704701207047002070470120704700003B
:1037500070B5044600F03EFA002C5BD0054602230B
:1037600084F83530002384F834302268136823F05D
:103770000103136023681A6812F0010F0AD000F0E9
:1037800029FA431B052BF5D920236365032084F810
:10379000350070BD1A68204810406168A2680A436D
:1037A000E1680A4321690A4361690A43A1690A433E
:1037B000E1690A43216A0A430243616A04291ED06F
:1037C0001A602668756925F00705636A1D43042B96
:1037D00007D1A36A1D43E36A1BB12046FFF770FFC0
:1037E00090B975612046FFF749FFE26D3F23934092
:1037F000836000206065012384F83530C9E7E16A01
:10380000206B01430A43DBE740236365012084F812
:103810003500BEE70120BCE73F8010F038B5044614
:10382000856D90F8340001282BD0012084F83400F5
:1038300094F83500C0B2012804D0002384F8343055
:10384000022038BD022084F8350000206065204643
:10385000FFF7FEFEE26D3F239340AB6022681368E2
:1038600043F016031360236C23B12268136843F0FE
:10387000080313602268136843F0010313600020FB
:10388000DFE70220DDE70000F0B583B00446002347
:103890000193724B1D68724BA3FB0535AD0A876D12
:1038A0003E68C26D08239340334210D003681A6803
:1038B00012F0040F0BD01A6822F004021A60C26DD5
:1038C00008239340BB60436D43F001034365E26D01
:1038D00001239340334209D02268526912F0800FCD
:1038E00004D0BB60636D43F002036365E26D0423A3
:1038F0009340334209D02268126812F0020F04D0BC
:10390000BB60636D43F004036365E26D1023934075
:10391000334224D02268126812F0080F1FD0BB6017
:1039200023681A6812F4802F0DD01B6813F4002F3F
:1039300004D1236C9BB12046984710E0A36C73B16F
:10394000204698470BE01A6812F4807F03D11A686A
:1039500022F008021A60236C0BB120469847E26DF2
:1039600020239340334255D02268126812F0100F82
:1039700050D0BB6094F83530DBB2052B0ED02368F5
:103980001A6812F4802F33D01B6813F4002F2AD149
:10399000636C002B3ED0204698473BE022681368BA
:1039A00023F0160313602268536923F080035361E8
:1039B000236CA3B12268136823F008031360E26D3F
:1039C0003F239340BB60012384F83530002384F803
:1039D0003430236D002B3FD0204698473CE0A36C49
:1039E000002BE7D1EBE7E36BA3B12046984711E04A
:1039F0001A6812F4807F09D11A6822F010021A6046
:103A0000012384F83530002384F83430E36B0BB1A4
:103A100020469847636DFBB1636D13F0010F17D01B
:103A2000052384F835302268136823F001031360FE
:103A3000019B01330193AB4204D823681B6813F048
:103A4000010FF5D1012384F83530002384F8343098
:103A5000E36C0BB12046984703B0F0BDC82B0020A3
:103A6000B5814E1B074AD36823F4E0631B041B0C8B
:103A7000000200F4E060034343F0BF6343F400330B
:103A8000D360704700ED00E000B5194BDB68C3F36D
:103A90000223C3F1070CBCF1040F28BF4FF0040C44
:103AA00003F1040EBEF1060F18D9033B4FF0FF3EA1
:103AB0000EFA0CFC21EA0C0199400EFA03F322EAFB
:103AC0000303194300280BDB0901C9B200F1604070
:103AD00000F5614080F800135DF804FB0023E5E782
:103AE00000F00F000901C9B2024B1954F4E700BFFE
:103AF00000ED00E014ED00E0002807DB00F01F02FD
:103B0000400901239340024A42F82030704700BF29
:103B100000E100E00138B0F1807F0BD24FF0E023EC
:103B20005861054AF02182F823100020986107228D
:103B30001A6170470120704700ED00E010B504469F
:103B40000E4B18784FF47A73B3FBF0F30C4A1068FD
:103B5000B0FBF3F0FFF7DEFF68B90F2C01D90120AD
:103B60000AE0002221464FF0FF30FFF78DFF054BA2
:103B70001C60002000E0012010BD00BFC02B002011
:103B8000C82B0020C42B002008B50B4B1A6842F448
:103B900000721A601A6842F480621A601A6842F46D
:103BA00080721A600320FFF75DFF0F20FFF7C6FF4A
:103BB000FEF798FE002008BD003C0240034A116851
:103BC000034B1B780B441360704700BFC0300020CC
:103BD000C02B0020014B1868704700BFC030002088
:103BE00038B50446FFF7F6FF0546B4F1FF3F02D0B3
:103BF000044B1B781C44FFF7EDFF401BA042FAD397
:103C000038BD00BFC02B00202DE9F04782B005462B
:103C1000884617461E46FFF7DDFF0A9B1B1A03EB7B
:103C20000609FFF7D7FF82462B4B1B68C3F3CB3344
:103C300009FB03F301932B689C6838EA04030CBF6B
:103C40004FF0010C4FF0000CBC4540D0B6F1FF3FE7
:103C5000F1D0FFF7BFFFA0EB0A0048450AD2B9F147
:103C6000000F07D0019A02B14A46019B013B019324
:103C70009146E0E72A68536823F0E00353606B68DD
:103C8000B3F5827F0BD0AB6AB3F5005F14D001238C
:103C900085F85130002385F85030032018E0AB68D8
:103CA000B3F5004F02D0B3F5806FECD12A681368EA
:103CB00023F040031360E6E72A68136823F40053F7
:103CC00013602A68136843F400531360DFE7002091
:103CD00002B0BDE8F08700BFC82B002010B584B04B
:103CE0000446164B1868164BA3FB0030400D4FF4EA
:103CF0007A7303FB00F003906368B3F5827F0BD007
:103D0000039BBBB1039B013B039323689B6813F0A8
:103D1000800FF5D100200EE000920B46002280219A
:103D20002046FFF771FF30B1636D43F020036365F8
:103D3000032000E0002004B010BD00BFC82B00200D
:103D4000819F5E1610B582B004460B464168B1F5FE
:103D5000827F14D06168B1F5827F2AD1A168B1F564
:103D6000806F19D00092002280212046FFF74CFF7F
:103D700030B3636D43F020036365032020E0816866
:103D8000B1F5004F02D0B1F5806FE3D12068016832
:103D900021F040010160DDE7009200220121204670
:103DA000FFF732FF60B1636D43F0200363650320CA
:103DB00006E00092002201212046FFF725FF08B906
:103DC00002B010BD636D43F0200363650320F7E785
:103DD00000285AD010B50446436A33B94368B3F596
:103DE000827F05D00023C36102E0002303614361A9
:103DF0000023A36294F85130002B40D0022384F8B2
:103E000051302268136823F040031360636803F4A1
:103E10008273A26802F404421343E26802F400626F
:103E20001343226902F002021343626902F00102A5
:103E30001343A26902F400721343E26902F03802EC
:103E40001343226A02F080021343A26A02F4005272
:103E5000216813430B60638B03F00403626A02F072
:103E60001002216813434B602268D36923F4006376
:103E7000D36100206065012384F8513010BD84F8BF
:103E800050302046FDF754FFB8E7012070472DE978
:103E9000F04383B01D4690F85030012B00F0D180E4
:103EA000044688469146012380F85030FFF792FE81
:103EB000074694F85160F6B2012E40F0AF80B8F199
:103EC000000F00F0AC80B9F1000F00F0A8800323D0
:103ED00084F8513000236365C4F83080A4F834902E
:103EE000A4F83690A363A387E38763642364A3687D
:103EF000B3F5004F1ED023681A6812F0400F03D1AB
:103F00001A6842F040021A60E368B3F5006F1CD0F3
:103F1000636813B1B9F1010F52D1226B2368127893
:103F20001A73236B01332363E38E9BB2013B9BB275
:103F3000E38645E02268136823F04003136022689B
:103F4000136843F480431360D5E7636813B1B9F194
:103F5000010F16D1226B23681288DA60236B0233BB
:103F60002363E38E9BB2013B9BB2E38609E0FFF73C
:103F700031FEC01BA84202D3B5F1FF3F59D1002D3D
:103F800059D0E38E9BB2002B33D023689A6812F08D
:103F9000020FECD0226B1288DA60236B02332363AA
:103FA000E38E9BB2013B9BB2E386EAE7FFF712FE8A
:103FB000C01BA84202D3B5F1FF3F3ED1002D3ED039
:103FC000E38E9BB2ABB123689A6812F0020FEDD07A
:103FD000226B12781A73236B01332363B4F836C053
:103FE0001FFA8CFC0CF1FF3C1FFA8CFCA4F836C0C5
:103FF000E6E73A4629462046FFF770FE08B120233F
:104000006365A36833B901932368DA6801929B68FA
:104010000193019B636D13B9002600E00226012382
:1040200084F85130002384F85030304603B0BDE8A6
:10403000F0830326F3E70326F1E70326EFE70326E1
:10404000EDE70226F1E72DE9F04383B01F460A9D14
:1040500090F85030012B00F01081044688469146BC
:10406000012380F85030FFF7B5FD064694F8513033
:10407000DBB26268012B0AD0B2F5827F40F0E380A8
:10408000A268002A40F0E980042B40F0E880B8F1F3
:10409000000F00F0E680B9F1000F00F0E480002F7F
:1040A00000F0E38094F85130DBB2042B02D00523FA
:1040B00084F8513000236365C4F83890E787A787F8
:1040C000C4F83080E786A7862364636423681A688F
:1040D00012F0400F03D11A6842F040021A60E36800
:1040E000B3F5006F11D063680BB1012F0BD1226BB8
:1040F000236812781A73236B01332363E38E9BB218
:10410000013B9BB2E38601276BE063680BB1012F93
:104110000BD1226B23681288DA60236B023323638E
:10412000E38E9BB2013B9BB2E38601271CE0236830
:104130009A6812F0010F0ED0E28F92B25AB1DA688B
:10414000A36B1A80A36B0233A363E38F9BB2013B83
:104150009BB2E3870127FFF73DFD801BA84203D3F5
:10416000B5F1FF3F40F08380E38E9BB21BB9E38F34
:104170009BB2002B53D023689A6812F0020FD6D05E
:10418000E28E92B2002AD2D0002FD0D0226B1288B9
:10419000DA60236B02332363E38E9BB2013B9BB255
:1041A000E3860027C3E723689A6812F0010F0ED058
:1041B000E28F92B25AB1DA68A36B1A70A36B013323
:1041C000A363E38F9BB2013B9BB2E3870127FFF719
:1041D00001FD831BAB4202D3B5F1FF3F49D1002D56
:1041E00049D0E38E9BB213B9E38F9BB2BBB1236876
:1041F0009A6812F0020FD6D0E28E92B2002AD2D084
:10420000002FD0D0226B12781A73236B01332363F3
:10421000E38E9BB2013B9BB2E3860027C3E73246A5
:1042200029462046FFF75AFD48B9A36863B90193B0
:104230002368DA6801929B680193019B04E02023C4
:104240006365012000E00220012384F8513000233F
:1042500084F8503003B0BDE8F0830220F4E7022078
:10426000F2E70120F0E70120EEE70120ECE7032070
:10427000EAE70320E8E70320E6E70220EAE72DE982
:10428000F04383B00446884691461D464068B0F529
:10429000827F38D094F85030012B00F0AE8001239B
:1042A00084F85030FFF796FC074694F85160F6B258
:1042B000012E40F08F80B8F1000F00F08C80B9F132
:1042C000000F00F08880042384F8513000236365D8
:1042D000C4F83880A4F83C90A4F83E902363A386E9
:1042E000E38623646364A368B3F5004F19D02368A1
:1042F0001A6812F0400F03D11A6842F040021A60A7
:10430000E3681BB341E0A368002BC3D1042384F806
:104310005130009513460A462046FFF794FE0646A4
:104320005FE02268136823F040031360226813687B
:1043300023F480431360DAE7FFF74CFCC01BA8426C
:1043400002D3B5F1FF3F50D1002D50D0E38F9BB287
:10435000002B33D023689A6812F0010FECD0A26BC7
:104360001B7B1370A36B0133A363E38F9BB2013BF1
:104370009BB2E387EAE7FFF72DFCC01BA84202D3FC
:10438000B5F1FF3F35D1002D35D0E38F9BB2ABB1F6
:1043900023689A6812F0010FEDD0DA68A36B1A80D7
:1043A000A36B0233A363B4F83EC01FFA8CFC0CF17C
:1043B000FF3C1FFA8CFCA4F83EC0E6E73A462946CB
:1043C0002046FFF7BFFC08B120236365636D13B976
:1043D000002600E00226012384F85130002384F8EF
:1043E0005030304603B0BDE8F0830326F3E70326E0
:1043F000F1E70326EFE70326EDE70226F1E70000E9
:1044000030B4036A23F001030362036A42688469DB
:1044100024F073040D682C4323F0020C8B6843EAEC
:104420000C03104DA84203D005F58065A84205D1C4
:1044300023F00803CD682B4323F00403094DA84261
:1044400003D005F58065A84205D122F440724D697C
:104450002A438D692A43426084614A684263036249
:1044600030BC70470000014030B4036A23F480730D
:104470000362036A4268C46924F0730C0C6844EA5E
:104480000C0523F400738C6843EA0423114CA0420A
:1044900003D004F58064A04206D123F40063CC6805
:1044A00043EA042323F480630A4CA04203D004F5BA
:1044B0008064A04207D122F440524C6942EA0412BF
:1044C0008C6942EA04124260C5614A68C2630362B1
:1044D00030BC70470000014030B4036A23F48053BD
:1044E0000362036A4468C26922F4E6420D6842EA44
:1044F000052223F400538D6843EA0533094DA84291
:1045000003D005F58065A84204D124F480444D69A8
:1045100044EA85144460C2614A680264036230BCA4
:10452000704700BF0000014090F83D30DBB2012B26
:1045300037D1022380F83D300268D36843F001038D
:10454000D3600368194A934220D0B3F1804F1DD045
:10455000A2F57C42934219D002F58062934215D0B5
:1045600002F58062934211D002F5784293420DD059
:1045700002F57052934209D0A2F59432934205D0CD
:104580001A6842F001021A60002070479A6802F02F
:104590000702062A07D01A6842F001021A600020BA
:1045A0007047012070470020704700BF00000140A5
:1045B0000268D36823F00103D3600368196A41F2EB
:1045C0001112114208D1196A40F24442114203D13A
:1045D0001A6822F001021A60012380F83D300020A1
:1045E0007047704770477047704710B504460368BE
:1045F0001A6912F0020F11D0DA6812F0020F0DD012
:104600006FF002021A610123037703689B6913F0BC
:10461000030F70D0FFF7E6FF0023237723681A69A2
:1046200012F0040F12D0DA6812F0040F0ED06FF0FF
:1046300004021A610223237723689B6913F4407FE5
:104640005FD02046FFF7CEFF0023237723681A6947
:1046500012F0080F12D0DA6812F0080F0ED06FF0C7
:1046600008021A61042323772368DB6913F0030F20
:104670004ED02046FFF7B6FF0023237723681A6940
:1046800012F0100F12D0DA6812F0100F0ED06FF087
:1046900010021A61082323772368DB6913F4407F33
:1046A0003DD02046FFF79EFF0023237723681A6939
:1046B00012F0010F03D0DA6812F0010F36D123682F
:1046C0001A6912F0800F03D0DA6812F0800F34D12B
:1046D00023681A6912F0400F03D0DA6812F0400F15
:1046E00032D123681A6912F0200F03D0DA6812F071
:1046F000200F30D110BDFFF774FF2046FFF773FF86
:104700008AE72046FFF76DFF2046FFF76CFF9BE727
:104710002046FFF766FF2046FFF765FFACE720461F
:10472000FFF75FFF2046FFF75EFFBDE76FF0010276
:104730001A612046FCF7F6FEC1E76FF080021A61AD
:10474000204600F073FAC3E76FF040021A6120467A
:10475000FFF74AFFC5E76FF020021A61204600F01C
:1047600064FAC7E70368304A904212D0B0F1804F34
:104770000FD0A2F57C4290420BD002F580629042AD
:1047800007D002F58062904203D002F57842904251
:1047900003D123F070034A681343234A90422AD07E
:1047A000B0F1804F27D0A2F57C42904223D002F591
:1047B000806290421FD002F5806290421BD002F5C9
:1047C0007842904217D002F57052904213D002F511
:1047D000806290420FD002F5806290420BD0A2F529
:1047E0009832904207D002F58062904203D002F5E1
:1047F0008062904203D123F44073CA68134323F0CC
:1048000080034A69134303608B68C3620B68836249
:10481000054B984203D003F58063984201D10B69A0
:1048200003630123436170470000014040B310B5AA
:10483000044690F83D30F3B1022384F83D30214620
:1048400051F8040BFFF78EFF012384F8463084F8FB
:104850003E3084F83F3084F8403084F8413084F8AA
:10486000423084F8433084F8443084F8453084F88A
:104870003D30002010BD80F83C30FDF70DFBDBE73C
:104880000120704740B310B5044690F83D30F3B1B5
:10489000022384F83D30214651F8040BFFF762FFF4
:1048A000012384F8463084F83E3084F83F3084F8A1
:1048B000403084F8413084F8423084F8433084F842
:1048C000443084F8453084F83D30002010BD80F835
:1048D0003C30FDF7B9FADBE70120704730B4036ADA
:1048E00023F010030362036A4468826922F4E642FB
:1048F0000D6842EA052223F020038D6843EA051380
:10490000114DA84203D005F58065A84206D123F0D9
:104910008003CD6843EA051323F040030A4DA84203
:1049200003D005F58065A84207D124F440644D69A1
:1049300044EA85048D6944EA8504446082614A68DA
:104940008263036230BC70470000014038B590F8C4
:104950003C30012B66D004460D46012380F83C30E4
:104960000C2A5AD8DFE802F0075959591B595959EE
:104970003059595944000068FFF742FD2268936995
:1049800043F0080393612268936923F00403936161
:104990002268936929690B43936100203EE0006817
:1049A000FFF79CFF2268936943F4006393612268D8
:1049B000936923F48063936122689369296943EAC8
:1049C00001239361002029E00068FFF74DFD226874
:1049D000D36943F00803D3612268D36923F0040349
:1049E000D3612268D36929690B43D361002015E0A4
:1049F0000068FFF771FD2268D36943F40063D36157
:104A00002268D36923F48063D3612268D36929695A
:104A100043EA0123D361002000E00120002384F851
:104A20003C3038BD0220FCE701F01F01012303FAEE
:104A300001FC036A23EA0C030362036A02FA01F130
:104A40000B4303627047000010B504460846002976
:104A500042D194F83E30DBB2013B18BF0123002B5A
:104A60006ED1002851D1022384F83E300122014644
:104A70002068FFF7D9FF2368334A934203D002F539
:104A80008062934203D15A6C42F400425A64236814
:104A90002D4A934249D0B3F1804F46D0A2F57C42D3
:104AA000934242D002F5806293423ED002F580628A
:104AB00093423AD002F57842934236D002F57052D2
:104AC000934232D0A2F5943293422ED01A6842F02B
:104AD00001021A60002032E0042908D008290DD014
:104AE00094F84130DBB2013B18BF0123B7E794F8DB
:104AF0003F30DBB2013B18BF0123B0E794F84030F0
:104B0000DBB2013B18BF0123A9E7042805D0082820
:104B100007D0022384F84130A8E7022384F83F300D
:104B2000A4E7022384F84030A0E79A6802F0070265
:104B3000062A07D01A6842F001021A60002010BD50
:104B40000120FCE70020FAE70000014090F83C302B
:104B5000012B3DD010B4012380F83C30022380F8B3
:104B60003D3003685A689C6822F0700C0A6842EA7B
:104B70000C025A600368174A93421AD0B3F1804F6F
:104B800017D0A2F57C42934213D002F58062934283
:104B90000FD002F5806293420BD002F57842934227
:104BA00007D002F57052934203D0A2F5943293429B
:104BB00004D124F080044A6814439C60012380F8E7
:104BC0003D30002380F83C3018465DF8044B7047B8
:104BD000022070470000014090F83C30012B22D0A9
:104BE000012380F83C30CB6823F440738A68134378
:104BF00023F480634A68134323F400630A68134371
:104C000023F480530A69134323F400534A6913437E
:104C100023F48043CA69134302685364002380F875
:104C20003C301846704702207047704770470000BC
:104C300038B504460268136923F44053C1680B4336
:104C4000136183680269134342691343C2691A43BB
:104C50000168CB6823F4164323F00C031343CB60A5
:104C60000268536923F4407381690B4353610368FD
:104C7000314A934206D002F58062934202D0FEF799
:104C8000E5F901E0FEF7F2F9E369B3F5004F29D049
:104C90000021031849411B1841F10001C90041EAF4
:104CA0005371DB00181863684FEA83024FEA93736D
:104CB00041F10001FBF7E8FF204DA5FB003251094F
:104CC000642303FB11031B013233A5FB03235B09A0
:104CD00003F0F00202EB011203F00F03216813440A
:104CE0008B6038BD0023021843EB0301121841F119
:104CF0000001C90041EA5271D200101841F10001CF
:104D0000626892185B41FBF7BFFF0C4DA5FB0032B8
:104D10005109642303FB1103DB003233A5FB03239A
:104D20005B095A0002F4F87202EB011203F0070368
:104D3000216813448B60D4E7001001401F85EB51BC
:104D400058B310B5044690F83D300BB3242384F8D3
:104D50003D302268D36823F40053D3602046FFF728
:104D600067FF2268136923F4904313612268536933
:104D700023F02A0353612268D36843F40053D360BD
:104D800000202064202384F83D3084F83E3010BD9C
:104D900080F83C30FDF752FDD8E701207047000055
:104DA000034AD2F8883043F47003C2F88830704761
:104DB00000ED00E0DFF834D00D480E490E4A002324
:104DC00002E0D458C4500433C4188C42F9D30B4ABF
:104DD0000B4C002301E013600432A242FBD3FFF727
:104DE000DFFF00F011F8FCF7FBFC70470000042027
:104DF000000000209C2D0020F47E00089C2D002047
:104E0000D8300020FEE7000070B50D4D0D4C641B3E
:104E1000A4100026A64209D10B4D0C4C02F00CFE4A
:104E2000641BA4100026A64205D170BD55F8043BB2
:104E300098470136EEE755F8043B98470136F2E70C
:104E4000EC7E0008EC7E0008EC7E0008F07E000896
:104E50000A44914200F1FF3300D1704710B511F8B8
:104E6000014B03F8014F9142F9D110BD02440346B2
:104E7000934200D1704703F8011BF9E72DE9FF4782
:104E800055EC104B002D0E4619462B46BBBF05F1C5
:104E900000431D4600232D230B700D9BDDF830A031
:104EA000914623F02008BCBF22461446B8F1460FB5
:104EB00005D0B8F1450F00D10136022100E00321F1
:104EC00003AB019302AB009345EC104B53463246C3
:104ED00000F01AFEB8F1470F074602D119F0010F92
:104EE00022D0B8F1460F07EB060910D13B78302BE2
:104EF0000AD10022002320462946FBF705FE18B9F7
:104F0000C6F10106CAF80060DAF8003099440022C0
:104F1000002320462946FBF7F7FD08B1CDF80C9099
:104F20003022039B4B4507D3039B0E9ADB1B38466D
:104F3000136004B0BDE8F087591C03911A70F0E7C4
:104F4000F7B503460029B8BF494203F8022BB4BFA6
:104F50002D222B22092942702ADD0DF10704A446D7
:104F60000A27A6460A4691FBF7F607FB16153035C9
:104F7000632A04F1FF340EF8015C3146F1DC303174
:104F8000AEF1020504F8011C441C294661450AD310
:104F90000DF10902A2EB0E02654588BF0022134401
:104FA000181A03B0F0BD11F8012B04F8012FEDE73A
:104FB000302330318370C170031DF1E72DE9F04FCC
:104FC0002DED028B8DB00C46DDF8608016461F4635
:104FD000054601F03FFDD0F800A05046FBF718F958
:104FE00000230A9323680593D8F8003094F818B08A
:104FF000073323F0070303F10802C8F80020D3E9C0
:105000000023C4E91223D4E9128929F0004307934D
:10501000CDF8188008EE100A9F4BDDE906014FF02D
:10502000FF32FBF7A3FD88BBDDE906019A4B4FF089
:10503000FF32FBF77DFD48BB002200234046494676
:10504000FBF76CFD10B12D2384F84330934B94484B
:10505000BBF1470F94BF9846804603232361059B0D
:1050600023F0040222604FF00009009733460BAA98
:105070002146284600F0D8F9013040F090804FF0EA
:10508000FF300DB0BDEC028BBDE8F08F42464B46C1
:1050900040464946FBF76AFD40B14B46002BBCBF7A
:1050A0002D2384F843307F487F4BD1E763680BF0B2
:1050B000DF0206925A1C3FD106236360059B61689C
:1050C00043F48062002303930AABCDE901B309AB3B
:1050D00049EC108B009322600DF123032846FFF763
:1050E000CDFE069B0999472B804608D1C81C02DBE0
:1050F0006368994241DDABF1020B5FFA8BFBBBF1B8
:10510000650F20D801395A4604F150000991FFF784
:1051100017FF0A9A1318012A8146236102DC2268CC
:10512000D20701D5013323619DF82330002B9CD099
:105130002D2384F8433098E7069A472ABED1002BE6
:10514000BCD10123B9E7BBF1660F18D10029636810
:105150000BDD216113B92268D00702D501330B445E
:105160002361A1654FF00009DEE713B92268D20779
:1051700001D50233F4E70123F2E74FF0670B0A9BF6
:10518000994205DB23682161D807EAD54B1CE7E784
:105190000029D4BFC1F1020201221344E0E72368D1
:1051A0005A0507D42369424631462846B84701309C
:1051B0002CD164E7BBF1650F40F2E080D4E9120125
:1051C00000220023FBF7A0FC002834D0374A01233B
:1051D00031462846B84701303FF451AFDDE9092395
:1051E0009A4202DB2368D80710D518EE103A5246CF
:1051F00031462846B84701303FF441AF4FF0000830
:1052000004F11A090A9B013B434509DC23689B070B
:1052100000F10581E0680B9B9842B8BF184630E763
:1052200001234A4631462846B84701303FF427AFAC
:1052300008F10108E6E7099B002B39DC1B4A012332
:1052400031462846B84701303FF419AFDDE909235C
:10525000134302D12368D907D8D518EE103A524625
:1052600031462846B84701303FF409AF4FF00009F6
:1052700004F11A0A099B5B424B4501DC0A9B92E749
:105280000123524631462846B84701303FF4F7AE75
:1052900009F10109EEE700BFFFFFEF7FC47A0008C4
:1052A000C87A0008D07A0008CC7A0008D47A0008BE
:1052B0000A9AA36D9A42A8BF1A46002A914637DC83
:1052C0004FF0000B29EAE97904F11A02A36D059366
:1052D000A3EB09035B4533DCDDE909239A423BDBA1
:1052E0002368DA0738D40A9B059A09999A1AA3EB1E
:1052F00001099145A8BF9146B9F1000F35DC4FF087
:10530000000829EAE97904F11A0ADDE909239B1A60
:10531000A3EB090343457FF779AF0123524631469A
:105320002846B84701303FF4AAAE08F10108ECE77F
:105330001346314642462846B8470130C0D19EE662
:105340000123314628460592B84701303FF497AE15
:10535000059A0BF1010BB9E718EE103A52463146A7
:105360002846B8470130BED189E6059A4B464244EB
:1053700031462846B8470130C1D180E60A9A012A51
:1053800001DCDB0738D50123424631462846B847C1
:1053900001303FF474AE18EE103A524631462846BA
:1053A000B84701303FF46BAED4E91201002200236C
:1053B000FBF7AAFBD8B90A9B08F10102013B314671
:1053C0002846B84701300ED159E6012352463146EE
:1053D0002846B84701303FF452AE08F101080A9B55
:1053E000013B4345F1DC4B4604F15002DCE64FF053
:1053F000000804F11A0AF2E701234246DFE701231D
:105400004A4631462846B84701303FF438AE08F1E5
:105410000108E3680B995B1A4345F0DCFAE64FF0AC
:10542000000804F11909F4E72DE9F04716469946FA
:105430008A680B69DDF820809342B8BF1346336059
:1054400091F8432007460C460AB1013333602368C4
:10545000990642BF336802333360256815F00605AC
:1054600006D104F1190AE36832689B1AAB4226DCC4
:1054700094F84320131E226818BF012392062BD4F0
:1054800004F1430249463846C04701301ED0236824
:10549000E568326803F00603042B08BFAD1AA36861
:1054A00022690CBF25EAE57500259342C4BF9B1A0B
:1054B000ED1800261A34B5421AD1002008E0012365
:1054C000524649463846C047013003D14FF0FF30BD
:1054D000BDE8F0870135C6E7E1185A1C302081F895
:1054E0004300224494F8451082F843100233C7E782
:1054F0000123224649463846C0470130E6D00136EE
:10550000D9E700002DE9FF470F7E0C9D782F9146CB
:1055100080460C469A4601F1430207D8622F0AD80A
:10552000002F00F0D880582F00F0A38004F142052E
:1055300084F842703AE0A7F16303152BF6D801A175
:1055400051F823F09D550008B15500082D5500086D
:105550002D5500082D5500082D550008B15500089F
:105560002D5500082D5500082D5500082D55000813
:10557000BD560008E15500089F5600082D5500084B
:105580002D550008DF5600082D550008E15500088C
:105590002D5500082D550008A75600082B681A1D28
:1055A0001B682A6004F1420584F842300123A3E01D
:1055B00020682968060601F104030AD50E682B60ED
:1055C000002E03DA2D23764284F843305E480A2306
:1055D00019E00E682B6010F0400F18BF36B2EFE7ED
:1055E0002B682068191D2960010601D51E6802E09C
:1055F0004606FBD51E8854486F2F0CBF08230A238C
:10560000002184F843106568A560002DA2BF2168C1
:1056100021F0040121600EB9002D4DD01546B6FBD6
:10562000F3F103FB1167C75D05F8017D3746BB4207
:105630000E46F4D9082B0BD12368DE0708D5236961
:1056400061689942DEBF302305F8013C05F1FF3562
:10565000521B2261CDF800A04B4603AA21464046CA
:10566000FFF7E2FE01304CD14FF0FF3004B0BDE84F
:10567000F087354881F845702968236851F8046B34
:1056800029601D0614D5DF0744BF43F020032360C3
:105690001EB9236823F0200323601023B0E723689A
:1056A00043F0200323607823284884F84530E3E75B
:1056B000590648BFB6B2E6E71546BBE72B68266831
:1056C0006169181D286035061B6801D5196002E064
:1056D0007006FBD51980002323611546BAE72B68B5
:1056E0001A1D2A601D68626800212846FAF798FD95
:1056F00008B1401B606063682361002384F8433075
:10570000A8E723692A4649464046D0470130ABD036
:1057100023689B0713D4E068039B9842B8BF1846E0
:10572000A4E70123324649464046D04701309BD08A
:105730000135E36803995B1AAB42F2DCEBE7002525
:1057400004F11906F5E700BFD67A0008E77A0008E9
:105750000FB40A4B13B51C6824B1A36913B92046D2
:1057600001F0DAF805AB049AA1680193204601F034
:1057700089FE02B0BDE8104004B07047CC2B002079
:1057800070B50E46054618B183690BB901F0C4F82F
:10579000AB69AC6813B9284601F0BEF82C4B9C42AB
:1057A00020D16C68636EDB0705D4A389980502D409
:1057B000A06D01F054F9A38919071DD52369DBB148
:1057C000013EA36816F8011F013BA36039BB002B03
:1057D00038DA22460A21284600F048F8013011D074
:1057E0000A2511E01B4B9C4201D1AC68DAE71A4B49
:1057F0009C4208BFEC68D5E72146284600F088F8AF
:105800000028DDD04FF0FF35636EDA0705D4A38999
:105810009B0502D4A06D01F023F9284670BD002B32
:1058200004DAA2699A4206DC0A2904D023685A1CC9
:1058300022601970C5E72246284600F017F80130AB
:10584000BFD1DFE723680A255A1C22601D70DBE701
:10585000CC7B0008EC7B0008AC7B0008024B0146C7
:105860001868FFF78DBF00BFCC2B0020F8B50E469F
:105870001446054618B183690BB901F04DF8214B68
:105880009C422BD16C68A369A360A3891A072FD50A
:1058900023696BB323692068C01A6369F6B2834237
:1058A000374604DC2146284600F0A2FF30BBA3683F
:1058B000013BA36023685A1C22601E70636901309B
:1058C000834204D0A389DB0706D50A2E04D12146E2
:1058D000284600F08DFF88B93846F8BD0A4B9C4237
:1058E00001D1AC68CFE7094B9C4208BFEC68CAE71E
:1058F0002146284600F00CF80028CBD04FF0FF37A7
:10590000EAE700BFCC7B0008EC7B0008AC7B00081A
:10591000324B70B51D6806460C4625B1AB6913B90C
:10592000284600F0F9FF2E4B9C420FD16C68A389EA
:10593000B4F90C2019072CD4DD0611D409233360E7
:1059400042F04003A3814FF0FF303EE0254B9C42E4
:1059500001D1AC68EBE7244B9C4208BFEC68E6E75A
:10596000580712D5616B41B104F14403994202D04A
:10597000304601F07DFC00236363A38923F02403F8
:10598000A3810023636023692360A38943F0080394
:10599000A38123694BB9A38903F42073B3F5007F76
:1059A00003D02146304601F081F8A089B4F90C20DB
:1059B00010F001030AD00023A36063695B42A36176
:1059C000236943B910F08000BAD170BD810758BF78
:1059D0006369A360F4E70020F7E700BFCC2B002049
:1059E000CC7B0008EC7B0008AC7B00082DE9F74F6E
:1059F00003690C69A3420746C0F28180013C01F1B2
:105A0000140800F1140505EB8403019358F82430C1
:105A100055F8242001339A424FEA840B08EB84099D
:105A2000B2FBF3F631D34FF0000E4046AC46F246DF
:105A300050F8042B93B206FB03E34FEA134E9BB2DC
:105A4000AAEB0303DCF800A0120C13FA8AF306FB9E
:105A500002E20093009B4FEA124E92B2C2EB1A424E
:105A600002EB2342BDF80030814543EA02434CF883
:105A7000043B4FEA224ADBD255F80B302BB9019B8D
:105A8000043B9D421A462ED33C61384601F0D8FAB9
:105A9000002824DB013628464FF0000C58F8042B70
:105AA000D0F800E093B2ACEB0303120C13FA8EF3C0
:105AB000C2EB1E4202EB23429BB243EA0243C145C2
:105AC00040F8043B4FEA224CE8D255F8242005EB7D
:105AD000840322B9043B9D421A460AD33C613046F6
